{
  "_format": "hh-sol-artifact-1",
  "contractName": "VotingSystem",
  "sourceName": "contracts/VotingSystem.sol",
  "abi": [
    {
      "inputs": [],
      "stateMutability": "nonpayable",
      "type": "constructor"
    },
    {
      "anonymous": false,
      "inputs": [
        {
          "indexed": true,
          "internalType": "address",
          "name": "voter",
          "type": "address"
        },
        {
          "indexed": false,
          "internalType": "uint256",
          "name": "candidateIndex",
          "type": "uint256"
        }
      ],
      "name": "Voted",
      "type": "event"
    },
    {
      "inputs": [
        {
          "internalType": "uint256",
          "name": "",
          "type": "uint256"
        }
      ],
      "name": "candidateVotes",
      "outputs": [
        {
          "internalType": "uint256",
          "name": "",
          "type": "uint256"
        }
      ],
      "stateMutability": "view",
      "type": "function"
    },
    {
      "inputs": [],
      "name": "chairperson",
      "outputs": [
        {
          "internalType": "address",
          "name": "",
          "type": "address"
        }
      ],
      "stateMutability": "view",
      "type": "function"
    },
    {
      "inputs": [],
      "name": "fee",
      "outputs": [
        {
          "internalType": "uint256",
          "name": "",
          "type": "uint256"
        }
      ],
      "stateMutability": "view",
      "type": "function"
    },
    {
      "inputs": [],
      "name": "getVotingResults",
      "outputs": [
        {
          "internalType": "uint256[]",
          "name": "",
          "type": "uint256[]"
        }
      ],
      "stateMutability": "view",
      "type": "function"
    },
    {
      "inputs": [],
      "name": "myToken",
      "outputs": [
        {
          "internalType": "contract MyToken",
          "name": "",
          "type": "address"
        }
      ],
      "stateMutability": "view",
      "type": "function"
    },
    {
      "inputs": [
        {
          "internalType": "address",
          "name": "_tokenAddress",
          "type": "address"
        }
      ],
      "name": "setTokenContract",
      "outputs": [],
      "stateMutability": "nonpayable",
      "type": "function"
    },
    {
      "inputs": [
        {
          "internalType": "uint256",
          "name": "candidateIndex",
          "type": "uint256"
        }
      ],
      "name": "vote",
      "outputs": [],
      "stateMutability": "nonpayable",
      "type": "function"
    },
    {
      "inputs": [
        {
          "internalType": "address",
          "name": "",
          "type": "address"
        }
      ],
      "name": "votes",
      "outputs": [
        {
          "internalType": "uint256",
          "name": "",
          "type": "uint256"
        }
      ],
      "stateMutability": "view",
      "type": "function"
    }
  ],
  "bytecode": "0x6080604052600160025534801561001557600080fd5b5033600160006101000a81548173ffffffffffffffffffffffffffffffffffffffff021916908373ffffffffffffffffffffffffffffffffffffffff160217905550610e4c806100666000396000f3fe608060405234801561001057600080fd5b50600436106100885760003560e01c8063d8bff5a51161005b578063d8bff5a514610101578063da650ec614610131578063ddca3f431461014f578063f49e323e1461016d57610088565b80630121b93f1461008d5780632e4176cf146100a9578063b8fcf937146100c7578063bbcd5bbe146100e5575b600080fd5b6100a760048036038101906100a2919061076d565b61019d565b005b6100b161057b565b6040516100be91906107db565b60405180910390f35b6100cf6105a1565b6040516100dc9190610855565b60405180910390f35b6100ff60048036038101906100fa919061089c565b6105c5565b005b61011b6004803603810190610116919061089c565b610698565b60405161012891906108d8565b60405180910390f35b6101396106b0565b60405161014691906109b1565b60405180910390f35b610157610708565b60405161016491906108d8565b60405180910390f35b6101876004803603810190610182919061076d565b61070e565b60405161019491906108d8565b60405180910390f35b600073ffffffffffffffffffffffffffffffffffffffff163373ffffffffffffffffffffffffffffffffffffffff160361020c576040517f08c379a000000000000000000000000000000000000000000000000000000000815260040161020390610a30565b60405180910390fd5b600073ffffffffffffffffffffffffffffffffffffffff1660008054906101000a900473ffffffffffffffffffffffffffffffffffffffff1673ffffffffffffffffffffffffffffffffffffffff160361029b576040517f08c379a000000000000000000000000000000000000000000000000000000000815260040161029290610a9c565b60405180910390fd5b60025460008054906101000a900473ffffffffffffffffffffffffffffffffffffffff1673ffffffffffffffffffffffffffffffffffffffff166370a08231336040518263ffffffff1660e01b81526004016102f791906107db565b602060405180830381865afa158015610314573d6000803e3d6000fd5b505050506040513d601f19601f820116820180604052508101906103389190610ad1565b1015610379576040517f08c379a000000000000000000000000000000000000000000000000000000000815260040161037090610b4a565b60405180910390fd5b60048054905081106103c0576040517f08c379a00000000000000000000000000000000000000000000000000000000081526004016103b790610bb6565b60405180910390fd5b60008054906101000a900473ffffffffffffffffffffffffffffffffffffffff1673ffffffffffffffffffffffffffffffffffffffff166323b872dd33306002546040518463ffffffff1660e01b815260040161041f93929190610bd6565b6020604051808303816000875af115801561043e573d6000803e3d6000fd5b505050506040513d601f19601f820116820180604052508101906104629190610c45565b6104a1576040517f08c379a000000000000000000000000000000000000000000000000000000000815260040161049890610cbe565b60405180910390fd5b600360003373ffffffffffffffffffffffffffffffffffffffff1673ffffffffffffffffffffffffffffffffffffffff16815260200190815260200160002060008154809291906104f190610d0d565b91905055506004818154811061050a57610509610d55565b5b90600052602060002001600081548092919061052590610d0d565b91905055503373ffffffffffffffffffffffffffffffffffffffff167f4d99b957a2bc29a30ebd96a7be8e68fe50a3c701db28a91436490b7d53870ca48260405161057091906108d8565b60405180910390a250565b600160009054906101000a900473ffffffffffffffffffffffffffffffffffffffff1681565b60008054906101000a900473ffffffffffffffffffffffffffffffffffffffff1681565b600160009054906101000a900473ffffffffffffffffffffffffffffffffffffffff1673ffffffffffffffffffffffffffffffffffffffff163373ffffffffffffffffffffffffffffffffffffffff1614610655576040517f08c379a000000000000000000000000000000000000000000000000000000000815260040161064c90610df6565b60405180910390fd5b806000806101000a81548173ffffffffffffffffffffffffffffffffffffffff021916908373ffffffffffffffffffffffffffffffffffffffff16021790555050565b60036020528060005260406000206000915090505481565b606060048054806020026020016040519081016040528092919081815260200182805480156106fe57602002820191906000526020600020905b8154815260200190600101908083116106ea575b5050505050905090565b60025481565b6004818154811061071e57600080fd5b906000526020600020016000915090505481565b600080fd5b6000819050919050565b61074a81610737565b811461075557600080fd5b50565b60008135905061076781610741565b92915050565b60006020828403121561078357610782610732565b5b600061079184828501610758565b91505092915050565b600073ffffffffffffffffffffffffffffffffffffffff82169050919050565b60006107c58261079a565b9050919050565b6107d5816107ba565b82525050565b60006020820190506107f060008301846107cc565b92915050565b6000819050919050565b600061081b6108166108118461079a565b6107f6565b61079a565b9050919050565b600061082d82610800565b9050919050565b600061083f82610822565b9050919050565b61084f81610834565b82525050565b600060208201905061086a6000830184610846565b92915050565b610879816107ba565b811461088457600080fd5b50565b60008135905061089681610870565b92915050565b6000602082840312156108b2576108b1610732565b5b60006108c084828501610887565b91505092915050565b6108d281610737565b82525050565b60006020820190506108ed60008301846108c9565b92915050565b600081519050919050565b600082825260208201905092915050565b6000819050602082019050919050565b61092881610737565b82525050565b600061093a838361091f565b60208301905092915050565b6000602082019050919050565b600061095e826108f3565b61096881856108fe565b93506109738361090f565b8060005b838110156109a457815161098b888261092e565b975061099683610946565b925050600181019050610977565b5085935050505092915050565b600060208201905081810360008301526109cb8184610953565b905092915050565b600082825260208201905092915050565b7f496e76616c69642073656e646572206164647265737300000000000000000000600082015250565b6000610a1a6016836109d3565b9150610a25826109e4565b602082019050919050565b60006020820190508181036000830152610a4981610a0d565b9050919050565b7f546f6b656e20636f6e7472616374206e6f742073657400000000000000000000600082015250565b6000610a866016836109d3565b9150610a9182610a50565b602082019050919050565b60006020820190508181036000830152610ab581610a79565b9050919050565b600081519050610acb81610741565b92915050565b600060208284031215610ae757610ae6610732565b5b6000610af584828501610abc565b91505092915050565b7f496e73756666696369656e7420746f6b656e7320746f20766f74650000000000600082015250565b6000610b34601b836109d3565b9150610b3f82610afe565b602082019050919050565b60006020820190508181036000830152610b6381610b27565b9050919050565b7f496e76616c69642063616e64696461746520696e646578000000000000000000600082015250565b6000610ba06017836109d3565b9150610bab82610b6a565b602082019050919050565b60006020820190508181036000830152610bcf81610b93565b9050919050565b6000606082019050610beb60008301866107cc565b610bf860208301856107cc565b610c0560408301846108c9565b949350505050565b60008115159050919050565b610c2281610c0d565b8114610c2d57600080fd5b50565b600081519050610c3f81610c19565b92915050565b600060208284031215610c5b57610c5a610732565b5b6000610c6984828501610c30565b91505092915050565b7f546f6b656e207472616e73666572206661696c65640000000000000000000000600082015250565b6000610ca86015836109d3565b9150610cb382610c72565b602082019050919050565b60006020820190508181036000830152610cd781610c9b565b9050919050565b7f4e487b7100000000000000000000000000000000000000000000000000000000600052601160045260246000fd5b6000610d1882610737565b91507fffffffffffffffffffffffffffffffffffffffffffffffffffffffffffffffff8203610d4a57610d49610cde565b5b600182019050919050565b7f4e487b7100000000000000000000000000000000000000000000000000000000600052603260045260246000fd5b7f4f6e6c7920746865206368616972706572736f6e2063616e207365742074686560008201527f20746f6b656e20636f6e74726163740000000000000000000000000000000000602082015250565b6000610de0602f836109d3565b9150610deb82610d84565b604082019050919050565b60006020820190508181036000830152610e0f81610dd3565b905091905056fea2646970667358221220ef7b425de7de647f47e7b74e5ee8e06dca6f7606016413a012a965bab6b76ba964736f6c63430008140033",
  "linkReferences": {},
  "deployedLinkReferences": {}
}