{
  "_format": "hh-sol-artifact-1",
  "contractName": "VotingSystem",
  "sourceName": "contracts/VotingSystem.sol",
  "abi": [
    {
      "inputs": [],
      "stateMutability": "nonpayable",
      "type": "constructor"
    },
    {
      "anonymous": false,
      "inputs": [
        {
          "indexed": true,
          "internalType": "address",
          "name": "voter",
          "type": "address"
        },
        {
          "indexed": false,
          "internalType": "string",
          "name": "encryptedVote",
          "type": "string"
        }
      ],
      "name": "Voted",
      "type": "event"
    },
    {
      "inputs": [],
      "name": "chairperson",
      "outputs": [
        {
          "internalType": "address",
          "name": "",
          "type": "address"
        }
      ],
      "stateMutability": "view",
      "type": "function"
    },
    {
      "inputs": [],
      "name": "getAllVoters",
      "outputs": [
        {
          "internalType": "address[]",
          "name": "",
          "type": "address[]"
        }
      ],
      "stateMutability": "view",
      "type": "function"
    },
    {
      "inputs": [],
      "name": "getEncryptedVotes",
      "outputs": [
        {
          "internalType": "string[]",
          "name": "",
          "type": "string[]"
        }
      ],
      "stateMutability": "view",
      "type": "function"
    },
    {
      "inputs": [],
      "name": "myToken",
      "outputs": [
        {
          "internalType": "contract MyToken",
          "name": "",
          "type": "address"
        }
      ],
      "stateMutability": "view",
      "type": "function"
    },
    {
      "inputs": [
        {
          "internalType": "address",
          "name": "_tokenAddress",
          "type": "address"
        }
      ],
      "name": "setTokenContract",
      "outputs": [],
      "stateMutability": "nonpayable",
      "type": "function"
    },
    {
      "inputs": [
        {
          "internalType": "string",
          "name": "encryptedVote",
          "type": "string"
        }
      ],
      "name": "vote",
      "outputs": [],
      "stateMutability": "nonpayable",
      "type": "function"
    },
    {
      "inputs": [
        {
          "internalType": "uint256",
          "name": "",
          "type": "uint256"
        }
      ],
      "name": "voters",
      "outputs": [
        {
          "internalType": "address",
          "name": "",
          "type": "address"
        }
      ],
      "stateMutability": "view",
      "type": "function"
    }
  ],
  "bytecode": "0x608060405234801561001057600080fd5b5033600160006101000a81548173ffffffffffffffffffffffffffffffffffffffff021916908373ffffffffffffffffffffffffffffffffffffffff1602179055506114f3806100616000396000f3fe608060405234801561001057600080fd5b506004361061007d5760003560e01c8063b8fcf9371161005b578063b8fcf937146100dc578063bbcd5bbe146100fa578063da58c7d914610116578063fc36e15b146101465761007d565b80632e4176cf1461008257806335bbe70e146100a05780639a6efcc0146100be575b600080fd5b61008a610162565b60405161009791906108f2565b60405180910390f35b6100a8610188565b6040516100b591906109cb565b60405180910390f35b6100c6610216565b6040516100d39190610b3f565b60405180910390f35b6100e46102ef565b6040516100f19190610bc0565b60405180910390f35b610114600480360381019061010f9190610c11565b610313565b005b610130600480360381019061012b9190610c74565b6103e6565b60405161013d91906108f2565b60405180910390f35b610160600480360381019061015b9190610d06565b610425565b005b600160009054906101000a900473ffffffffffffffffffffffffffffffffffffffff1681565b6060600380548060200260200160405190810160405280929190818152602001828054801561020c57602002820191906000526020600020905b8160009054906101000a900473ffffffffffffffffffffffffffffffffffffffff1673ffffffffffffffffffffffffffffffffffffffff16815260200190600101908083116101c2575b5050505050905090565b60606002805480602002602001604051908101604052809291908181526020016000905b828210156102e657838290600052602060002001805461025990610d82565b80601f016020809104026020016040519081016040528092919081815260200182805461028590610d82565b80156102d25780601f106102a7576101008083540402835291602001916102d2565b820191906000526020600020905b8154815290600101906020018083116102b557829003601f168201915b50505050508152602001906001019061023a565b50505050905090565b60008054906101000a900473ffffffffffffffffffffffffffffffffffffffff1681565b600160009054906101000a900473ffffffffffffffffffffffffffffffffffffffff1673ffffffffffffffffffffffffffffffffffffffff163373ffffffffffffffffffffffffffffffffffffffff16146103a3576040517f08c379a000000000000000000000000000000000000000000000000000000000815260040161039a90610e36565b60405180910390fd5b806000806101000a81548173ffffffffffffffffffffffffffffffffffffffff021916908373ffffffffffffffffffffffffffffffffffffffff16021790555050565b600381815481106103f657600080fd5b906000526020600020016000915054906101000a900473ffffffffffffffffffffffffffffffffffffffff1681565b600073ffffffffffffffffffffffffffffffffffffffff163373ffffffffffffffffffffffffffffffffffffffff1603610494576040517f08c379a000000000000000000000000000000000000000000000000000000000815260040161048b90610ea2565b60405180910390fd5b600073ffffffffffffffffffffffffffffffffffffffff1660008054906101000a900473ffffffffffffffffffffffffffffffffffffffff1673ffffffffffffffffffffffffffffffffffffffff1603610523576040517f08c379a000000000000000000000000000000000000000000000000000000000815260040161051a90610f0e565b60405180910390fd5b600160008054906101000a900473ffffffffffffffffffffffffffffffffffffffff1673ffffffffffffffffffffffffffffffffffffffff166370a08231336040518263ffffffff1660e01b815260040161057e91906108f2565b602060405180830381865afa15801561059b573d6000803e3d6000fd5b505050506040513d601f19601f820116820180604052508101906105bf9190610f43565b1015610600576040517f08c379a00000000000000000000000000000000000000000000000000000000081526004016105f790610fbc565b60405180910390fd5b600260008054906101000a900473ffffffffffffffffffffffffffffffffffffffff1673ffffffffffffffffffffffffffffffffffffffff166370a08231336040518263ffffffff1660e01b815260040161065b91906108f2565b602060405180830381865afa158015610678573d6000803e3d6000fd5b505050506040513d601f19601f8201168201806040525081019061069c9190610f43565b106106dc576040517f08c379a00000000000000000000000000000000000000000000000000000000081526004016106d39061104e565b60405180910390fd5b60008054906101000a900473ffffffffffffffffffffffffffffffffffffffff1673ffffffffffffffffffffffffffffffffffffffff166323b872dd333060016040518463ffffffff1660e01b815260040161073a939291906110a9565b6020604051808303816000875af1158015610759573d6000803e3d6000fd5b505050506040513d601f19601f8201168201806040525081019061077d9190611118565b6107bc576040517f08c379a00000000000000000000000000000000000000000000000000000000081526004016107b390611191565b60405180910390fd5b60028282909180600181540180825580915050600190039060005260206000200160009091929091929091929091925091826107f992919061138d565b506003339080600181540180825580915050600190039060005260206000200160009091909190916101000a81548173ffffffffffffffffffffffffffffffffffffffff021916908373ffffffffffffffffffffffffffffffffffffffff1602179055503373ffffffffffffffffffffffffffffffffffffffff167fcb6783276e8a4347387036bbfea000268f0a4b1f8c46ac79980609f2af8d2acd83836040516108a5929190611499565b60405180910390a25050565b600073ffffffffffffffffffffffffffffffffffffffff82169050919050565b60006108dc826108b1565b9050919050565b6108ec816108d1565b82525050565b600060208201905061090760008301846108e3565b92915050565b600081519050919050565b600082825260208201905092915050565b6000819050602082019050919050565b610942816108d1565b82525050565b60006109548383610939565b60208301905092915050565b6000602082019050919050565b60006109788261090d565b6109828185610918565b935061098d83610929565b8060005b838110156109be5781516109a58882610948565b97506109b083610960565b925050600181019050610991565b5085935050505092915050565b600060208201905081810360008301526109e5818461096d565b905092915050565b600081519050919050565b600082825260208201905092915050565b6000819050602082019050919050565b600081519050919050565b600082825260208201905092915050565b60005b83811015610a53578082015181840152602081019050610a38565b60008484015250505050565b6000601f19601f8301169050919050565b6000610a7b82610a19565b610a858185610a24565b9350610a95818560208601610a35565b610a9e81610a5f565b840191505092915050565b6000610ab58383610a70565b905092915050565b6000602082019050919050565b6000610ad5826109ed565b610adf81856109f8565b935083602082028501610af185610a09565b8060005b85811015610b2d5784840389528151610b0e8582610aa9565b9450610b1983610abd565b925060208a01995050600181019050610af5565b50829750879550505050505092915050565b60006020820190508181036000830152610b598184610aca565b905092915050565b6000819050919050565b6000610b86610b81610b7c846108b1565b610b61565b6108b1565b9050919050565b6000610b9882610b6b565b9050919050565b6000610baa82610b8d565b9050919050565b610bba81610b9f565b82525050565b6000602082019050610bd56000830184610bb1565b92915050565b600080fd5b600080fd5b610bee816108d1565b8114610bf957600080fd5b50565b600081359050610c0b81610be5565b92915050565b600060208284031215610c2757610c26610bdb565b5b6000610c3584828501610bfc565b91505092915050565b6000819050919050565b610c5181610c3e565b8114610c5c57600080fd5b50565b600081359050610c6e81610c48565b92915050565b600060208284031215610c8a57610c89610bdb565b5b6000610c9884828501610c5f565b91505092915050565b600080fd5b600080fd5b600080fd5b60008083601f840112610cc657610cc5610ca1565b5b8235905067ffffffffffffffff811115610ce357610ce2610ca6565b5b602083019150836001820283011115610cff57610cfe610cab565b5b9250929050565b60008060208385031215610d1d57610d1c610bdb565b5b600083013567ffffffffffffffff811115610d3b57610d3a610be0565b5b610d4785828601610cb0565b92509250509250929050565b7f4e487b7100000000000000000000000000000000000000000000000000000000600052602260045260246000fd5b60006002820490506001821680610d9a57607f821691505b602082108103610dad57610dac610d53565b5b50919050565b600082825260208201905092915050565b7f4f6e6c7920746865206368616972706572736f6e2063616e207365742074686560008201527f20746f6b656e20636f6e74726163740000000000000000000000000000000000602082015250565b6000610e20602f83610db3565b9150610e2b82610dc4565b604082019050919050565b60006020820190508181036000830152610e4f81610e13565b9050919050565b7f496e76616c69642073656e646572206164647265737300000000000000000000600082015250565b6000610e8c601683610db3565b9150610e9782610e56565b602082019050919050565b60006020820190508181036000830152610ebb81610e7f565b9050919050565b7f546f6b656e20636f6e7472616374206e6f742073657400000000000000000000600082015250565b6000610ef8601683610db3565b9150610f0382610ec2565b602082019050919050565b60006020820190508181036000830152610f2781610eeb565b9050919050565b600081519050610f3d81610c48565b92915050565b600060208284031215610f5957610f58610bdb565b5b6000610f6784828501610f2e565b91505092915050565b7f496e73756666696369656e7420746f6b656e7320746f20766f74650000000000600082015250565b6000610fa6601b83610db3565b9150610fb182610f70565b602082019050919050565b60006020820190508181036000830152610fd581610f99565b9050919050565b7f42616c616e6365206578636565646573206e6f726d616c2062616c616e63652c60008201527f2074686520746f6b656e7320617265206d6f7265207468616e2074776f000000602082015250565b6000611038603d83610db3565b915061104382610fdc565b604082019050919050565b600060208201905081810360008301526110678161102b565b9050919050565b6000819050919050565b600061109361108e6110898461106e565b610b61565b610c3e565b9050919050565b6110a381611078565b82525050565b60006060820190506110be60008301866108e3565b6110cb60208301856108e3565b6110d8604083018461109a565b949350505050565b60008115159050919050565b6110f5816110e0565b811461110057600080fd5b50565b600081519050611112816110ec565b92915050565b60006020828403121561112e5761112d610bdb565b5b600061113c84828501611103565b91505092915050565b7f546f6b656e207472616e73666572206661696c65640000000000000000000000600082015250565b600061117b601583610db3565b915061118682611145565b602082019050919050565b600060208201905081810360008301526111aa8161116e565b9050919050565b600082905092915050565b7f4e487b7100000000000000000000000000000000000000000000000000000000600052604160045260246000fd5b60008190508160005260206000209050919050565b60006020601f8301049050919050565b600082821b905092915050565b60006008830261124d7fffffffffffffffffffffffffffffffffffffffffffffffffffffffffffffffff82611210565b6112578683611210565b95508019841693508086168417925050509392505050565b600061128a61128561128084610c3e565b610b61565b610c3e565b9050919050565b6000819050919050565b6112a48361126f565b6112b86112b082611291565b84845461121d565b825550505050565b600090565b6112cd6112c0565b6112d881848461129b565b505050565b5b818110156112fc576112f16000826112c5565b6001810190506112de565b5050565b601f82111561134157611312816111eb565b61131b84611200565b8101602085101561132a578190505b61133e61133685611200565b8301826112dd565b50505b505050565b600082821c905092915050565b600061136460001984600802611346565b1980831691505092915050565b600061137d8383611353565b9150826002028217905092915050565b61139783836111b1565b67ffffffffffffffff8111156113b0576113af6111bc565b5b6113ba8254610d82565b6113c5828285611300565b6000601f8311600181146113f457600084156113e2578287013590505b6113ec8582611371565b865550611454565b601f198416611402866111eb565b60005b8281101561142a57848901358255600182019150602085019450602081019050611405565b868310156114475784890135611443601f891682611353565b8355505b6001600288020188555050505b50505050505050565b82818337600083830152505050565b60006114788385610db3565b935061148583858461145d565b61148e83610a5f565b840190509392505050565b600060208201905081810360008301526114b481848661146c565b9050939250505056fea2646970667358221220a881621bd181b1a345eada1c7b72abfec76a5b5f09ff4fe4be50a06d048cc55364736f6c63430008140033",
  "linkReferences": {},
  "deployedLinkReferences": {}
}