{
  "_format": "hh-sol-artifact-1",
  "contractName": "VotingSystem",
  "sourceName": "contracts/VotingSystem.sol",
  "abi": [
    {
      "inputs": [],
      "stateMutability": "nonpayable",
      "type": "constructor"
    },
    {
      "anonymous": false,
      "inputs": [
        {
          "indexed": true,
          "internalType": "address",
          "name": "voter",
          "type": "address"
        },
        {
          "indexed": false,
          "internalType": "string",
          "name": "encryptedVote",
          "type": "string"
        }
      ],
      "name": "Voted",
      "type": "event"
    },
    {
      "inputs": [],
      "name": "chairperson",
      "outputs": [
        {
          "internalType": "address",
          "name": "",
          "type": "address"
        }
      ],
      "stateMutability": "view",
      "type": "function"
    },
    {
      "inputs": [],
      "name": "getEncryptedVotes",
      "outputs": [
        {
          "internalType": "string[]",
          "name": "",
          "type": "string[]"
        }
      ],
      "stateMutability": "view",
      "type": "function"
    },
    {
      "inputs": [],
      "name": "myToken",
      "outputs": [
        {
          "internalType": "contract MyToken",
          "name": "",
          "type": "address"
        }
      ],
      "stateMutability": "view",
      "type": "function"
    },
    {
      "inputs": [
        {
          "internalType": "address",
          "name": "_tokenAddress",
          "type": "address"
        }
      ],
      "name": "setTokenContract",
      "outputs": [],
      "stateMutability": "nonpayable",
      "type": "function"
    },
    {
      "inputs": [
        {
          "internalType": "string",
          "name": "encryptedVote",
          "type": "string"
        }
      ],
      "name": "vote",
      "outputs": [],
      "stateMutability": "nonpayable",
      "type": "function"
    }
  ],
  "bytecode": "0x608060405234801561001057600080fd5b5033600160006101000a81548173ffffffffffffffffffffffffffffffffffffffff021916908373ffffffffffffffffffffffffffffffffffffffff16021790555061115e806100616000396000f3fe608060405234801561001057600080fd5b50600436106100575760003560e01c80632e4176cf1461005c5780639a6efcc01461007a578063b8fcf93714610098578063bbcd5bbe146100b6578063fc36e15b146100d2575b600080fd5b6100646100ee565b604051610071919061068b565b60405180910390f35b610082610114565b60405161008f91906107f8565b60405180910390f35b6100a06101ed565b6040516100ad9190610879565b60405180910390f35b6100d060048036038101906100cb91906108ca565b610211565b005b6100ec60048036038101906100e7919061095c565b6102e4565b005b600160009054906101000a900473ffffffffffffffffffffffffffffffffffffffff1681565b60606002805480602002602001604051908101604052809291908181526020016000905b828210156101e4578382906000526020600020018054610157906109d8565b80601f0160208091040260200160405190810160405280929190818152602001828054610183906109d8565b80156101d05780601f106101a5576101008083540402835291602001916101d0565b820191906000526020600020905b8154815290600101906020018083116101b357829003601f168201915b505050505081526020019060010190610138565b50505050905090565b60008054906101000a900473ffffffffffffffffffffffffffffffffffffffff1681565b600160009054906101000a900473ffffffffffffffffffffffffffffffffffffffff1673ffffffffffffffffffffffffffffffffffffffff163373ffffffffffffffffffffffffffffffffffffffff16146102a1576040517f08c379a000000000000000000000000000000000000000000000000000000000815260040161029890610a8c565b60405180910390fd5b806000806101000a81548173ffffffffffffffffffffffffffffffffffffffff021916908373ffffffffffffffffffffffffffffffffffffffff16021790555050565b600073ffffffffffffffffffffffffffffffffffffffff163373ffffffffffffffffffffffffffffffffffffffff1603610353576040517f08c379a000000000000000000000000000000000000000000000000000000000815260040161034a90610af8565b60405180910390fd5b600073ffffffffffffffffffffffffffffffffffffffff1660008054906101000a900473ffffffffffffffffffffffffffffffffffffffff1673ffffffffffffffffffffffffffffffffffffffff16036103e2576040517f08c379a00000000000000000000000000000000000000000000000000000000081526004016103d990610b64565b60405180910390fd5b6001670de0b6b3a764000060008054906101000a900473ffffffffffffffffffffffffffffffffffffffff1673ffffffffffffffffffffffffffffffffffffffff166370a08231336040518263ffffffff1660e01b8152600401610446919061068b565b602060405180830381865afa158015610463573d6000803e3d6000fd5b505050506040513d601f19601f820116820180604052508101906104879190610bba565b6104919190610c16565b146104d1576040517f08c379a00000000000000000000000000000000000000000000000000000000081526004016104c890610cb9565b60405180910390fd5b60008054906101000a900473ffffffffffffffffffffffffffffffffffffffff1673ffffffffffffffffffffffffffffffffffffffff166323b872dd3330670de0b6b3a76400006040518463ffffffff1660e01b815260040161053693929190610d14565b6020604051808303816000875af1158015610555573d6000803e3d6000fd5b505050506040513d601f19601f820116820180604052508101906105799190610d83565b6105b8576040517f08c379a00000000000000000000000000000000000000000000000000000000081526004016105af90610dfc565b60405180910390fd5b60028282909180600181540180825580915050600190039060005260206000200160009091929091929091929091925091826105f5929190610ff8565b503373ffffffffffffffffffffffffffffffffffffffff167fcb6783276e8a4347387036bbfea000268f0a4b1f8c46ac79980609f2af8d2acd838360405161063e929190611104565b60405180910390a25050565b600073ffffffffffffffffffffffffffffffffffffffff82169050919050565b60006106758261064a565b9050919050565b6106858161066a565b82525050565b60006020820190506106a0600083018461067c565b92915050565b600081519050919050565b600082825260208201905092915050565b6000819050602082019050919050565b600081519050919050565b600082825260208201905092915050565b60005b8381101561070c5780820151818401526020810190506106f1565b60008484015250505050565b6000601f19601f8301169050919050565b6000610734826106d2565b61073e81856106dd565b935061074e8185602086016106ee565b61075781610718565b840191505092915050565b600061076e8383610729565b905092915050565b6000602082019050919050565b600061078e826106a6565b61079881856106b1565b9350836020820285016107aa856106c2565b8060005b858110156107e657848403895281516107c78582610762565b94506107d283610776565b925060208a019950506001810190506107ae565b50829750879550505050505092915050565b600060208201905081810360008301526108128184610783565b905092915050565b6000819050919050565b600061083f61083a6108358461064a565b61081a565b61064a565b9050919050565b600061085182610824565b9050919050565b600061086382610846565b9050919050565b61087381610858565b82525050565b600060208201905061088e600083018461086a565b92915050565b600080fd5b600080fd5b6108a78161066a565b81146108b257600080fd5b50565b6000813590506108c48161089e565b92915050565b6000602082840312156108e0576108df610894565b5b60006108ee848285016108b5565b91505092915050565b600080fd5b600080fd5b600080fd5b60008083601f84011261091c5761091b6108f7565b5b8235905067ffffffffffffffff811115610939576109386108fc565b5b60208301915083600182028301111561095557610954610901565b5b9250929050565b6000806020838503121561097357610972610894565b5b600083013567ffffffffffffffff81111561099157610990610899565b5b61099d85828601610906565b92509250509250929050565b7f4e487b7100000000000000000000000000000000000000000000000000000000600052602260045260246000fd5b600060028204905060018216806109f057607f821691505b602082108103610a0357610a026109a9565b5b50919050565b600082825260208201905092915050565b7f4f6e6c7920746865206368616972706572736f6e2063616e207365742074686560008201527f20746f6b656e20636f6e74726163740000000000000000000000000000000000602082015250565b6000610a76602f83610a09565b9150610a8182610a1a565b604082019050919050565b60006020820190508181036000830152610aa581610a69565b9050919050565b7f496e76616c69642073656e646572206164647265737300000000000000000000600082015250565b6000610ae2601683610a09565b9150610aed82610aac565b602082019050919050565b60006020820190508181036000830152610b1181610ad5565b9050919050565b7f546f6b656e20636f6e7472616374206e6f742073657400000000000000000000600082015250565b6000610b4e601683610a09565b9150610b5982610b18565b602082019050919050565b60006020820190508181036000830152610b7d81610b41565b9050919050565b6000819050919050565b610b9781610b84565b8114610ba257600080fd5b50565b600081519050610bb481610b8e565b92915050565b600060208284031215610bd057610bcf610894565b5b6000610bde84828501610ba5565b91505092915050565b7f4e487b7100000000000000000000000000000000000000000000000000000000600052601260045260246000fd5b6000610c2182610b84565b9150610c2c83610b84565b925082610c3c57610c3b610be7565b5b828204905092915050565b7f496e73756666696369656e7420746f6b656e7320746f20766f7465206f72204260008201527f616c616e6365206578636565646573206e6f726d616c2062616c616e63650000602082015250565b6000610ca3603e83610a09565b9150610cae82610c47565b604082019050919050565b60006020820190508181036000830152610cd281610c96565b9050919050565b6000819050919050565b6000610cfe610cf9610cf484610cd9565b61081a565b610b84565b9050919050565b610d0e81610ce3565b82525050565b6000606082019050610d29600083018661067c565b610d36602083018561067c565b610d436040830184610d05565b949350505050565b60008115159050919050565b610d6081610d4b565b8114610d6b57600080fd5b50565b600081519050610d7d81610d57565b92915050565b600060208284031215610d9957610d98610894565b5b6000610da784828501610d6e565b91505092915050565b7f546f6b656e207472616e73666572206661696c65640000000000000000000000600082015250565b6000610de6601583610a09565b9150610df182610db0565b602082019050919050565b60006020820190508181036000830152610e1581610dd9565b9050919050565b600082905092915050565b7f4e487b7100000000000000000000000000000000000000000000000000000000600052604160045260246000fd5b60008190508160005260206000209050919050565b60006020601f8301049050919050565b600082821b905092915050565b600060088302610eb87fffffffffffffffffffffffffffffffffffffffffffffffffffffffffffffffff82610e7b565b610ec28683610e7b565b95508019841693508086168417925050509392505050565b6000610ef5610ef0610eeb84610b84565b61081a565b610b84565b9050919050565b6000819050919050565b610f0f83610eda565b610f23610f1b82610efc565b848454610e88565b825550505050565b600090565b610f38610f2b565b610f43818484610f06565b505050565b5b81811015610f6757610f5c600082610f30565b600181019050610f49565b5050565b601f821115610fac57610f7d81610e56565b610f8684610e6b565b81016020851015610f95578190505b610fa9610fa185610e6b565b830182610f48565b50505b505050565b600082821c905092915050565b6000610fcf60001984600802610fb1565b1980831691505092915050565b6000610fe88383610fbe565b9150826002028217905092915050565b6110028383610e1c565b67ffffffffffffffff81111561101b5761101a610e27565b5b61102582546109d8565b611030828285610f6b565b6000601f83116001811461105f576000841561104d578287013590505b6110578582610fdc565b8655506110bf565b601f19841661106d86610e56565b60005b8281101561109557848901358255600182019150602085019450602081019050611070565b868310156110b257848901356110ae601f891682610fbe565b8355505b6001600288020188555050505b50505050505050565b82818337600083830152505050565b60006110e38385610a09565b93506110f08385846110c8565b6110f983610718565b840190509392505050565b6000602082019050818103600083015261111f8184866110d7565b9050939250505056fea2646970667358221220043eef98f5daa8837fcc2ba30d70af432f52a8dd085c51050e826c209b90ec9964736f6c63430008140033",
  "linkReferences": {},
  "deployedLinkReferences": {}
}