{
  "_format": "hh-sol-artifact-1",
  "contractName": "VotingSystem",
  "sourceName": "contracts/VotingSystem2.sol",
  "abi": [
    {
      "inputs": [],
      "stateMutability": "nonpayable",
      "type": "constructor"
    },
    {
      "anonymous": false,
      "inputs": [
        {
          "indexed": true,
          "internalType": "address",
          "name": "voter",
          "type": "address"
        },
        {
          "indexed": false,
          "internalType": "string",
          "name": "encryptedVote",
          "type": "string"
        }
      ],
      "name": "Voted",
      "type": "event"
    },
    {
      "inputs": [
        {
          "internalType": "uint256",
          "name": "",
          "type": "uint256"
        }
      ],
      "name": "candidateVotes",
      "outputs": [
        {
          "internalType": "uint256",
          "name": "",
          "type": "uint256"
        }
      ],
      "stateMutability": "view",
      "type": "function"
    },
    {
      "inputs": [],
      "name": "chairperson",
      "outputs": [
        {
          "internalType": "address",
          "name": "",
          "type": "address"
        }
      ],
      "stateMutability": "view",
      "type": "function"
    },
    {
      "inputs": [
        {
          "internalType": "address",
          "name": "",
          "type": "address"
        }
      ],
      "name": "encryptedVotes",
      "outputs": [
        {
          "internalType": "string",
          "name": "",
          "type": "string"
        }
      ],
      "stateMutability": "view",
      "type": "function"
    },
    {
      "inputs": [
        {
          "internalType": "address",
          "name": "voter",
          "type": "address"
        }
      ],
      "name": "getEncryptedVote",
      "outputs": [
        {
          "internalType": "string",
          "name": "",
          "type": "string"
        }
      ],
      "stateMutability": "view",
      "type": "function"
    },
    {
      "inputs": [],
      "name": "getVotingResults",
      "outputs": [
        {
          "internalType": "uint256[]",
          "name": "",
          "type": "uint256[]"
        }
      ],
      "stateMutability": "view",
      "type": "function"
    },
    {
      "inputs": [],
      "name": "myToken",
      "outputs": [
        {
          "internalType": "contract MyToken",
          "name": "",
          "type": "address"
        }
      ],
      "stateMutability": "view",
      "type": "function"
    },
    {
      "inputs": [
        {
          "internalType": "address",
          "name": "_tokenAddress",
          "type": "address"
        }
      ],
      "name": "setTokenContract",
      "outputs": [],
      "stateMutability": "nonpayable",
      "type": "function"
    },
    {
      "inputs": [
        {
          "internalType": "string",
          "name": "encryptedVote",
          "type": "string"
        }
      ],
      "name": "vote",
      "outputs": [],
      "stateMutability": "nonpayable",
      "type": "function"
    }
  ],
  "bytecode": "0x608060405234801561001057600080fd5b5033600160006101000a81548173ffffffffffffffffffffffffffffffffffffffff021916908373ffffffffffffffffffffffffffffffffffffffff16021790555061131e806100616000396000f3fe608060405234801561001057600080fd5b50600436106100885760003560e01c8063d67189081161005b578063d671890814610115578063da650ec614610145578063f49e323e14610163578063fc36e15b1461019357610088565b80632e4176cf1461008d578063b8fcf937146100ab578063bbcd5bbe146100c9578063bfa5d3b0146100e5575b600080fd5b6100956101af565b6040516100a29190610858565b60405180910390f35b6100b36101d5565b6040516100c091906108d2565b60405180910390f35b6100e360048036038101906100de9190610923565b6101f9565b005b6100ff60048036038101906100fa9190610923565b6102cc565b60405161010c91906109e0565b60405180910390f35b61012f600480360381019061012a9190610923565b61039d565b60405161013c91906109e0565b60405180910390f35b61014d61043d565b60405161015a9190610aca565b60405180910390f35b61017d60048036038101906101789190610b18565b610495565b60405161018a9190610b54565b60405180910390f35b6101ad60048036038101906101a89190610bd4565b6104b9565b005b600160009054906101000a900473ffffffffffffffffffffffffffffffffffffffff1681565b60008054906101000a900473ffffffffffffffffffffffffffffffffffffffff1681565b600160009054906101000a900473ffffffffffffffffffffffffffffffffffffffff1673ffffffffffffffffffffffffffffffffffffffff163373ffffffffffffffffffffffffffffffffffffffff1614610289576040517f08c379a000000000000000000000000000000000000000000000000000000000815260040161028090610c93565b60405180910390fd5b806000806101000a81548173ffffffffffffffffffffffffffffffffffffffff021916908373ffffffffffffffffffffffffffffffffffffffff16021790555050565b6060600260008373ffffffffffffffffffffffffffffffffffffffff1673ffffffffffffffffffffffffffffffffffffffff168152602001908152602001600020805461031890610ce2565b80601f016020809104026020016040519081016040528092919081815260200182805461034490610ce2565b80156103915780601f1061036657610100808354040283529160200191610391565b820191906000526020600020905b81548152906001019060200180831161037457829003601f168201915b50505050509050919050565b600260205280600052604060002060009150905080546103bc90610ce2565b80601f01602080910402602001604051908101604052809291908181526020018280546103e890610ce2565b80156104355780601f1061040a57610100808354040283529160200191610435565b820191906000526020600020905b81548152906001019060200180831161041857829003601f168201915b505050505081565b6060600380548060200260200160405190810160405280929190818152602001828054801561048b57602002820191906000526020600020905b815481526020019060010190808311610477575b5050505050905090565b600381815481106104a557600080fd5b906000526020600020016000915090505481565b600073ffffffffffffffffffffffffffffffffffffffff163373ffffffffffffffffffffffffffffffffffffffff1603610528576040517f08c379a000000000000000000000000000000000000000000000000000000000815260040161051f90610d5f565b60405180910390fd5b600073ffffffffffffffffffffffffffffffffffffffff1660008054906101000a900473ffffffffffffffffffffffffffffffffffffffff1673ffffffffffffffffffffffffffffffffffffffff16036105b7576040517f08c379a00000000000000000000000000000000000000000000000000000000081526004016105ae90610dcb565b60405180910390fd5b600160008054906101000a900473ffffffffffffffffffffffffffffffffffffffff1673ffffffffffffffffffffffffffffffffffffffff166370a08231336040518263ffffffff1660e01b81526004016106129190610858565b602060405180830381865afa15801561062f573d6000803e3d6000fd5b505050506040513d601f19601f820116820180604052508101906106539190610e00565b1015610694576040517f08c379a000000000000000000000000000000000000000000000000000000000815260040161068b90610e79565b60405180910390fd5b60008054906101000a900473ffffffffffffffffffffffffffffffffffffffff1673ffffffffffffffffffffffffffffffffffffffff166323b872dd333060016040518463ffffffff1660e01b81526004016106f293929190610ed4565b6020604051808303816000875af1158015610711573d6000803e3d6000fd5b505050506040513d601f19601f820116820180604052508101906107359190610f43565b610774576040517f08c379a000000000000000000000000000000000000000000000000000000000815260040161076b90610fbc565b60405180910390fd5b8181600260003373ffffffffffffffffffffffffffffffffffffffff1673ffffffffffffffffffffffffffffffffffffffff16815260200190815260200160002091826107c29291906111b8565b503373ffffffffffffffffffffffffffffffffffffffff167fcb6783276e8a4347387036bbfea000268f0a4b1f8c46ac79980609f2af8d2acd838360405161080b9291906112c4565b60405180910390a25050565b600073ffffffffffffffffffffffffffffffffffffffff82169050919050565b600061084282610817565b9050919050565b61085281610837565b82525050565b600060208201905061086d6000830184610849565b92915050565b6000819050919050565b600061089861089361088e84610817565b610873565b610817565b9050919050565b60006108aa8261087d565b9050919050565b60006108bc8261089f565b9050919050565b6108cc816108b1565b82525050565b60006020820190506108e760008301846108c3565b92915050565b600080fd5b600080fd5b61090081610837565b811461090b57600080fd5b50565b60008135905061091d816108f7565b92915050565b600060208284031215610939576109386108ed565b5b60006109478482850161090e565b91505092915050565b600081519050919050565b600082825260208201905092915050565b60005b8381101561098a57808201518184015260208101905061096f565b60008484015250505050565b6000601f19601f8301169050919050565b60006109b282610950565b6109bc818561095b565b93506109cc81856020860161096c565b6109d581610996565b840191505092915050565b600060208201905081810360008301526109fa81846109a7565b905092915050565b600081519050919050565b600082825260208201905092915050565b6000819050602082019050919050565b6000819050919050565b610a4181610a2e565b82525050565b6000610a538383610a38565b60208301905092915050565b6000602082019050919050565b6000610a7782610a02565b610a818185610a0d565b9350610a8c83610a1e565b8060005b83811015610abd578151610aa48882610a47565b9750610aaf83610a5f565b925050600181019050610a90565b5085935050505092915050565b60006020820190508181036000830152610ae48184610a6c565b905092915050565b610af581610a2e565b8114610b0057600080fd5b50565b600081359050610b1281610aec565b92915050565b600060208284031215610b2e57610b2d6108ed565b5b6000610b3c84828501610b03565b91505092915050565b610b4e81610a2e565b82525050565b6000602082019050610b696000830184610b45565b92915050565b600080fd5b600080fd5b600080fd5b60008083601f840112610b9457610b93610b6f565b5b8235905067ffffffffffffffff811115610bb157610bb0610b74565b5b602083019150836001820283011115610bcd57610bcc610b79565b5b9250929050565b60008060208385031215610beb57610bea6108ed565b5b600083013567ffffffffffffffff811115610c0957610c086108f2565b5b610c1585828601610b7e565b92509250509250929050565b7f4f6e6c7920746865206368616972706572736f6e2063616e207365742074686560008201527f20746f6b656e20636f6e74726163740000000000000000000000000000000000602082015250565b6000610c7d602f8361095b565b9150610c8882610c21565b604082019050919050565b60006020820190508181036000830152610cac81610c70565b9050919050565b7f4e487b7100000000000000000000000000000000000000000000000000000000600052602260045260246000fd5b60006002820490506001821680610cfa57607f821691505b602082108103610d0d57610d0c610cb3565b5b50919050565b7f496e76616c69642073656e646572206164647265737300000000000000000000600082015250565b6000610d4960168361095b565b9150610d5482610d13565b602082019050919050565b60006020820190508181036000830152610d7881610d3c565b9050919050565b7f546f6b656e20636f6e7472616374206e6f742073657400000000000000000000600082015250565b6000610db560168361095b565b9150610dc082610d7f565b602082019050919050565b60006020820190508181036000830152610de481610da8565b9050919050565b600081519050610dfa81610aec565b92915050565b600060208284031215610e1657610e156108ed565b5b6000610e2484828501610deb565b91505092915050565b7f496e73756666696369656e7420746f6b656e7320746f20766f74650000000000600082015250565b6000610e63601b8361095b565b9150610e6e82610e2d565b602082019050919050565b60006020820190508181036000830152610e9281610e56565b9050919050565b6000819050919050565b6000610ebe610eb9610eb484610e99565b610873565b610a2e565b9050919050565b610ece81610ea3565b82525050565b6000606082019050610ee96000830186610849565b610ef66020830185610849565b610f036040830184610ec5565b949350505050565b60008115159050919050565b610f2081610f0b565b8114610f2b57600080fd5b50565b600081519050610f3d81610f17565b92915050565b600060208284031215610f5957610f586108ed565b5b6000610f6784828501610f2e565b91505092915050565b7f546f6b656e207472616e73666572206661696c65640000000000000000000000600082015250565b6000610fa660158361095b565b9150610fb182610f70565b602082019050919050565b60006020820190508181036000830152610fd581610f99565b9050919050565b600082905092915050565b7f4e487b7100000000000000000000000000000000000000000000000000000000600052604160045260246000fd5b60008190508160005260206000209050919050565b60006020601f8301049050919050565b600082821b905092915050565b6000600883026110787fffffffffffffffffffffffffffffffffffffffffffffffffffffffffffffffff8261103b565b611082868361103b565b95508019841693508086168417925050509392505050565b60006110b56110b06110ab84610a2e565b610873565b610a2e565b9050919050565b6000819050919050565b6110cf8361109a565b6110e36110db826110bc565b848454611048565b825550505050565b600090565b6110f86110eb565b6111038184846110c6565b505050565b5b818110156111275761111c6000826110f0565b600181019050611109565b5050565b601f82111561116c5761113d81611016565b6111468461102b565b81016020851015611155578190505b6111696111618561102b565b830182611108565b50505b505050565b600082821c905092915050565b600061118f60001984600802611171565b1980831691505092915050565b60006111a8838361117e565b9150826002028217905092915050565b6111c28383610fdc565b67ffffffffffffffff8111156111db576111da610fe7565b5b6111e58254610ce2565b6111f082828561112b565b6000601f83116001811461121f576000841561120d578287013590505b611217858261119c565b86555061127f565b601f19841661122d86611016565b60005b8281101561125557848901358255600182019150602085019450602081019050611230565b86831015611272578489013561126e601f89168261117e565b8355505b6001600288020188555050505b50505050505050565b82818337600083830152505050565b60006112a3838561095b565b93506112b0838584611288565b6112b983610996565b840190509392505050565b600060208201905081810360008301526112df818486611297565b9050939250505056fea2646970667358221220476b99b14ff8210390a8d02dbd41a57092807d24b3b52ffc39cbf5235a82424164736f6c63430008140033",
  "linkReferences": {},
  "deployedLinkReferences": {}
}