{
	"contracts/VotingSystem2.sol": {
		"VotingSystem": {
			"abi": [
				{
					"inputs": [],
					"stateMutability": "nonpayable",
					"type": "constructor"
				},
				{
					"anonymous": false,
					"inputs": [
						{
							"indexed": true,
							"internalType": "address",
							"name": "voter",
							"type": "address"
						},
						{
							"indexed": false,
							"internalType": "string",
							"name": "encryptedVote",
							"type": "string"
						}
					],
					"name": "Voted",
					"type": "event"
				},
				{
					"inputs": [
						{
							"internalType": "uint256",
							"name": "",
							"type": "uint256"
						}
					],
					"name": "candidateVotes",
					"outputs": [
						{
							"internalType": "uint256",
							"name": "",
							"type": "uint256"
						}
					],
					"stateMutability": "view",
					"type": "function"
				},
				{
					"inputs": [],
					"name": "chairperson",
					"outputs": [
						{
							"internalType": "address",
							"name": "",
							"type": "address"
						}
					],
					"stateMutability": "view",
					"type": "function"
				},
				{
					"inputs": [
						{
							"internalType": "address",
							"name": "",
							"type": "address"
						}
					],
					"name": "encryptedVotes",
					"outputs": [
						{
							"internalType": "string",
							"name": "",
							"type": "string"
						}
					],
					"stateMutability": "view",
					"type": "function"
				},
				{
					"inputs": [
						{
							"internalType": "address",
							"name": "voter",
							"type": "address"
						}
					],
					"name": "getEncryptedVote",
					"outputs": [
						{
							"internalType": "string",
							"name": "",
							"type": "string"
						}
					],
					"stateMutability": "view",
					"type": "function"
				},
				{
					"inputs": [],
					"name": "getVotingResults",
					"outputs": [
						{
							"internalType": "uint256[]",
							"name": "",
							"type": "uint256[]"
						}
					],
					"stateMutability": "view",
					"type": "function"
				},
				{
					"inputs": [],
					"name": "myToken",
					"outputs": [
						{
							"internalType": "contract MyToken",
							"name": "",
							"type": "address"
						}
					],
					"stateMutability": "view",
					"type": "function"
				},
				{
					"inputs": [
						{
							"internalType": "address",
							"name": "_tokenAddress",
							"type": "address"
						}
					],
					"name": "setTokenContract",
					"outputs": [],
					"stateMutability": "nonpayable",
					"type": "function"
				},
				{
					"inputs": [
						{
							"internalType": "string",
							"name": "encryptedVote",
							"type": "string"
						}
					],
					"name": "vote",
					"outputs": [],
					"stateMutability": "nonpayable",
					"type": "function"
				}
			],
			"devdoc": {
				"kind": "dev",
				"methods": {},
				"version": 1
			},
			"evm": {
				"assembly": "    /* \"contracts/VotingSystem2.sol\":82:1580  contract VotingSystem {... */\n  mstore(0x40, 0x80)\n    /* \"contracts/VotingSystem2.sol\":486:541  constructor() {... */\n  callvalue\n  dup1\n  iszero\n  tag_1\n  jumpi\n  0x00\n  dup1\n  revert\ntag_1:\n  pop\n    /* \"contracts/VotingSystem2.sol\":524:534  msg.sender */\n  caller\n    /* \"contracts/VotingSystem2.sol\":510:521  chairperson */\n  0x01\n  0x00\n    /* \"contracts/VotingSystem2.sol\":510:534  chairperson = msg.sender */\n  0x0100\n  exp\n  dup2\n  sload\n  dup2\n  0xffffffffffffffffffffffffffffffffffffffff\n  mul\n  not\n  and\n  swap1\n  dup4\n  0xffffffffffffffffffffffffffffffffffffffff\n  and\n  mul\n  or\n  swap1\n  sstore\n  pop\n    /* \"contracts/VotingSystem2.sol\":82:1580  contract VotingSystem {... */\n  dataSize(sub_0)\n  dup1\n  dataOffset(sub_0)\n  0x00\n  codecopy\n  0x00\n  return\nstop\n\nsub_0: assembly {\n        /* \"contracts/VotingSystem2.sol\":82:1580  contract VotingSystem {... */\n      mstore(0x40, 0x80)\n      callvalue\n      dup1\n      iszero\n      tag_1\n      jumpi\n      0x00\n      dup1\n      revert\n    tag_1:\n      pop\n      jumpi(tag_2, lt(calldatasize, 0x04))\n      shr(0xe0, calldataload(0x00))\n      dup1\n      0xd6718908\n      gt\n      tag_11\n      jumpi\n      dup1\n      0xd6718908\n      eq\n      tag_7\n      jumpi\n      dup1\n      0xda650ec6\n      eq\n      tag_8\n      jumpi\n      dup1\n      0xf49e323e\n      eq\n      tag_9\n      jumpi\n      dup1\n      0xfc36e15b\n      eq\n      tag_10\n      jumpi\n      jump(tag_2)\n    tag_11:\n      dup1\n      0x2e4176cf\n      eq\n      tag_3\n      jumpi\n      dup1\n      0xb8fcf937\n      eq\n      tag_4\n      jumpi\n      dup1\n      0xbbcd5bbe\n      eq\n      tag_5\n      jumpi\n      dup1\n      0xbfa5d3b0\n      eq\n      tag_6\n      jumpi\n    tag_2:\n      0x00\n      dup1\n      revert\n        /* \"contracts/VotingSystem2.sol\":181:207  address public chairperson */\n    tag_3:\n      tag_12\n      tag_13\n      jump\t// in\n    tag_12:\n      mload(0x40)\n      tag_14\n      swap2\n      swap1\n      tag_15\n      jump\t// in\n    tag_14:\n      mload(0x40)\n      dup1\n      swap2\n      sub\n      swap1\n      return\n        /* \"contracts/VotingSystem2.sol\":110:132  MyToken public myToken */\n    tag_4:\n      tag_16\n      tag_17\n      jump\t// in\n    tag_16:\n      mload(0x40)\n      tag_18\n      swap2\n      swap1\n      tag_19\n      jump\t// in\n    tag_18:\n      mload(0x40)\n      dup1\n      swap2\n      sub\n      swap1\n      return\n        /* \"contracts/VotingSystem2.sol\":547:749  function setTokenContract(address _tokenAddress) external {... */\n    tag_5:\n      tag_20\n      0x04\n      dup1\n      calldatasize\n      sub\n      dup2\n      add\n      swap1\n      tag_21\n      swap2\n      swap1\n      tag_22\n      jump\t// in\n    tag_21:\n      tag_23\n      jump\t// in\n    tag_20:\n      stop\n        /* \"contracts/VotingSystem2.sol\":1454:1578  function getEncryptedVote(address voter) external view returns (string memory) {... */\n    tag_6:\n      tag_24\n      0x04\n      dup1\n      calldatasize\n      sub\n      dup2\n      add\n      swap1\n      tag_25\n      swap2\n      swap1\n      tag_22\n      jump\t// in\n    tag_25:\n      tag_26\n      jump\t// in\n    tag_24:\n      mload(0x40)\n      tag_27\n      swap2\n      swap1\n      tag_28\n      jump\t// in\n    tag_27:\n      mload(0x40)\n      dup1\n      swap2\n      sub\n      swap1\n      return\n        /* \"contracts/VotingSystem2.sol\":239:287  mapping(address => string) public encryptedVotes */\n    tag_7:\n      tag_29\n      0x04\n      dup1\n      calldatasize\n      sub\n      dup2\n      add\n      swap1\n      tag_30\n      swap2\n      swap1\n      tag_22\n      jump\t// in\n    tag_30:\n      tag_31\n      jump\t// in\n    tag_29:\n      mload(0x40)\n      tag_32\n      swap2\n      swap1\n      tag_28\n      jump\t// in\n    tag_32:\n      mload(0x40)\n      dup1\n      swap2\n      sub\n      swap1\n      return\n        /* \"contracts/VotingSystem2.sol\":1341:1448  function getVotingResults() external view returns (uint256[] memory) {... */\n    tag_8:\n      tag_33\n      tag_34\n      jump\t// in\n    tag_33:\n      mload(0x40)\n      tag_35\n      swap2\n      swap1\n      tag_36\n      jump\t// in\n    tag_35:\n      mload(0x40)\n      dup1\n      swap2\n      sub\n      swap1\n      return\n        /* \"contracts/VotingSystem2.sol\":341:372  uint256[] public candidateVotes */\n    tag_9:\n      tag_37\n      0x04\n      dup1\n      calldatasize\n      sub\n      dup2\n      add\n      swap1\n      tag_38\n      swap2\n      swap1\n      tag_39\n      jump\t// in\n    tag_38:\n      tag_40\n      jump\t// in\n    tag_37:\n      mload(0x40)\n      tag_41\n      swap2\n      swap1\n      tag_42\n      jump\t// in\n    tag_41:\n      mload(0x40)\n      dup1\n      swap2\n      sub\n      swap1\n      return\n        /* \"contracts/VotingSystem2.sol\":755:1335  function vote(string calldata encryptedVote) external {... */\n    tag_10:\n      tag_43\n      0x04\n      dup1\n      calldatasize\n      sub\n      dup2\n      add\n      swap1\n      tag_44\n      swap2\n      swap1\n      tag_45\n      jump\t// in\n    tag_44:\n      tag_46\n      jump\t// in\n    tag_43:\n      stop\n        /* \"contracts/VotingSystem2.sol\":181:207  address public chairperson */\n    tag_13:\n      0x01\n      0x00\n      swap1\n      sload\n      swap1\n      0x0100\n      exp\n      swap1\n      div\n      0xffffffffffffffffffffffffffffffffffffffff\n      and\n      dup2\n      jump\t// out\n        /* \"contracts/VotingSystem2.sol\":110:132  MyToken public myToken */\n    tag_17:\n      0x00\n      dup1\n      sload\n      swap1\n      0x0100\n      exp\n      swap1\n      div\n      0xffffffffffffffffffffffffffffffffffffffff\n      and\n      dup2\n      jump\t// out\n        /* \"contracts/VotingSystem2.sol\":547:749  function setTokenContract(address _tokenAddress) external {... */\n    tag_23:\n        /* \"contracts/VotingSystem2.sol\":637:648  chairperson */\n      0x01\n      0x00\n      swap1\n      sload\n      swap1\n      0x0100\n      exp\n      swap1\n      div\n      0xffffffffffffffffffffffffffffffffffffffff\n      and\n        /* \"contracts/VotingSystem2.sol\":623:648  msg.sender == chairperson */\n      0xffffffffffffffffffffffffffffffffffffffff\n      and\n        /* \"contracts/VotingSystem2.sol\":623:633  msg.sender */\n      caller\n        /* \"contracts/VotingSystem2.sol\":623:648  msg.sender == chairperson */\n      0xffffffffffffffffffffffffffffffffffffffff\n      and\n      eq\n        /* \"contracts/VotingSystem2.sol\":615:700  require(msg.sender == chairperson, \"Only the chairperson can set the token contract\") */\n      tag_48\n      jumpi\n      mload(0x40)\n      0x08c379a000000000000000000000000000000000000000000000000000000000\n      dup2\n      mstore\n      0x04\n      add\n      tag_49\n      swap1\n      tag_50\n      jump\t// in\n    tag_49:\n      mload(0x40)\n      dup1\n      swap2\n      sub\n      swap1\n      revert\n    tag_48:\n        /* \"contracts/VotingSystem2.sol\":728:741  _tokenAddress */\n      dup1\n        /* \"contracts/VotingSystem2.sol\":710:717  myToken */\n      0x00\n      dup1\n        /* \"contracts/VotingSystem2.sol\":710:742  myToken = MyToken(_tokenAddress) */\n      0x0100\n      exp\n      dup2\n      sload\n      dup2\n      0xffffffffffffffffffffffffffffffffffffffff\n      mul\n      not\n      and\n      swap1\n      dup4\n      0xffffffffffffffffffffffffffffffffffffffff\n      and\n      mul\n      or\n      swap1\n      sstore\n      pop\n        /* \"contracts/VotingSystem2.sol\":547:749  function setTokenContract(address _tokenAddress) external {... */\n      pop\n      jump\t// out\n        /* \"contracts/VotingSystem2.sol\":1454:1578  function getEncryptedVote(address voter) external view returns (string memory) {... */\n    tag_26:\n        /* \"contracts/VotingSystem2.sol\":1518:1531  string memory */\n      0x60\n        /* \"contracts/VotingSystem2.sol\":1550:1564  encryptedVotes */\n      0x02\n        /* \"contracts/VotingSystem2.sol\":1550:1571  encryptedVotes[voter] */\n      0x00\n        /* \"contracts/VotingSystem2.sol\":1565:1570  voter */\n      dup4\n        /* \"contracts/VotingSystem2.sol\":1550:1571  encryptedVotes[voter] */\n      0xffffffffffffffffffffffffffffffffffffffff\n      and\n      0xffffffffffffffffffffffffffffffffffffffff\n      and\n      dup2\n      mstore\n      0x20\n      add\n      swap1\n      dup2\n      mstore\n      0x20\n      add\n      0x00\n      keccak256\n        /* \"contracts/VotingSystem2.sol\":1543:1571  return encryptedVotes[voter] */\n      dup1\n      sload\n      tag_52\n      swap1\n      tag_53\n      jump\t// in\n    tag_52:\n      dup1\n      0x1f\n      add\n      0x20\n      dup1\n      swap2\n      div\n      mul\n      0x20\n      add\n      mload(0x40)\n      swap1\n      dup2\n      add\n      0x40\n      mstore\n      dup1\n      swap3\n      swap2\n      swap1\n      dup2\n      dup2\n      mstore\n      0x20\n      add\n      dup3\n      dup1\n      sload\n      tag_54\n      swap1\n      tag_53\n      jump\t// in\n    tag_54:\n      dup1\n      iszero\n      tag_55\n      jumpi\n      dup1\n      0x1f\n      lt\n      tag_56\n      jumpi\n      0x0100\n      dup1\n      dup4\n      sload\n      div\n      mul\n      dup4\n      mstore\n      swap2\n      0x20\n      add\n      swap2\n      jump(tag_55)\n    tag_56:\n      dup3\n      add\n      swap2\n      swap1\n      0x00\n      mstore\n      keccak256(0x00, 0x20)\n      swap1\n    tag_57:\n      dup2\n      sload\n      dup2\n      mstore\n      swap1\n      0x01\n      add\n      swap1\n      0x20\n      add\n      dup1\n      dup4\n      gt\n      tag_57\n      jumpi\n      dup3\n      swap1\n      sub\n      0x1f\n      and\n      dup3\n      add\n      swap2\n    tag_55:\n      pop\n      pop\n      pop\n      pop\n      pop\n      swap1\n      pop\n        /* \"contracts/VotingSystem2.sol\":1454:1578  function getEncryptedVote(address voter) external view returns (string memory) {... */\n      swap2\n      swap1\n      pop\n      jump\t// out\n        /* \"contracts/VotingSystem2.sol\":239:287  mapping(address => string) public encryptedVotes */\n    tag_31:\n      mstore(0x20, 0x02)\n      dup1\n      0x00\n      mstore\n      keccak256(0x00, 0x40)\n      0x00\n      swap2\n      pop\n      swap1\n      pop\n      dup1\n      sload\n      tag_58\n      swap1\n      tag_53\n      jump\t// in\n    tag_58:\n      dup1\n      0x1f\n      add\n      0x20\n      dup1\n      swap2\n      div\n      mul\n      0x20\n      add\n      mload(0x40)\n      swap1\n      dup2\n      add\n      0x40\n      mstore\n      dup1\n      swap3\n      swap2\n      swap1\n      dup2\n      dup2\n      mstore\n      0x20\n      add\n      dup3\n      dup1\n      sload\n      tag_59\n      swap1\n      tag_53\n      jump\t// in\n    tag_59:\n      dup1\n      iszero\n      tag_60\n      jumpi\n      dup1\n      0x1f\n      lt\n      tag_61\n      jumpi\n      0x0100\n      dup1\n      dup4\n      sload\n      div\n      mul\n      dup4\n      mstore\n      swap2\n      0x20\n      add\n      swap2\n      jump(tag_60)\n    tag_61:\n      dup3\n      add\n      swap2\n      swap1\n      0x00\n      mstore\n      keccak256(0x00, 0x20)\n      swap1\n    tag_62:\n      dup2\n      sload\n      dup2\n      mstore\n      swap1\n      0x01\n      add\n      swap1\n      0x20\n      add\n      dup1\n      dup4\n      gt\n      tag_62\n      jumpi\n      dup3\n      swap1\n      sub\n      0x1f\n      and\n      dup3\n      add\n      swap2\n    tag_60:\n      pop\n      pop\n      pop\n      pop\n      pop\n      dup2\n      jump\t// out\n        /* \"contracts/VotingSystem2.sol\":1341:1448  function getVotingResults() external view returns (uint256[] memory) {... */\n    tag_34:\n        /* \"contracts/VotingSystem2.sol\":1392:1408  uint256[] memory */\n      0x60\n        /* \"contracts/VotingSystem2.sol\":1427:1441  candidateVotes */\n      0x03\n        /* \"contracts/VotingSystem2.sol\":1420:1441  return candidateVotes */\n      dup1\n      sload\n      dup1\n      0x20\n      mul\n      0x20\n      add\n      mload(0x40)\n      swap1\n      dup2\n      add\n      0x40\n      mstore\n      dup1\n      swap3\n      swap2\n      swap1\n      dup2\n      dup2\n      mstore\n      0x20\n      add\n      dup3\n      dup1\n      sload\n      dup1\n      iszero\n      tag_64\n      jumpi\n      0x20\n      mul\n      dup3\n      add\n      swap2\n      swap1\n      0x00\n      mstore\n      keccak256(0x00, 0x20)\n      swap1\n    tag_65:\n      dup2\n      sload\n      dup2\n      mstore\n      0x20\n      add\n      swap1\n      0x01\n      add\n      swap1\n      dup1\n      dup4\n      gt\n      tag_65\n      jumpi\n    tag_64:\n      pop\n      pop\n      pop\n      pop\n      pop\n      swap1\n      pop\n        /* \"contracts/VotingSystem2.sol\":1341:1448  function getVotingResults() external view returns (uint256[] memory) {... */\n      swap1\n      jump\t// out\n        /* \"contracts/VotingSystem2.sol\":341:372  uint256[] public candidateVotes */\n    tag_40:\n      0x03\n      dup2\n      dup2\n      sload\n      dup2\n      lt\n      tag_66\n      jumpi\n      0x00\n      dup1\n      revert\n    tag_66:\n      swap1\n      0x00\n      mstore\n      keccak256(0x00, 0x20)\n      add\n      0x00\n      swap2\n      pop\n      swap1\n      pop\n      sload\n      dup2\n      jump\t// out\n        /* \"contracts/VotingSystem2.sol\":755:1335  function vote(string calldata encryptedVote) external {... */\n    tag_46:\n        /* \"contracts/VotingSystem2.sol\":849:850  0 */\n      0x00\n        /* \"contracts/VotingSystem2.sol\":827:851  msg.sender != address(0) */\n      0xffffffffffffffffffffffffffffffffffffffff\n      and\n        /* \"contracts/VotingSystem2.sol\":827:837  msg.sender */\n      caller\n        /* \"contracts/VotingSystem2.sol\":827:851  msg.sender != address(0) */\n      0xffffffffffffffffffffffffffffffffffffffff\n      and\n      sub\n        /* \"contracts/VotingSystem2.sol\":819:878  require(msg.sender != address(0), \"Invalid sender address\") */\n      tag_69\n      jumpi\n      mload(0x40)\n      0x08c379a000000000000000000000000000000000000000000000000000000000\n      dup2\n      mstore\n      0x04\n      add\n      tag_70\n      swap1\n      tag_71\n      jump\t// in\n    tag_70:\n      mload(0x40)\n      dup1\n      swap2\n      sub\n      swap1\n      revert\n    tag_69:\n        /* \"contracts/VotingSystem2.sol\":923:924  0 */\n      0x00\n        /* \"contracts/VotingSystem2.sol\":896:926  myToken != MyToken(address(0)) */\n      0xffffffffffffffffffffffffffffffffffffffff\n      and\n        /* \"contracts/VotingSystem2.sol\":896:903  myToken */\n      0x00\n      dup1\n      sload\n      swap1\n      0x0100\n      exp\n      swap1\n      div\n      0xffffffffffffffffffffffffffffffffffffffff\n      and\n        /* \"contracts/VotingSystem2.sol\":896:926  myToken != MyToken(address(0)) */\n      0xffffffffffffffffffffffffffffffffffffffff\n      and\n      sub\n        /* \"contracts/VotingSystem2.sol\":888:953  require(myToken != MyToken(address(0)), \"Token contract not set\") */\n      tag_72\n      jumpi\n      mload(0x40)\n      0x08c379a000000000000000000000000000000000000000000000000000000000\n      dup2\n      mstore\n      0x04\n      add\n      tag_73\n      swap1\n      tag_74\n      jump\t// in\n    tag_73:\n      mload(0x40)\n      dup1\n      swap2\n      sub\n      swap1\n      revert\n    tag_72:\n        /* \"contracts/VotingSystem2.sol\":1004:1005  1 */\n      0x01\n        /* \"contracts/VotingSystem2.sol\":971:978  myToken */\n      0x00\n      dup1\n      sload\n      swap1\n      0x0100\n      exp\n      swap1\n      div\n      0xffffffffffffffffffffffffffffffffffffffff\n      and\n        /* \"contracts/VotingSystem2.sol\":971:988  myToken.balanceOf */\n      0xffffffffffffffffffffffffffffffffffffffff\n      and\n      0x70a08231\n        /* \"contracts/VotingSystem2.sol\":989:999  msg.sender */\n      caller\n        /* \"contracts/VotingSystem2.sol\":971:1000  myToken.balanceOf(msg.sender) */\n      mload(0x40)\n      dup3\n      0xffffffff\n      and\n      0xe0\n      shl\n      dup2\n      mstore\n      0x04\n      add\n      tag_75\n      swap2\n      swap1\n      tag_15\n      jump\t// in\n    tag_75:\n      0x20\n      mload(0x40)\n      dup1\n      dup4\n      sub\n      dup2\n      dup7\n      gas\n      staticcall\n      iszero\n      dup1\n      iszero\n      tag_77\n      jumpi\n      returndatasize\n      0x00\n      dup1\n      returndatacopy\n      revert(0x00, returndatasize)\n    tag_77:\n      pop\n      pop\n      pop\n      pop\n      mload(0x40)\n      returndatasize\n      not(0x1f)\n      0x1f\n      dup3\n      add\n      and\n      dup3\n      add\n      dup1\n      0x40\n      mstore\n      pop\n      dup2\n      add\n      swap1\n      tag_78\n      swap2\n      swap1\n      tag_79\n      jump\t// in\n    tag_78:\n        /* \"contracts/VotingSystem2.sol\":971:1005  myToken.balanceOf(msg.sender) >= 1 */\n      lt\n      iszero\n        /* \"contracts/VotingSystem2.sol\":963:1037  require(myToken.balanceOf(msg.sender) >= 1, \"Insufficient tokens to vote\") */\n      tag_80\n      jumpi\n      mload(0x40)\n      0x08c379a000000000000000000000000000000000000000000000000000000000\n      dup2\n      mstore\n      0x04\n      add\n      tag_81\n      swap1\n      tag_82\n      jump\t// in\n    tag_81:\n      mload(0x40)\n      dup1\n      swap2\n      sub\n      swap1\n      revert\n    tag_80:\n        /* \"contracts/VotingSystem2.sol\":1114:1121  myToken */\n      0x00\n      dup1\n      sload\n      swap1\n      0x0100\n      exp\n      swap1\n      div\n      0xffffffffffffffffffffffffffffffffffffffff\n      and\n        /* \"contracts/VotingSystem2.sol\":1114:1134  myToken.transferFrom */\n      0xffffffffffffffffffffffffffffffffffffffff\n      and\n      0x23b872dd\n        /* \"contracts/VotingSystem2.sol\":1135:1145  msg.sender */\n      caller\n        /* \"contracts/VotingSystem2.sol\":1155:1159  this */\n      address\n        /* \"contracts/VotingSystem2.sol\":1162:1163  1 */\n      0x01\n        /* \"contracts/VotingSystem2.sol\":1114:1164  myToken.transferFrom(msg.sender, address(this), 1) */\n      mload(0x40)\n      dup5\n      0xffffffff\n      and\n      0xe0\n      shl\n      dup2\n      mstore\n      0x04\n      add\n      tag_83\n      swap4\n      swap3\n      swap2\n      swap1\n      tag_84\n      jump\t// in\n    tag_83:\n      0x20\n      mload(0x40)\n      dup1\n      dup4\n      sub\n      dup2\n      0x00\n      dup8\n      gas\n      call\n      iszero\n      dup1\n      iszero\n      tag_86\n      jumpi\n      returndatasize\n      0x00\n      dup1\n      returndatacopy\n      revert(0x00, returndatasize)\n    tag_86:\n      pop\n      pop\n      pop\n      pop\n      mload(0x40)\n      returndatasize\n      not(0x1f)\n      0x1f\n      dup3\n      add\n      and\n      dup3\n      add\n      dup1\n      0x40\n      mstore\n      pop\n      dup2\n      add\n      swap1\n      tag_87\n      swap2\n      swap1\n      tag_88\n      jump\t// in\n    tag_87:\n        /* \"contracts/VotingSystem2.sol\":1106:1190  require(myToken.transferFrom(msg.sender, address(this), 1), \"Token transfer failed\") */\n      tag_89\n      jumpi\n      mload(0x40)\n      0x08c379a000000000000000000000000000000000000000000000000000000000\n      dup2\n      mstore\n      0x04\n      add\n      tag_90\n      swap1\n      tag_91\n      jump\t// in\n    tag_90:\n      mload(0x40)\n      dup1\n      swap2\n      sub\n      swap1\n      revert\n    tag_89:\n        /* \"contracts/VotingSystem2.sol\":1267:1280  encryptedVote */\n      dup2\n      dup2\n        /* \"contracts/VotingSystem2.sol\":1238:1252  encryptedVotes */\n      0x02\n        /* \"contracts/VotingSystem2.sol\":1238:1264  encryptedVotes[msg.sender] */\n      0x00\n        /* \"contracts/VotingSystem2.sol\":1253:1263  msg.sender */\n      caller\n        /* \"contracts/VotingSystem2.sol\":1238:1264  encryptedVotes[msg.sender] */\n      0xffffffffffffffffffffffffffffffffffffffff\n      and\n      0xffffffffffffffffffffffffffffffffffffffff\n      and\n      dup2\n      mstore\n      0x20\n      add\n      swap1\n      dup2\n      mstore\n      0x20\n      add\n      0x00\n      keccak256\n        /* \"contracts/VotingSystem2.sol\":1238:1280  encryptedVotes[msg.sender] = encryptedVote */\n      swap2\n      dup3\n      tag_92\n      swap3\n      swap2\n      swap1\n      tag_93\n      jump\t// in\n    tag_92:\n      pop\n        /* \"contracts/VotingSystem2.sol\":1302:1312  msg.sender */\n      caller\n        /* \"contracts/VotingSystem2.sol\":1296:1328  Voted(msg.sender, encryptedVote) */\n      0xffffffffffffffffffffffffffffffffffffffff\n      and\n      0xcb6783276e8a4347387036bbfea000268f0a4b1f8c46ac79980609f2af8d2acd\n        /* \"contracts/VotingSystem2.sol\":1314:1327  encryptedVote */\n      dup4\n      dup4\n        /* \"contracts/VotingSystem2.sol\":1296:1328  Voted(msg.sender, encryptedVote) */\n      mload(0x40)\n      tag_94\n      swap3\n      swap2\n      swap1\n      tag_95\n      jump\t// in\n    tag_94:\n      mload(0x40)\n      dup1\n      swap2\n      sub\n      swap1\n      log2\n        /* \"contracts/VotingSystem2.sol\":755:1335  function vote(string calldata encryptedVote) external {... */\n      pop\n      pop\n      jump\t// out\n        /* \"#utility.yul\":7:133   */\n    tag_96:\n        /* \"#utility.yul\":44:51   */\n      0x00\n        /* \"#utility.yul\":84:126   */\n      0xffffffffffffffffffffffffffffffffffffffff\n        /* \"#utility.yul\":77:82   */\n      dup3\n        /* \"#utility.yul\":73:127   */\n      and\n        /* \"#utility.yul\":62:127   */\n      swap1\n      pop\n        /* \"#utility.yul\":7:133   */\n      swap2\n      swap1\n      pop\n      jump\t// out\n        /* \"#utility.yul\":139:235   */\n    tag_97:\n        /* \"#utility.yul\":176:183   */\n      0x00\n        /* \"#utility.yul\":205:229   */\n      tag_168\n        /* \"#utility.yul\":223:228   */\n      dup3\n        /* \"#utility.yul\":205:229   */\n      tag_96\n      jump\t// in\n    tag_168:\n        /* \"#utility.yul\":194:229   */\n      swap1\n      pop\n        /* \"#utility.yul\":139:235   */\n      swap2\n      swap1\n      pop\n      jump\t// out\n        /* \"#utility.yul\":241:359   */\n    tag_98:\n        /* \"#utility.yul\":328:352   */\n      tag_170\n        /* \"#utility.yul\":346:351   */\n      dup2\n        /* \"#utility.yul\":328:352   */\n      tag_97\n      jump\t// in\n    tag_170:\n        /* \"#utility.yul\":323:326   */\n      dup3\n        /* \"#utility.yul\":316:353   */\n      mstore\n        /* \"#utility.yul\":241:359   */\n      pop\n      pop\n      jump\t// out\n        /* \"#utility.yul\":365:587   */\n    tag_15:\n        /* \"#utility.yul\":458:462   */\n      0x00\n        /* \"#utility.yul\":496:498   */\n      0x20\n        /* \"#utility.yul\":485:494   */\n      dup3\n        /* \"#utility.yul\":481:499   */\n      add\n        /* \"#utility.yul\":473:499   */\n      swap1\n      pop\n        /* \"#utility.yul\":509:580   */\n      tag_172\n        /* \"#utility.yul\":577:578   */\n      0x00\n        /* \"#utility.yul\":566:575   */\n      dup4\n        /* \"#utility.yul\":562:579   */\n      add\n        /* \"#utility.yul\":553:559   */\n      dup5\n        /* \"#utility.yul\":509:580   */\n      tag_98\n      jump\t// in\n    tag_172:\n        /* \"#utility.yul\":365:587   */\n      swap3\n      swap2\n      pop\n      pop\n      jump\t// out\n        /* \"#utility.yul\":593:653   */\n    tag_99:\n        /* \"#utility.yul\":621:624   */\n      0x00\n        /* \"#utility.yul\":642:647   */\n      dup2\n        /* \"#utility.yul\":635:647   */\n      swap1\n      pop\n        /* \"#utility.yul\":593:653   */\n      swap2\n      swap1\n      pop\n      jump\t// out\n        /* \"#utility.yul\":659:801   */\n    tag_100:\n        /* \"#utility.yul\":709:718   */\n      0x00\n        /* \"#utility.yul\":742:795   */\n      tag_175\n        /* \"#utility.yul\":760:794   */\n      tag_176\n        /* \"#utility.yul\":769:793   */\n      tag_177\n        /* \"#utility.yul\":787:792   */\n      dup5\n        /* \"#utility.yul\":769:793   */\n      tag_96\n      jump\t// in\n    tag_177:\n        /* \"#utility.yul\":760:794   */\n      tag_99\n      jump\t// in\n    tag_176:\n        /* \"#utility.yul\":742:795   */\n      tag_96\n      jump\t// in\n    tag_175:\n        /* \"#utility.yul\":729:795   */\n      swap1\n      pop\n        /* \"#utility.yul\":659:801   */\n      swap2\n      swap1\n      pop\n      jump\t// out\n        /* \"#utility.yul\":807:933   */\n    tag_101:\n        /* \"#utility.yul\":857:866   */\n      0x00\n        /* \"#utility.yul\":890:927   */\n      tag_179\n        /* \"#utility.yul\":921:926   */\n      dup3\n        /* \"#utility.yul\":890:927   */\n      tag_100\n      jump\t// in\n    tag_179:\n        /* \"#utility.yul\":877:927   */\n      swap1\n      pop\n        /* \"#utility.yul\":807:933   */\n      swap2\n      swap1\n      pop\n      jump\t// out\n        /* \"#utility.yul\":939:1080   */\n    tag_102:\n        /* \"#utility.yul\":1004:1013   */\n      0x00\n        /* \"#utility.yul\":1037:1074   */\n      tag_181\n        /* \"#utility.yul\":1068:1073   */\n      dup3\n        /* \"#utility.yul\":1037:1074   */\n      tag_101\n      jump\t// in\n    tag_181:\n        /* \"#utility.yul\":1024:1074   */\n      swap1\n      pop\n        /* \"#utility.yul\":939:1080   */\n      swap2\n      swap1\n      pop\n      jump\t// out\n        /* \"#utility.yul\":1086:1247   */\n    tag_103:\n        /* \"#utility.yul\":1188:1240   */\n      tag_183\n        /* \"#utility.yul\":1234:1239   */\n      dup2\n        /* \"#utility.yul\":1188:1240   */\n      tag_102\n      jump\t// in\n    tag_183:\n        /* \"#utility.yul\":1183:1186   */\n      dup3\n        /* \"#utility.yul\":1176:1241   */\n      mstore\n        /* \"#utility.yul\":1086:1247   */\n      pop\n      pop\n      jump\t// out\n        /* \"#utility.yul\":1253:1505   */\n    tag_19:\n        /* \"#utility.yul\":1361:1365   */\n      0x00\n        /* \"#utility.yul\":1399:1401   */\n      0x20\n        /* \"#utility.yul\":1388:1397   */\n      dup3\n        /* \"#utility.yul\":1384:1402   */\n      add\n        /* \"#utility.yul\":1376:1402   */\n      swap1\n      pop\n        /* \"#utility.yul\":1412:1498   */\n      tag_185\n        /* \"#utility.yul\":1495:1496   */\n      0x00\n        /* \"#utility.yul\":1484:1493   */\n      dup4\n        /* \"#utility.yul\":1480:1497   */\n      add\n        /* \"#utility.yul\":1471:1477   */\n      dup5\n        /* \"#utility.yul\":1412:1498   */\n      tag_103\n      jump\t// in\n    tag_185:\n        /* \"#utility.yul\":1253:1505   */\n      swap3\n      swap2\n      pop\n      pop\n      jump\t// out\n        /* \"#utility.yul\":1592:1709   */\n    tag_105:\n        /* \"#utility.yul\":1701:1702   */\n      0x00\n        /* \"#utility.yul\":1698:1699   */\n      dup1\n        /* \"#utility.yul\":1691:1703   */\n      revert\n        /* \"#utility.yul\":1715:1832   */\n    tag_106:\n        /* \"#utility.yul\":1824:1825   */\n      0x00\n        /* \"#utility.yul\":1821:1822   */\n      dup1\n        /* \"#utility.yul\":1814:1826   */\n      revert\n        /* \"#utility.yul\":1838:1960   */\n    tag_107:\n        /* \"#utility.yul\":1911:1935   */\n      tag_190\n        /* \"#utility.yul\":1929:1934   */\n      dup2\n        /* \"#utility.yul\":1911:1935   */\n      tag_97\n      jump\t// in\n    tag_190:\n        /* \"#utility.yul\":1904:1909   */\n      dup2\n        /* \"#utility.yul\":1901:1936   */\n      eq\n        /* \"#utility.yul\":1891:1954   */\n      tag_191\n      jumpi\n        /* \"#utility.yul\":1950:1951   */\n      0x00\n        /* \"#utility.yul\":1947:1948   */\n      dup1\n        /* \"#utility.yul\":1940:1952   */\n      revert\n        /* \"#utility.yul\":1891:1954   */\n    tag_191:\n        /* \"#utility.yul\":1838:1960   */\n      pop\n      jump\t// out\n        /* \"#utility.yul\":1966:2105   */\n    tag_108:\n        /* \"#utility.yul\":2012:2017   */\n      0x00\n        /* \"#utility.yul\":2050:2056   */\n      dup2\n        /* \"#utility.yul\":2037:2057   */\n      calldataload\n        /* \"#utility.yul\":2028:2057   */\n      swap1\n      pop\n        /* \"#utility.yul\":2066:2099   */\n      tag_193\n        /* \"#utility.yul\":2093:2098   */\n      dup2\n        /* \"#utility.yul\":2066:2099   */\n      tag_107\n      jump\t// in\n    tag_193:\n        /* \"#utility.yul\":1966:2105   */\n      swap3\n      swap2\n      pop\n      pop\n      jump\t// out\n        /* \"#utility.yul\":2111:2440   */\n    tag_22:\n        /* \"#utility.yul\":2170:2176   */\n      0x00\n        /* \"#utility.yul\":2219:2221   */\n      0x20\n        /* \"#utility.yul\":2207:2216   */\n      dup3\n        /* \"#utility.yul\":2198:2205   */\n      dup5\n        /* \"#utility.yul\":2194:2217   */\n      sub\n        /* \"#utility.yul\":2190:2222   */\n      slt\n        /* \"#utility.yul\":2187:2306   */\n      iszero\n      tag_195\n      jumpi\n        /* \"#utility.yul\":2225:2304   */\n      tag_196\n      tag_105\n      jump\t// in\n    tag_196:\n        /* \"#utility.yul\":2187:2306   */\n    tag_195:\n        /* \"#utility.yul\":2345:2346   */\n      0x00\n        /* \"#utility.yul\":2370:2423   */\n      tag_197\n        /* \"#utility.yul\":2415:2422   */\n      dup5\n        /* \"#utility.yul\":2406:2412   */\n      dup3\n        /* \"#utility.yul\":2395:2404   */\n      dup6\n        /* \"#utility.yul\":2391:2413   */\n      add\n        /* \"#utility.yul\":2370:2423   */\n      tag_108\n      jump\t// in\n    tag_197:\n        /* \"#utility.yul\":2360:2423   */\n      swap2\n      pop\n        /* \"#utility.yul\":2316:2433   */\n      pop\n        /* \"#utility.yul\":2111:2440   */\n      swap3\n      swap2\n      pop\n      pop\n      jump\t// out\n        /* \"#utility.yul\":2446:2545   */\n    tag_109:\n        /* \"#utility.yul\":2498:2504   */\n      0x00\n        /* \"#utility.yul\":2532:2537   */\n      dup2\n        /* \"#utility.yul\":2526:2538   */\n      mload\n        /* \"#utility.yul\":2516:2538   */\n      swap1\n      pop\n        /* \"#utility.yul\":2446:2545   */\n      swap2\n      swap1\n      pop\n      jump\t// out\n        /* \"#utility.yul\":2551:2720   */\n    tag_110:\n        /* \"#utility.yul\":2635:2646   */\n      0x00\n        /* \"#utility.yul\":2669:2675   */\n      dup3\n        /* \"#utility.yul\":2664:2667   */\n      dup3\n        /* \"#utility.yul\":2657:2676   */\n      mstore\n        /* \"#utility.yul\":2709:2713   */\n      0x20\n        /* \"#utility.yul\":2704:2707   */\n      dup3\n        /* \"#utility.yul\":2700:2714   */\n      add\n        /* \"#utility.yul\":2685:2714   */\n      swap1\n      pop\n        /* \"#utility.yul\":2551:2720   */\n      swap3\n      swap2\n      pop\n      pop\n      jump\t// out\n        /* \"#utility.yul\":2726:2972   */\n    tag_111:\n        /* \"#utility.yul\":2807:2808   */\n      0x00\n        /* \"#utility.yul\":2817:2930   */\n    tag_201:\n        /* \"#utility.yul\":2831:2837   */\n      dup4\n        /* \"#utility.yul\":2828:2829   */\n      dup2\n        /* \"#utility.yul\":2825:2838   */\n      lt\n        /* \"#utility.yul\":2817:2930   */\n      iszero\n      tag_203\n      jumpi\n        /* \"#utility.yul\":2916:2917   */\n      dup1\n        /* \"#utility.yul\":2911:2914   */\n      dup3\n        /* \"#utility.yul\":2907:2918   */\n      add\n        /* \"#utility.yul\":2901:2919   */\n      mload\n        /* \"#utility.yul\":2897:2898   */\n      dup2\n        /* \"#utility.yul\":2892:2895   */\n      dup5\n        /* \"#utility.yul\":2888:2899   */\n      add\n        /* \"#utility.yul\":2881:2920   */\n      mstore\n        /* \"#utility.yul\":2853:2855   */\n      0x20\n        /* \"#utility.yul\":2850:2851   */\n      dup2\n        /* \"#utility.yul\":2846:2856   */\n      add\n        /* \"#utility.yul\":2841:2856   */\n      swap1\n      pop\n        /* \"#utility.yul\":2817:2930   */\n      jump(tag_201)\n    tag_203:\n        /* \"#utility.yul\":2964:2965   */\n      0x00\n        /* \"#utility.yul\":2955:2961   */\n      dup5\n        /* \"#utility.yul\":2950:2953   */\n      dup5\n        /* \"#utility.yul\":2946:2962   */\n      add\n        /* \"#utility.yul\":2939:2966   */\n      mstore\n        /* \"#utility.yul\":2788:2972   */\n      pop\n        /* \"#utility.yul\":2726:2972   */\n      pop\n      pop\n      pop\n      jump\t// out\n        /* \"#utility.yul\":2978:3080   */\n    tag_112:\n        /* \"#utility.yul\":3019:3025   */\n      0x00\n        /* \"#utility.yul\":3070:3072   */\n      0x1f\n        /* \"#utility.yul\":3066:3073   */\n      not\n        /* \"#utility.yul\":3061:3063   */\n      0x1f\n        /* \"#utility.yul\":3054:3059   */\n      dup4\n        /* \"#utility.yul\":3050:3064   */\n      add\n        /* \"#utility.yul\":3046:3074   */\n      and\n        /* \"#utility.yul\":3036:3074   */\n      swap1\n      pop\n        /* \"#utility.yul\":2978:3080   */\n      swap2\n      swap1\n      pop\n      jump\t// out\n        /* \"#utility.yul\":3086:3463   */\n    tag_113:\n        /* \"#utility.yul\":3174:3177   */\n      0x00\n        /* \"#utility.yul\":3202:3241   */\n      tag_206\n        /* \"#utility.yul\":3235:3240   */\n      dup3\n        /* \"#utility.yul\":3202:3241   */\n      tag_109\n      jump\t// in\n    tag_206:\n        /* \"#utility.yul\":3257:3328   */\n      tag_207\n        /* \"#utility.yul\":3321:3327   */\n      dup2\n        /* \"#utility.yul\":3316:3319   */\n      dup6\n        /* \"#utility.yul\":3257:3328   */\n      tag_110\n      jump\t// in\n    tag_207:\n        /* \"#utility.yul\":3250:3328   */\n      swap4\n      pop\n        /* \"#utility.yul\":3337:3402   */\n      tag_208\n        /* \"#utility.yul\":3395:3401   */\n      dup2\n        /* \"#utility.yul\":3390:3393   */\n      dup6\n        /* \"#utility.yul\":3383:3387   */\n      0x20\n        /* \"#utility.yul\":3376:3381   */\n      dup7\n        /* \"#utility.yul\":3372:3388   */\n      add\n        /* \"#utility.yul\":3337:3402   */\n      tag_111\n      jump\t// in\n    tag_208:\n        /* \"#utility.yul\":3427:3456   */\n      tag_209\n        /* \"#utility.yul\":3449:3455   */\n      dup2\n        /* \"#utility.yul\":3427:3456   */\n      tag_112\n      jump\t// in\n    tag_209:\n        /* \"#utility.yul\":3422:3425   */\n      dup5\n        /* \"#utility.yul\":3418:3457   */\n      add\n        /* \"#utility.yul\":3411:3457   */\n      swap2\n      pop\n        /* \"#utility.yul\":3178:3463   */\n      pop\n        /* \"#utility.yul\":3086:3463   */\n      swap3\n      swap2\n      pop\n      pop\n      jump\t// out\n        /* \"#utility.yul\":3469:3782   */\n    tag_28:\n        /* \"#utility.yul\":3582:3586   */\n      0x00\n        /* \"#utility.yul\":3620:3622   */\n      0x20\n        /* \"#utility.yul\":3609:3618   */\n      dup3\n        /* \"#utility.yul\":3605:3623   */\n      add\n        /* \"#utility.yul\":3597:3623   */\n      swap1\n      pop\n        /* \"#utility.yul\":3669:3678   */\n      dup2\n        /* \"#utility.yul\":3663:3667   */\n      dup2\n        /* \"#utility.yul\":3659:3679   */\n      sub\n        /* \"#utility.yul\":3655:3656   */\n      0x00\n        /* \"#utility.yul\":3644:3653   */\n      dup4\n        /* \"#utility.yul\":3640:3657   */\n      add\n        /* \"#utility.yul\":3633:3680   */\n      mstore\n        /* \"#utility.yul\":3697:3775   */\n      tag_211\n        /* \"#utility.yul\":3770:3774   */\n      dup2\n        /* \"#utility.yul\":3761:3767   */\n      dup5\n        /* \"#utility.yul\":3697:3775   */\n      tag_113\n      jump\t// in\n    tag_211:\n        /* \"#utility.yul\":3689:3775   */\n      swap1\n      pop\n        /* \"#utility.yul\":3469:3782   */\n      swap3\n      swap2\n      pop\n      pop\n      jump\t// out\n        /* \"#utility.yul\":3788:3902   */\n    tag_114:\n        /* \"#utility.yul\":3855:3861   */\n      0x00\n        /* \"#utility.yul\":3889:3894   */\n      dup2\n        /* \"#utility.yul\":3883:3895   */\n      mload\n        /* \"#utility.yul\":3873:3895   */\n      swap1\n      pop\n        /* \"#utility.yul\":3788:3902   */\n      swap2\n      swap1\n      pop\n      jump\t// out\n        /* \"#utility.yul\":3908:4092   */\n    tag_115:\n        /* \"#utility.yul\":4007:4018   */\n      0x00\n        /* \"#utility.yul\":4041:4047   */\n      dup3\n        /* \"#utility.yul\":4036:4039   */\n      dup3\n        /* \"#utility.yul\":4029:4048   */\n      mstore\n        /* \"#utility.yul\":4081:4085   */\n      0x20\n        /* \"#utility.yul\":4076:4079   */\n      dup3\n        /* \"#utility.yul\":4072:4086   */\n      add\n        /* \"#utility.yul\":4057:4086   */\n      swap1\n      pop\n        /* \"#utility.yul\":3908:4092   */\n      swap3\n      swap2\n      pop\n      pop\n      jump\t// out\n        /* \"#utility.yul\":4098:4230   */\n    tag_116:\n        /* \"#utility.yul\":4165:4169   */\n      0x00\n        /* \"#utility.yul\":4188:4191   */\n      dup2\n        /* \"#utility.yul\":4180:4191   */\n      swap1\n      pop\n        /* \"#utility.yul\":4218:4222   */\n      0x20\n        /* \"#utility.yul\":4213:4216   */\n      dup3\n        /* \"#utility.yul\":4209:4223   */\n      add\n        /* \"#utility.yul\":4201:4223   */\n      swap1\n      pop\n        /* \"#utility.yul\":4098:4230   */\n      swap2\n      swap1\n      pop\n      jump\t// out\n        /* \"#utility.yul\":4236:4313   */\n    tag_117:\n        /* \"#utility.yul\":4273:4280   */\n      0x00\n        /* \"#utility.yul\":4302:4307   */\n      dup2\n        /* \"#utility.yul\":4291:4307   */\n      swap1\n      pop\n        /* \"#utility.yul\":4236:4313   */\n      swap2\n      swap1\n      pop\n      jump\t// out\n        /* \"#utility.yul\":4319:4427   */\n    tag_118:\n        /* \"#utility.yul\":4396:4420   */\n      tag_217\n        /* \"#utility.yul\":4414:4419   */\n      dup2\n        /* \"#utility.yul\":4396:4420   */\n      tag_117\n      jump\t// in\n    tag_217:\n        /* \"#utility.yul\":4391:4394   */\n      dup3\n        /* \"#utility.yul\":4384:4421   */\n      mstore\n        /* \"#utility.yul\":4319:4427   */\n      pop\n      pop\n      jump\t// out\n        /* \"#utility.yul\":4433:4612   */\n    tag_119:\n        /* \"#utility.yul\":4502:4512   */\n      0x00\n        /* \"#utility.yul\":4523:4569   */\n      tag_219\n        /* \"#utility.yul\":4565:4568   */\n      dup4\n        /* \"#utility.yul\":4557:4563   */\n      dup4\n        /* \"#utility.yul\":4523:4569   */\n      tag_118\n      jump\t// in\n    tag_219:\n        /* \"#utility.yul\":4601:4605   */\n      0x20\n        /* \"#utility.yul\":4596:4599   */\n      dup4\n        /* \"#utility.yul\":4592:4606   */\n      add\n        /* \"#utility.yul\":4578:4606   */\n      swap1\n      pop\n        /* \"#utility.yul\":4433:4612   */\n      swap3\n      swap2\n      pop\n      pop\n      jump\t// out\n        /* \"#utility.yul\":4618:4731   */\n    tag_120:\n        /* \"#utility.yul\":4688:4692   */\n      0x00\n        /* \"#utility.yul\":4720:4724   */\n      0x20\n        /* \"#utility.yul\":4715:4718   */\n      dup3\n        /* \"#utility.yul\":4711:4725   */\n      add\n        /* \"#utility.yul\":4703:4725   */\n      swap1\n      pop\n        /* \"#utility.yul\":4618:4731   */\n      swap2\n      swap1\n      pop\n      jump\t// out\n        /* \"#utility.yul\":4767:5499   */\n    tag_121:\n        /* \"#utility.yul\":4886:4889   */\n      0x00\n        /* \"#utility.yul\":4915:4969   */\n      tag_222\n        /* \"#utility.yul\":4963:4968   */\n      dup3\n        /* \"#utility.yul\":4915:4969   */\n      tag_114\n      jump\t// in\n    tag_222:\n        /* \"#utility.yul\":4985:5071   */\n      tag_223\n        /* \"#utility.yul\":5064:5070   */\n      dup2\n        /* \"#utility.yul\":5059:5062   */\n      dup6\n        /* \"#utility.yul\":4985:5071   */\n      tag_115\n      jump\t// in\n    tag_223:\n        /* \"#utility.yul\":4978:5071   */\n      swap4\n      pop\n        /* \"#utility.yul\":5095:5151   */\n      tag_224\n        /* \"#utility.yul\":5145:5150   */\n      dup4\n        /* \"#utility.yul\":5095:5151   */\n      tag_116\n      jump\t// in\n    tag_224:\n        /* \"#utility.yul\":5174:5181   */\n      dup1\n        /* \"#utility.yul\":5205:5206   */\n      0x00\n        /* \"#utility.yul\":5190:5474   */\n    tag_225:\n        /* \"#utility.yul\":5215:5221   */\n      dup4\n        /* \"#utility.yul\":5212:5213   */\n      dup2\n        /* \"#utility.yul\":5209:5222   */\n      lt\n        /* \"#utility.yul\":5190:5474   */\n      iszero\n      tag_227\n      jumpi\n        /* \"#utility.yul\":5291:5297   */\n      dup2\n        /* \"#utility.yul\":5285:5298   */\n      mload\n        /* \"#utility.yul\":5318:5381   */\n      tag_228\n        /* \"#utility.yul\":5377:5380   */\n      dup9\n        /* \"#utility.yul\":5362:5375   */\n      dup3\n        /* \"#utility.yul\":5318:5381   */\n      tag_119\n      jump\t// in\n    tag_228:\n        /* \"#utility.yul\":5311:5381   */\n      swap8\n      pop\n        /* \"#utility.yul\":5404:5464   */\n      tag_229\n        /* \"#utility.yul\":5457:5463   */\n      dup4\n        /* \"#utility.yul\":5404:5464   */\n      tag_120\n      jump\t// in\n    tag_229:\n        /* \"#utility.yul\":5394:5464   */\n      swap3\n      pop\n        /* \"#utility.yul\":5250:5474   */\n      pop\n        /* \"#utility.yul\":5237:5238   */\n      0x01\n        /* \"#utility.yul\":5234:5235   */\n      dup2\n        /* \"#utility.yul\":5230:5239   */\n      add\n        /* \"#utility.yul\":5225:5239   */\n      swap1\n      pop\n        /* \"#utility.yul\":5190:5474   */\n      jump(tag_225)\n    tag_227:\n        /* \"#utility.yul\":5194:5208   */\n      pop\n        /* \"#utility.yul\":5490:5493   */\n      dup6\n        /* \"#utility.yul\":5483:5493   */\n      swap4\n      pop\n        /* \"#utility.yul\":4891:5499   */\n      pop\n      pop\n      pop\n        /* \"#utility.yul\":4767:5499   */\n      swap3\n      swap2\n      pop\n      pop\n      jump\t// out\n        /* \"#utility.yul\":5505:5878   */\n    tag_36:\n        /* \"#utility.yul\":5648:5652   */\n      0x00\n        /* \"#utility.yul\":5686:5688   */\n      0x20\n        /* \"#utility.yul\":5675:5684   */\n      dup3\n        /* \"#utility.yul\":5671:5689   */\n      add\n        /* \"#utility.yul\":5663:5689   */\n      swap1\n      pop\n        /* \"#utility.yul\":5735:5744   */\n      dup2\n        /* \"#utility.yul\":5729:5733   */\n      dup2\n        /* \"#utility.yul\":5725:5745   */\n      sub\n        /* \"#utility.yul\":5721:5722   */\n      0x00\n        /* \"#utility.yul\":5710:5719   */\n      dup4\n        /* \"#utility.yul\":5706:5723   */\n      add\n        /* \"#utility.yul\":5699:5746   */\n      mstore\n        /* \"#utility.yul\":5763:5871   */\n      tag_231\n        /* \"#utility.yul\":5866:5870   */\n      dup2\n        /* \"#utility.yul\":5857:5863   */\n      dup5\n        /* \"#utility.yul\":5763:5871   */\n      tag_121\n      jump\t// in\n    tag_231:\n        /* \"#utility.yul\":5755:5871   */\n      swap1\n      pop\n        /* \"#utility.yul\":5505:5878   */\n      swap3\n      swap2\n      pop\n      pop\n      jump\t// out\n        /* \"#utility.yul\":5884:6006   */\n    tag_122:\n        /* \"#utility.yul\":5957:5981   */\n      tag_233\n        /* \"#utility.yul\":5975:5980   */\n      dup2\n        /* \"#utility.yul\":5957:5981   */\n      tag_117\n      jump\t// in\n    tag_233:\n        /* \"#utility.yul\":5950:5955   */\n      dup2\n        /* \"#utility.yul\":5947:5982   */\n      eq\n        /* \"#utility.yul\":5937:6000   */\n      tag_234\n      jumpi\n        /* \"#utility.yul\":5996:5997   */\n      0x00\n        /* \"#utility.yul\":5993:5994   */\n      dup1\n        /* \"#utility.yul\":5986:5998   */\n      revert\n        /* \"#utility.yul\":5937:6000   */\n    tag_234:\n        /* \"#utility.yul\":5884:6006   */\n      pop\n      jump\t// out\n        /* \"#utility.yul\":6012:6151   */\n    tag_123:\n        /* \"#utility.yul\":6058:6063   */\n      0x00\n        /* \"#utility.yul\":6096:6102   */\n      dup2\n        /* \"#utility.yul\":6083:6103   */\n      calldataload\n        /* \"#utility.yul\":6074:6103   */\n      swap1\n      pop\n        /* \"#utility.yul\":6112:6145   */\n      tag_236\n        /* \"#utility.yul\":6139:6144   */\n      dup2\n        /* \"#utility.yul\":6112:6145   */\n      tag_122\n      jump\t// in\n    tag_236:\n        /* \"#utility.yul\":6012:6151   */\n      swap3\n      swap2\n      pop\n      pop\n      jump\t// out\n        /* \"#utility.yul\":6157:6486   */\n    tag_39:\n        /* \"#utility.yul\":6216:6222   */\n      0x00\n        /* \"#utility.yul\":6265:6267   */\n      0x20\n        /* \"#utility.yul\":6253:6262   */\n      dup3\n        /* \"#utility.yul\":6244:6251   */\n      dup5\n        /* \"#utility.yul\":6240:6263   */\n      sub\n        /* \"#utility.yul\":6236:6268   */\n      slt\n        /* \"#utility.yul\":6233:6352   */\n      iszero\n      tag_238\n      jumpi\n        /* \"#utility.yul\":6271:6350   */\n      tag_239\n      tag_105\n      jump\t// in\n    tag_239:\n        /* \"#utility.yul\":6233:6352   */\n    tag_238:\n        /* \"#utility.yul\":6391:6392   */\n      0x00\n        /* \"#utility.yul\":6416:6469   */\n      tag_240\n        /* \"#utility.yul\":6461:6468   */\n      dup5\n        /* \"#utility.yul\":6452:6458   */\n      dup3\n        /* \"#utility.yul\":6441:6450   */\n      dup6\n        /* \"#utility.yul\":6437:6459   */\n      add\n        /* \"#utility.yul\":6416:6469   */\n      tag_123\n      jump\t// in\n    tag_240:\n        /* \"#utility.yul\":6406:6469   */\n      swap2\n      pop\n        /* \"#utility.yul\":6362:6479   */\n      pop\n        /* \"#utility.yul\":6157:6486   */\n      swap3\n      swap2\n      pop\n      pop\n      jump\t// out\n        /* \"#utility.yul\":6492:6610   */\n    tag_124:\n        /* \"#utility.yul\":6579:6603   */\n      tag_242\n        /* \"#utility.yul\":6597:6602   */\n      dup2\n        /* \"#utility.yul\":6579:6603   */\n      tag_117\n      jump\t// in\n    tag_242:\n        /* \"#utility.yul\":6574:6577   */\n      dup3\n        /* \"#utility.yul\":6567:6604   */\n      mstore\n        /* \"#utility.yul\":6492:6610   */\n      pop\n      pop\n      jump\t// out\n        /* \"#utility.yul\":6616:6838   */\n    tag_42:\n        /* \"#utility.yul\":6709:6713   */\n      0x00\n        /* \"#utility.yul\":6747:6749   */\n      0x20\n        /* \"#utility.yul\":6736:6745   */\n      dup3\n        /* \"#utility.yul\":6732:6750   */\n      add\n        /* \"#utility.yul\":6724:6750   */\n      swap1\n      pop\n        /* \"#utility.yul\":6760:6831   */\n      tag_244\n        /* \"#utility.yul\":6828:6829   */\n      0x00\n        /* \"#utility.yul\":6817:6826   */\n      dup4\n        /* \"#utility.yul\":6813:6830   */\n      add\n        /* \"#utility.yul\":6804:6810   */\n      dup5\n        /* \"#utility.yul\":6760:6831   */\n      tag_124\n      jump\t// in\n    tag_244:\n        /* \"#utility.yul\":6616:6838   */\n      swap3\n      swap2\n      pop\n      pop\n      jump\t// out\n        /* \"#utility.yul\":6844:6961   */\n    tag_125:\n        /* \"#utility.yul\":6953:6954   */\n      0x00\n        /* \"#utility.yul\":6950:6951   */\n      dup1\n        /* \"#utility.yul\":6943:6955   */\n      revert\n        /* \"#utility.yul\":6967:7084   */\n    tag_126:\n        /* \"#utility.yul\":7076:7077   */\n      0x00\n        /* \"#utility.yul\":7073:7074   */\n      dup1\n        /* \"#utility.yul\":7066:7078   */\n      revert\n        /* \"#utility.yul\":7090:7207   */\n    tag_127:\n        /* \"#utility.yul\":7199:7200   */\n      0x00\n        /* \"#utility.yul\":7196:7197   */\n      dup1\n        /* \"#utility.yul\":7189:7201   */\n      revert\n        /* \"#utility.yul\":7227:7780   */\n    tag_128:\n        /* \"#utility.yul\":7285:7293   */\n      0x00\n        /* \"#utility.yul\":7295:7301   */\n      dup1\n        /* \"#utility.yul\":7345:7348   */\n      dup4\n        /* \"#utility.yul\":7338:7342   */\n      0x1f\n        /* \"#utility.yul\":7330:7336   */\n      dup5\n        /* \"#utility.yul\":7326:7343   */\n      add\n        /* \"#utility.yul\":7322:7349   */\n      slt\n        /* \"#utility.yul\":7312:7434   */\n      tag_249\n      jumpi\n        /* \"#utility.yul\":7353:7432   */\n      tag_250\n      tag_125\n      jump\t// in\n    tag_250:\n        /* \"#utility.yul\":7312:7434   */\n    tag_249:\n        /* \"#utility.yul\":7466:7472   */\n      dup3\n        /* \"#utility.yul\":7453:7473   */\n      calldataload\n        /* \"#utility.yul\":7443:7473   */\n      swap1\n      pop\n        /* \"#utility.yul\":7496:7514   */\n      0xffffffffffffffff\n        /* \"#utility.yul\":7488:7494   */\n      dup2\n        /* \"#utility.yul\":7485:7515   */\n      gt\n        /* \"#utility.yul\":7482:7599   */\n      iszero\n      tag_251\n      jumpi\n        /* \"#utility.yul\":7518:7597   */\n      tag_252\n      tag_126\n      jump\t// in\n    tag_252:\n        /* \"#utility.yul\":7482:7599   */\n    tag_251:\n        /* \"#utility.yul\":7632:7636   */\n      0x20\n        /* \"#utility.yul\":7624:7630   */\n      dup4\n        /* \"#utility.yul\":7620:7637   */\n      add\n        /* \"#utility.yul\":7608:7637   */\n      swap2\n      pop\n        /* \"#utility.yul\":7686:7689   */\n      dup4\n        /* \"#utility.yul\":7678:7682   */\n      0x01\n        /* \"#utility.yul\":7670:7676   */\n      dup3\n        /* \"#utility.yul\":7666:7683   */\n      mul\n        /* \"#utility.yul\":7656:7664   */\n      dup4\n        /* \"#utility.yul\":7652:7684   */\n      add\n        /* \"#utility.yul\":7649:7690   */\n      gt\n        /* \"#utility.yul\":7646:7774   */\n      iszero\n      tag_253\n      jumpi\n        /* \"#utility.yul\":7693:7772   */\n      tag_254\n      tag_127\n      jump\t// in\n    tag_254:\n        /* \"#utility.yul\":7646:7774   */\n    tag_253:\n        /* \"#utility.yul\":7227:7780   */\n      swap3\n      pop\n      swap3\n      swap1\n      pop\n      jump\t// out\n        /* \"#utility.yul\":7786:8315   */\n    tag_45:\n        /* \"#utility.yul\":7857:7863   */\n      0x00\n        /* \"#utility.yul\":7865:7871   */\n      dup1\n        /* \"#utility.yul\":7914:7916   */\n      0x20\n        /* \"#utility.yul\":7902:7911   */\n      dup4\n        /* \"#utility.yul\":7893:7900   */\n      dup6\n        /* \"#utility.yul\":7889:7912   */\n      sub\n        /* \"#utility.yul\":7885:7917   */\n      slt\n        /* \"#utility.yul\":7882:8001   */\n      iszero\n      tag_256\n      jumpi\n        /* \"#utility.yul\":7920:7999   */\n      tag_257\n      tag_105\n      jump\t// in\n    tag_257:\n        /* \"#utility.yul\":7882:8001   */\n    tag_256:\n        /* \"#utility.yul\":8068:8069   */\n      0x00\n        /* \"#utility.yul\":8057:8066   */\n      dup4\n        /* \"#utility.yul\":8053:8070   */\n      add\n        /* \"#utility.yul\":8040:8071   */\n      calldataload\n        /* \"#utility.yul\":8098:8116   */\n      0xffffffffffffffff\n        /* \"#utility.yul\":8090:8096   */\n      dup2\n        /* \"#utility.yul\":8087:8117   */\n      gt\n        /* \"#utility.yul\":8084:8201   */\n      iszero\n      tag_258\n      jumpi\n        /* \"#utility.yul\":8120:8199   */\n      tag_259\n      tag_106\n      jump\t// in\n    tag_259:\n        /* \"#utility.yul\":8084:8201   */\n    tag_258:\n        /* \"#utility.yul\":8233:8298   */\n      tag_260\n        /* \"#utility.yul\":8290:8297   */\n      dup6\n        /* \"#utility.yul\":8281:8287   */\n      dup3\n        /* \"#utility.yul\":8270:8279   */\n      dup7\n        /* \"#utility.yul\":8266:8288   */\n      add\n        /* \"#utility.yul\":8233:8298   */\n      tag_128\n      jump\t// in\n    tag_260:\n        /* \"#utility.yul\":8215:8298   */\n      swap3\n      pop\n      swap3\n      pop\n        /* \"#utility.yul\":8011:8308   */\n      pop\n        /* \"#utility.yul\":7786:8315   */\n      swap3\n      pop\n      swap3\n      swap1\n      pop\n      jump\t// out\n        /* \"#utility.yul\":8321:8555   */\n    tag_129:\n        /* \"#utility.yul\":8461:8495   */\n      0x4f6e6c7920746865206368616972706572736f6e2063616e2073657420746865\n        /* \"#utility.yul\":8457:8458   */\n      0x00\n        /* \"#utility.yul\":8449:8455   */\n      dup3\n        /* \"#utility.yul\":8445:8459   */\n      add\n        /* \"#utility.yul\":8438:8496   */\n      mstore\n        /* \"#utility.yul\":8530:8547   */\n      0x20746f6b656e20636f6e74726163740000000000000000000000000000000000\n        /* \"#utility.yul\":8525:8527   */\n      0x20\n        /* \"#utility.yul\":8517:8523   */\n      dup3\n        /* \"#utility.yul\":8513:8528   */\n      add\n        /* \"#utility.yul\":8506:8548   */\n      mstore\n        /* \"#utility.yul\":8321:8555   */\n      pop\n      jump\t// out\n        /* \"#utility.yul\":8561:8927   */\n    tag_130:\n        /* \"#utility.yul\":8703:8706   */\n      0x00\n        /* \"#utility.yul\":8724:8791   */\n      tag_263\n        /* \"#utility.yul\":8788:8790   */\n      0x2f\n        /* \"#utility.yul\":8783:8786   */\n      dup4\n        /* \"#utility.yul\":8724:8791   */\n      tag_110\n      jump\t// in\n    tag_263:\n        /* \"#utility.yul\":8717:8791   */\n      swap2\n      pop\n        /* \"#utility.yul\":8800:8893   */\n      tag_264\n        /* \"#utility.yul\":8889:8892   */\n      dup3\n        /* \"#utility.yul\":8800:8893   */\n      tag_129\n      jump\t// in\n    tag_264:\n        /* \"#utility.yul\":8918:8920   */\n      0x40\n        /* \"#utility.yul\":8913:8916   */\n      dup3\n        /* \"#utility.yul\":8909:8921   */\n      add\n        /* \"#utility.yul\":8902:8921   */\n      swap1\n      pop\n        /* \"#utility.yul\":8561:8927   */\n      swap2\n      swap1\n      pop\n      jump\t// out\n        /* \"#utility.yul\":8933:9352   */\n    tag_50:\n        /* \"#utility.yul\":9099:9103   */\n      0x00\n        /* \"#utility.yul\":9137:9139   */\n      0x20\n        /* \"#utility.yul\":9126:9135   */\n      dup3\n        /* \"#utility.yul\":9122:9140   */\n      add\n        /* \"#utility.yul\":9114:9140   */\n      swap1\n      pop\n        /* \"#utility.yul\":9186:9195   */\n      dup2\n        /* \"#utility.yul\":9180:9184   */\n      dup2\n        /* \"#utility.yul\":9176:9196   */\n      sub\n        /* \"#utility.yul\":9172:9173   */\n      0x00\n        /* \"#utility.yul\":9161:9170   */\n      dup4\n        /* \"#utility.yul\":9157:9174   */\n      add\n        /* \"#utility.yul\":9150:9197   */\n      mstore\n        /* \"#utility.yul\":9214:9345   */\n      tag_266\n        /* \"#utility.yul\":9340:9344   */\n      dup2\n        /* \"#utility.yul\":9214:9345   */\n      tag_130\n      jump\t// in\n    tag_266:\n        /* \"#utility.yul\":9206:9345   */\n      swap1\n      pop\n        /* \"#utility.yul\":8933:9352   */\n      swap2\n      swap1\n      pop\n      jump\t// out\n        /* \"#utility.yul\":9358:9538   */\n    tag_131:\n        /* \"#utility.yul\":9406:9483   */\n      0x4e487b7100000000000000000000000000000000000000000000000000000000\n        /* \"#utility.yul\":9403:9404   */\n      0x00\n        /* \"#utility.yul\":9396:9484   */\n      mstore\n        /* \"#utility.yul\":9503:9507   */\n      0x22\n        /* \"#utility.yul\":9500:9501   */\n      0x04\n        /* \"#utility.yul\":9493:9508   */\n      mstore\n        /* \"#utility.yul\":9527:9531   */\n      0x24\n        /* \"#utility.yul\":9524:9525   */\n      0x00\n        /* \"#utility.yul\":9517:9532   */\n      revert\n        /* \"#utility.yul\":9544:9864   */\n    tag_53:\n        /* \"#utility.yul\":9588:9594   */\n      0x00\n        /* \"#utility.yul\":9625:9626   */\n      0x02\n        /* \"#utility.yul\":9619:9623   */\n      dup3\n        /* \"#utility.yul\":9615:9627   */\n      div\n        /* \"#utility.yul\":9605:9627   */\n      swap1\n      pop\n        /* \"#utility.yul\":9672:9673   */\n      0x01\n        /* \"#utility.yul\":9666:9670   */\n      dup3\n        /* \"#utility.yul\":9662:9674   */\n      and\n        /* \"#utility.yul\":9693:9711   */\n      dup1\n        /* \"#utility.yul\":9683:9764   */\n      tag_269\n      jumpi\n        /* \"#utility.yul\":9749:9753   */\n      0x7f\n        /* \"#utility.yul\":9741:9747   */\n      dup3\n        /* \"#utility.yul\":9737:9754   */\n      and\n        /* \"#utility.yul\":9727:9754   */\n      swap2\n      pop\n        /* \"#utility.yul\":9683:9764   */\n    tag_269:\n        /* \"#utility.yul\":9811:9813   */\n      0x20\n        /* \"#utility.yul\":9803:9809   */\n      dup3\n        /* \"#utility.yul\":9800:9814   */\n      lt\n        /* \"#utility.yul\":9780:9798   */\n      dup2\n        /* \"#utility.yul\":9777:9815   */\n      sub\n        /* \"#utility.yul\":9774:9858   */\n      tag_270\n      jumpi\n        /* \"#utility.yul\":9830:9848   */\n      tag_271\n      tag_131\n      jump\t// in\n    tag_271:\n        /* \"#utility.yul\":9774:9858   */\n    tag_270:\n        /* \"#utility.yul\":9595:9864   */\n      pop\n        /* \"#utility.yul\":9544:9864   */\n      swap2\n      swap1\n      pop\n      jump\t// out\n        /* \"#utility.yul\":9870:10042   */\n    tag_132:\n        /* \"#utility.yul\":10010:10034   */\n      0x496e76616c69642073656e646572206164647265737300000000000000000000\n        /* \"#utility.yul\":10006:10007   */\n      0x00\n        /* \"#utility.yul\":9998:10004   */\n      dup3\n        /* \"#utility.yul\":9994:10008   */\n      add\n        /* \"#utility.yul\":9987:10035   */\n      mstore\n        /* \"#utility.yul\":9870:10042   */\n      pop\n      jump\t// out\n        /* \"#utility.yul\":10048:10414   */\n    tag_133:\n        /* \"#utility.yul\":10190:10193   */\n      0x00\n        /* \"#utility.yul\":10211:10278   */\n      tag_274\n        /* \"#utility.yul\":10275:10277   */\n      0x16\n        /* \"#utility.yul\":10270:10273   */\n      dup4\n        /* \"#utility.yul\":10211:10278   */\n      tag_110\n      jump\t// in\n    tag_274:\n        /* \"#utility.yul\":10204:10278   */\n      swap2\n      pop\n        /* \"#utility.yul\":10287:10380   */\n      tag_275\n        /* \"#utility.yul\":10376:10379   */\n      dup3\n        /* \"#utility.yul\":10287:10380   */\n      tag_132\n      jump\t// in\n    tag_275:\n        /* \"#utility.yul\":10405:10407   */\n      0x20\n        /* \"#utility.yul\":10400:10403   */\n      dup3\n        /* \"#utility.yul\":10396:10408   */\n      add\n        /* \"#utility.yul\":10389:10408   */\n      swap1\n      pop\n        /* \"#utility.yul\":10048:10414   */\n      swap2\n      swap1\n      pop\n      jump\t// out\n        /* \"#utility.yul\":10420:10839   */\n    tag_71:\n        /* \"#utility.yul\":10586:10590   */\n      0x00\n        /* \"#utility.yul\":10624:10626   */\n      0x20\n        /* \"#utility.yul\":10613:10622   */\n      dup3\n        /* \"#utility.yul\":10609:10627   */\n      add\n        /* \"#utility.yul\":10601:10627   */\n      swap1\n      pop\n        /* \"#utility.yul\":10673:10682   */\n      dup2\n        /* \"#utility.yul\":10667:10671   */\n      dup2\n        /* \"#utility.yul\":10663:10683   */\n      sub\n        /* \"#utility.yul\":10659:10660   */\n      0x00\n        /* \"#utility.yul\":10648:10657   */\n      dup4\n        /* \"#utility.yul\":10644:10661   */\n      add\n        /* \"#utility.yul\":10637:10684   */\n      mstore\n        /* \"#utility.yul\":10701:10832   */\n      tag_277\n        /* \"#utility.yul\":10827:10831   */\n      dup2\n        /* \"#utility.yul\":10701:10832   */\n      tag_133\n      jump\t// in\n    tag_277:\n        /* \"#utility.yul\":10693:10832   */\n      swap1\n      pop\n        /* \"#utility.yul\":10420:10839   */\n      swap2\n      swap1\n      pop\n      jump\t// out\n        /* \"#utility.yul\":10845:11017   */\n    tag_134:\n        /* \"#utility.yul\":10985:11009   */\n      0x546f6b656e20636f6e7472616374206e6f742073657400000000000000000000\n        /* \"#utility.yul\":10981:10982   */\n      0x00\n        /* \"#utility.yul\":10973:10979   */\n      dup3\n        /* \"#utility.yul\":10969:10983   */\n      add\n        /* \"#utility.yul\":10962:11010   */\n      mstore\n        /* \"#utility.yul\":10845:11017   */\n      pop\n      jump\t// out\n        /* \"#utility.yul\":11023:11389   */\n    tag_135:\n        /* \"#utility.yul\":11165:11168   */\n      0x00\n        /* \"#utility.yul\":11186:11253   */\n      tag_280\n        /* \"#utility.yul\":11250:11252   */\n      0x16\n        /* \"#utility.yul\":11245:11248   */\n      dup4\n        /* \"#utility.yul\":11186:11253   */\n      tag_110\n      jump\t// in\n    tag_280:\n        /* \"#utility.yul\":11179:11253   */\n      swap2\n      pop\n        /* \"#utility.yul\":11262:11355   */\n      tag_281\n        /* \"#utility.yul\":11351:11354   */\n      dup3\n        /* \"#utility.yul\":11262:11355   */\n      tag_134\n      jump\t// in\n    tag_281:\n        /* \"#utility.yul\":11380:11382   */\n      0x20\n        /* \"#utility.yul\":11375:11378   */\n      dup3\n        /* \"#utility.yul\":11371:11383   */\n      add\n        /* \"#utility.yul\":11364:11383   */\n      swap1\n      pop\n        /* \"#utility.yul\":11023:11389   */\n      swap2\n      swap1\n      pop\n      jump\t// out\n        /* \"#utility.yul\":11395:11814   */\n    tag_74:\n        /* \"#utility.yul\":11561:11565   */\n      0x00\n        /* \"#utility.yul\":11599:11601   */\n      0x20\n        /* \"#utility.yul\":11588:11597   */\n      dup3\n        /* \"#utility.yul\":11584:11602   */\n      add\n        /* \"#utility.yul\":11576:11602   */\n      swap1\n      pop\n        /* \"#utility.yul\":11648:11657   */\n      dup2\n        /* \"#utility.yul\":11642:11646   */\n      dup2\n        /* \"#utility.yul\":11638:11658   */\n      sub\n        /* \"#utility.yul\":11634:11635   */\n      0x00\n        /* \"#utility.yul\":11623:11632   */\n      dup4\n        /* \"#utility.yul\":11619:11636   */\n      add\n        /* \"#utility.yul\":11612:11659   */\n      mstore\n        /* \"#utility.yul\":11676:11807   */\n      tag_283\n        /* \"#utility.yul\":11802:11806   */\n      dup2\n        /* \"#utility.yul\":11676:11807   */\n      tag_135\n      jump\t// in\n    tag_283:\n        /* \"#utility.yul\":11668:11807   */\n      swap1\n      pop\n        /* \"#utility.yul\":11395:11814   */\n      swap2\n      swap1\n      pop\n      jump\t// out\n        /* \"#utility.yul\":11820:11963   */\n    tag_136:\n        /* \"#utility.yul\":11877:11882   */\n      0x00\n        /* \"#utility.yul\":11908:11914   */\n      dup2\n        /* \"#utility.yul\":11902:11915   */\n      mload\n        /* \"#utility.yul\":11893:11915   */\n      swap1\n      pop\n        /* \"#utility.yul\":11924:11957   */\n      tag_285\n        /* \"#utility.yul\":11951:11956   */\n      dup2\n        /* \"#utility.yul\":11924:11957   */\n      tag_122\n      jump\t// in\n    tag_285:\n        /* \"#utility.yul\":11820:11963   */\n      swap3\n      swap2\n      pop\n      pop\n      jump\t// out\n        /* \"#utility.yul\":11969:12320   */\n    tag_79:\n        /* \"#utility.yul\":12039:12045   */\n      0x00\n        /* \"#utility.yul\":12088:12090   */\n      0x20\n        /* \"#utility.yul\":12076:12085   */\n      dup3\n        /* \"#utility.yul\":12067:12074   */\n      dup5\n        /* \"#utility.yul\":12063:12086   */\n      sub\n        /* \"#utility.yul\":12059:12091   */\n      slt\n        /* \"#utility.yul\":12056:12175   */\n      iszero\n      tag_287\n      jumpi\n        /* \"#utility.yul\":12094:12173   */\n      tag_288\n      tag_105\n      jump\t// in\n    tag_288:\n        /* \"#utility.yul\":12056:12175   */\n    tag_287:\n        /* \"#utility.yul\":12214:12215   */\n      0x00\n        /* \"#utility.yul\":12239:12303   */\n      tag_289\n        /* \"#utility.yul\":12295:12302   */\n      dup5\n        /* \"#utility.yul\":12286:12292   */\n      dup3\n        /* \"#utility.yul\":12275:12284   */\n      dup6\n        /* \"#utility.yul\":12271:12293   */\n      add\n        /* \"#utility.yul\":12239:12303   */\n      tag_136\n      jump\t// in\n    tag_289:\n        /* \"#utility.yul\":12229:12303   */\n      swap2\n      pop\n        /* \"#utility.yul\":12185:12313   */\n      pop\n        /* \"#utility.yul\":11969:12320   */\n      swap3\n      swap2\n      pop\n      pop\n      jump\t// out\n        /* \"#utility.yul\":12326:12503   */\n    tag_137:\n        /* \"#utility.yul\":12466:12495   */\n      0x496e73756666696369656e7420746f6b656e7320746f20766f74650000000000\n        /* \"#utility.yul\":12462:12463   */\n      0x00\n        /* \"#utility.yul\":12454:12460   */\n      dup3\n        /* \"#utility.yul\":12450:12464   */\n      add\n        /* \"#utility.yul\":12443:12496   */\n      mstore\n        /* \"#utility.yul\":12326:12503   */\n      pop\n      jump\t// out\n        /* \"#utility.yul\":12509:12875   */\n    tag_138:\n        /* \"#utility.yul\":12651:12654   */\n      0x00\n        /* \"#utility.yul\":12672:12739   */\n      tag_292\n        /* \"#utility.yul\":12736:12738   */\n      0x1b\n        /* \"#utility.yul\":12731:12734   */\n      dup4\n        /* \"#utility.yul\":12672:12739   */\n      tag_110\n      jump\t// in\n    tag_292:\n        /* \"#utility.yul\":12665:12739   */\n      swap2\n      pop\n        /* \"#utility.yul\":12748:12841   */\n      tag_293\n        /* \"#utility.yul\":12837:12840   */\n      dup3\n        /* \"#utility.yul\":12748:12841   */\n      tag_137\n      jump\t// in\n    tag_293:\n        /* \"#utility.yul\":12866:12868   */\n      0x20\n        /* \"#utility.yul\":12861:12864   */\n      dup3\n        /* \"#utility.yul\":12857:12869   */\n      add\n        /* \"#utility.yul\":12850:12869   */\n      swap1\n      pop\n        /* \"#utility.yul\":12509:12875   */\n      swap2\n      swap1\n      pop\n      jump\t// out\n        /* \"#utility.yul\":12881:13300   */\n    tag_82:\n        /* \"#utility.yul\":13047:13051   */\n      0x00\n        /* \"#utility.yul\":13085:13087   */\n      0x20\n        /* \"#utility.yul\":13074:13083   */\n      dup3\n        /* \"#utility.yul\":13070:13088   */\n      add\n        /* \"#utility.yul\":13062:13088   */\n      swap1\n      pop\n        /* \"#utility.yul\":13134:13143   */\n      dup2\n        /* \"#utility.yul\":13128:13132   */\n      dup2\n        /* \"#utility.yul\":13124:13144   */\n      sub\n        /* \"#utility.yul\":13120:13121   */\n      0x00\n        /* \"#utility.yul\":13109:13118   */\n      dup4\n        /* \"#utility.yul\":13105:13122   */\n      add\n        /* \"#utility.yul\":13098:13145   */\n      mstore\n        /* \"#utility.yul\":13162:13293   */\n      tag_295\n        /* \"#utility.yul\":13288:13292   */\n      dup2\n        /* \"#utility.yul\":13162:13293   */\n      tag_138\n      jump\t// in\n    tag_295:\n        /* \"#utility.yul\":13154:13293   */\n      swap1\n      pop\n        /* \"#utility.yul\":12881:13300   */\n      swap2\n      swap1\n      pop\n      jump\t// out\n        /* \"#utility.yul\":13306:13391   */\n    tag_139:\n        /* \"#utility.yul\":13351:13358   */\n      0x00\n        /* \"#utility.yul\":13380:13385   */\n      dup2\n        /* \"#utility.yul\":13369:13385   */\n      swap1\n      pop\n        /* \"#utility.yul\":13306:13391   */\n      swap2\n      swap1\n      pop\n      jump\t// out\n        /* \"#utility.yul\":13397:13555   */\n    tag_140:\n        /* \"#utility.yul\":13455:13464   */\n      0x00\n        /* \"#utility.yul\":13488:13549   */\n      tag_298\n        /* \"#utility.yul\":13506:13548   */\n      tag_299\n        /* \"#utility.yul\":13515:13547   */\n      tag_300\n        /* \"#utility.yul\":13541:13546   */\n      dup5\n        /* \"#utility.yul\":13515:13547   */\n      tag_139\n      jump\t// in\n    tag_300:\n        /* \"#utility.yul\":13506:13548   */\n      tag_99\n      jump\t// in\n    tag_299:\n        /* \"#utility.yul\":13488:13549   */\n      tag_117\n      jump\t// in\n    tag_298:\n        /* \"#utility.yul\":13475:13549   */\n      swap1\n      pop\n        /* \"#utility.yul\":13397:13555   */\n      swap2\n      swap1\n      pop\n      jump\t// out\n        /* \"#utility.yul\":13561:13708   */\n    tag_141:\n        /* \"#utility.yul\":13656:13701   */\n      tag_302\n        /* \"#utility.yul\":13695:13700   */\n      dup2\n        /* \"#utility.yul\":13656:13701   */\n      tag_140\n      jump\t// in\n    tag_302:\n        /* \"#utility.yul\":13651:13654   */\n      dup3\n        /* \"#utility.yul\":13644:13702   */\n      mstore\n        /* \"#utility.yul\":13561:13708   */\n      pop\n      pop\n      jump\t// out\n        /* \"#utility.yul\":13714:14172   */\n    tag_84:\n        /* \"#utility.yul\":13871:13875   */\n      0x00\n        /* \"#utility.yul\":13909:13911   */\n      0x60\n        /* \"#utility.yul\":13898:13907   */\n      dup3\n        /* \"#utility.yul\":13894:13912   */\n      add\n        /* \"#utility.yul\":13886:13912   */\n      swap1\n      pop\n        /* \"#utility.yul\":13922:13993   */\n      tag_304\n        /* \"#utility.yul\":13990:13991   */\n      0x00\n        /* \"#utility.yul\":13979:13988   */\n      dup4\n        /* \"#utility.yul\":13975:13992   */\n      add\n        /* \"#utility.yul\":13966:13972   */\n      dup7\n        /* \"#utility.yul\":13922:13993   */\n      tag_98\n      jump\t// in\n    tag_304:\n        /* \"#utility.yul\":14003:14075   */\n      tag_305\n        /* \"#utility.yul\":14071:14073   */\n      0x20\n        /* \"#utility.yul\":14060:14069   */\n      dup4\n        /* \"#utility.yul\":14056:14074   */\n      add\n        /* \"#utility.yul\":14047:14053   */\n      dup6\n        /* \"#utility.yul\":14003:14075   */\n      tag_98\n      jump\t// in\n    tag_305:\n        /* \"#utility.yul\":14085:14165   */\n      tag_306\n        /* \"#utility.yul\":14161:14163   */\n      0x40\n        /* \"#utility.yul\":14150:14159   */\n      dup4\n        /* \"#utility.yul\":14146:14164   */\n      add\n        /* \"#utility.yul\":14137:14143   */\n      dup5\n        /* \"#utility.yul\":14085:14165   */\n      tag_141\n      jump\t// in\n    tag_306:\n        /* \"#utility.yul\":13714:14172   */\n      swap5\n      swap4\n      pop\n      pop\n      pop\n      pop\n      jump\t// out\n        /* \"#utility.yul\":14178:14268   */\n    tag_142:\n        /* \"#utility.yul\":14212:14219   */\n      0x00\n        /* \"#utility.yul\":14255:14260   */\n      dup2\n        /* \"#utility.yul\":14248:14261   */\n      iszero\n        /* \"#utility.yul\":14241:14262   */\n      iszero\n        /* \"#utility.yul\":14230:14262   */\n      swap1\n      pop\n        /* \"#utility.yul\":14178:14268   */\n      swap2\n      swap1\n      pop\n      jump\t// out\n        /* \"#utility.yul\":14274:14390   */\n    tag_143:\n        /* \"#utility.yul\":14344:14365   */\n      tag_309\n        /* \"#utility.yul\":14359:14364   */\n      dup2\n        /* \"#utility.yul\":14344:14365   */\n      tag_142\n      jump\t// in\n    tag_309:\n        /* \"#utility.yul\":14337:14342   */\n      dup2\n        /* \"#utility.yul\":14334:14366   */\n      eq\n        /* \"#utility.yul\":14324:14384   */\n      tag_310\n      jumpi\n        /* \"#utility.yul\":14380:14381   */\n      0x00\n        /* \"#utility.yul\":14377:14378   */\n      dup1\n        /* \"#utility.yul\":14370:14382   */\n      revert\n        /* \"#utility.yul\":14324:14384   */\n    tag_310:\n        /* \"#utility.yul\":14274:14390   */\n      pop\n      jump\t// out\n        /* \"#utility.yul\":14396:14533   */\n    tag_144:\n        /* \"#utility.yul\":14450:14455   */\n      0x00\n        /* \"#utility.yul\":14481:14487   */\n      dup2\n        /* \"#utility.yul\":14475:14488   */\n      mload\n        /* \"#utility.yul\":14466:14488   */\n      swap1\n      pop\n        /* \"#utility.yul\":14497:14527   */\n      tag_312\n        /* \"#utility.yul\":14521:14526   */\n      dup2\n        /* \"#utility.yul\":14497:14527   */\n      tag_143\n      jump\t// in\n    tag_312:\n        /* \"#utility.yul\":14396:14533   */\n      swap3\n      swap2\n      pop\n      pop\n      jump\t// out\n        /* \"#utility.yul\":14539:14884   */\n    tag_88:\n        /* \"#utility.yul\":14606:14612   */\n      0x00\n        /* \"#utility.yul\":14655:14657   */\n      0x20\n        /* \"#utility.yul\":14643:14652   */\n      dup3\n        /* \"#utility.yul\":14634:14641   */\n      dup5\n        /* \"#utility.yul\":14630:14653   */\n      sub\n        /* \"#utility.yul\":14626:14658   */\n      slt\n        /* \"#utility.yul\":14623:14742   */\n      iszero\n      tag_314\n      jumpi\n        /* \"#utility.yul\":14661:14740   */\n      tag_315\n      tag_105\n      jump\t// in\n    tag_315:\n        /* \"#utility.yul\":14623:14742   */\n    tag_314:\n        /* \"#utility.yul\":14781:14782   */\n      0x00\n        /* \"#utility.yul\":14806:14867   */\n      tag_316\n        /* \"#utility.yul\":14859:14866   */\n      dup5\n        /* \"#utility.yul\":14850:14856   */\n      dup3\n        /* \"#utility.yul\":14839:14848   */\n      dup6\n        /* \"#utility.yul\":14835:14857   */\n      add\n        /* \"#utility.yul\":14806:14867   */\n      tag_144\n      jump\t// in\n    tag_316:\n        /* \"#utility.yul\":14796:14867   */\n      swap2\n      pop\n        /* \"#utility.yul\":14752:14877   */\n      pop\n        /* \"#utility.yul\":14539:14884   */\n      swap3\n      swap2\n      pop\n      pop\n      jump\t// out\n        /* \"#utility.yul\":14890:15061   */\n    tag_145:\n        /* \"#utility.yul\":15030:15053   */\n      0x546f6b656e207472616e73666572206661696c65640000000000000000000000\n        /* \"#utility.yul\":15026:15027   */\n      0x00\n        /* \"#utility.yul\":15018:15024   */\n      dup3\n        /* \"#utility.yul\":15014:15028   */\n      add\n        /* \"#utility.yul\":15007:15054   */\n      mstore\n        /* \"#utility.yul\":14890:15061   */\n      pop\n      jump\t// out\n        /* \"#utility.yul\":15067:15433   */\n    tag_146:\n        /* \"#utility.yul\":15209:15212   */\n      0x00\n        /* \"#utility.yul\":15230:15297   */\n      tag_319\n        /* \"#utility.yul\":15294:15296   */\n      0x15\n        /* \"#utility.yul\":15289:15292   */\n      dup4\n        /* \"#utility.yul\":15230:15297   */\n      tag_110\n      jump\t// in\n    tag_319:\n        /* \"#utility.yul\":15223:15297   */\n      swap2\n      pop\n        /* \"#utility.yul\":15306:15399   */\n      tag_320\n        /* \"#utility.yul\":15395:15398   */\n      dup3\n        /* \"#utility.yul\":15306:15399   */\n      tag_145\n      jump\t// in\n    tag_320:\n        /* \"#utility.yul\":15424:15426   */\n      0x20\n        /* \"#utility.yul\":15419:15422   */\n      dup3\n        /* \"#utility.yul\":15415:15427   */\n      add\n        /* \"#utility.yul\":15408:15427   */\n      swap1\n      pop\n        /* \"#utility.yul\":15067:15433   */\n      swap2\n      swap1\n      pop\n      jump\t// out\n        /* \"#utility.yul\":15439:15858   */\n    tag_91:\n        /* \"#utility.yul\":15605:15609   */\n      0x00\n        /* \"#utility.yul\":15643:15645   */\n      0x20\n        /* \"#utility.yul\":15632:15641   */\n      dup3\n        /* \"#utility.yul\":15628:15646   */\n      add\n        /* \"#utility.yul\":15620:15646   */\n      swap1\n      pop\n        /* \"#utility.yul\":15692:15701   */\n      dup2\n        /* \"#utility.yul\":15686:15690   */\n      dup2\n        /* \"#utility.yul\":15682:15702   */\n      sub\n        /* \"#utility.yul\":15678:15679   */\n      0x00\n        /* \"#utility.yul\":15667:15676   */\n      dup4\n        /* \"#utility.yul\":15663:15680   */\n      add\n        /* \"#utility.yul\":15656:15703   */\n      mstore\n        /* \"#utility.yul\":15720:15851   */\n      tag_322\n        /* \"#utility.yul\":15846:15850   */\n      dup2\n        /* \"#utility.yul\":15720:15851   */\n      tag_146\n      jump\t// in\n    tag_322:\n        /* \"#utility.yul\":15712:15851   */\n      swap1\n      pop\n        /* \"#utility.yul\":15439:15858   */\n      swap2\n      swap1\n      pop\n      jump\t// out\n        /* \"#utility.yul\":15864:15961   */\n    tag_147:\n        /* \"#utility.yul\":15923:15929   */\n      0x00\n        /* \"#utility.yul\":15951:15954   */\n      dup3\n        /* \"#utility.yul\":15941:15954   */\n      swap1\n      pop\n        /* \"#utility.yul\":15864:15961   */\n      swap3\n      swap2\n      pop\n      pop\n      jump\t// out\n        /* \"#utility.yul\":15967:16147   */\n    tag_148:\n        /* \"#utility.yul\":16015:16092   */\n      0x4e487b7100000000000000000000000000000000000000000000000000000000\n        /* \"#utility.yul\":16012:16013   */\n      0x00\n        /* \"#utility.yul\":16005:16093   */\n      mstore\n        /* \"#utility.yul\":16112:16116   */\n      0x41\n        /* \"#utility.yul\":16109:16110   */\n      0x04\n        /* \"#utility.yul\":16102:16117   */\n      mstore\n        /* \"#utility.yul\":16136:16140   */\n      0x24\n        /* \"#utility.yul\":16133:16134   */\n      0x00\n        /* \"#utility.yul\":16126:16141   */\n      revert\n        /* \"#utility.yul\":16153:16294   */\n    tag_149:\n        /* \"#utility.yul\":16202:16206   */\n      0x00\n        /* \"#utility.yul\":16225:16228   */\n      dup2\n        /* \"#utility.yul\":16217:16228   */\n      swap1\n      pop\n        /* \"#utility.yul\":16248:16251   */\n      dup2\n        /* \"#utility.yul\":16245:16246   */\n      0x00\n        /* \"#utility.yul\":16238:16252   */\n      mstore\n        /* \"#utility.yul\":16282:16286   */\n      0x20\n        /* \"#utility.yul\":16279:16280   */\n      0x00\n        /* \"#utility.yul\":16269:16287   */\n      keccak256\n        /* \"#utility.yul\":16261:16287   */\n      swap1\n      pop\n        /* \"#utility.yul\":16153:16294   */\n      swap2\n      swap1\n      pop\n      jump\t// out\n        /* \"#utility.yul\":16300:16393   */\n    tag_150:\n        /* \"#utility.yul\":16337:16343   */\n      0x00\n        /* \"#utility.yul\":16384:16386   */\n      0x20\n        /* \"#utility.yul\":16379:16381   */\n      0x1f\n        /* \"#utility.yul\":16372:16377   */\n      dup4\n        /* \"#utility.yul\":16368:16382   */\n      add\n        /* \"#utility.yul\":16364:16387   */\n      div\n        /* \"#utility.yul\":16354:16387   */\n      swap1\n      pop\n        /* \"#utility.yul\":16300:16393   */\n      swap2\n      swap1\n      pop\n      jump\t// out\n        /* \"#utility.yul\":16399:16506   */\n    tag_151:\n        /* \"#utility.yul\":16443:16451   */\n      0x00\n        /* \"#utility.yul\":16493:16498   */\n      dup3\n        /* \"#utility.yul\":16487:16491   */\n      dup3\n        /* \"#utility.yul\":16483:16499   */\n      shl\n        /* \"#utility.yul\":16462:16499   */\n      swap1\n      pop\n        /* \"#utility.yul\":16399:16506   */\n      swap3\n      swap2\n      pop\n      pop\n      jump\t// out\n        /* \"#utility.yul\":16512:16905   */\n    tag_152:\n        /* \"#utility.yul\":16581:16587   */\n      0x00\n        /* \"#utility.yul\":16631:16632   */\n      0x08\n        /* \"#utility.yul\":16619:16629   */\n      dup4\n        /* \"#utility.yul\":16615:16633   */\n      mul\n        /* \"#utility.yul\":16654:16751   */\n      tag_329\n        /* \"#utility.yul\":16684:16750   */\n      0xffffffffffffffffffffffffffffffffffffffffffffffffffffffffffffffff\n        /* \"#utility.yul\":16673:16682   */\n      dup3\n        /* \"#utility.yul\":16654:16751   */\n      tag_151\n      jump\t// in\n    tag_329:\n        /* \"#utility.yul\":16772:16811   */\n      tag_330\n        /* \"#utility.yul\":16802:16810   */\n      dup7\n        /* \"#utility.yul\":16791:16800   */\n      dup4\n        /* \"#utility.yul\":16772:16811   */\n      tag_151\n      jump\t// in\n    tag_330:\n        /* \"#utility.yul\":16760:16811   */\n      swap6\n      pop\n        /* \"#utility.yul\":16844:16848   */\n      dup1\n        /* \"#utility.yul\":16840:16849   */\n      not\n        /* \"#utility.yul\":16833:16838   */\n      dup5\n        /* \"#utility.yul\":16829:16850   */\n      and\n        /* \"#utility.yul\":16820:16850   */\n      swap4\n      pop\n        /* \"#utility.yul\":16893:16897   */\n      dup1\n        /* \"#utility.yul\":16883:16891   */\n      dup7\n        /* \"#utility.yul\":16879:16898   */\n      and\n        /* \"#utility.yul\":16872:16877   */\n      dup5\n        /* \"#utility.yul\":16869:16899   */\n      or\n        /* \"#utility.yul\":16859:16899   */\n      swap3\n      pop\n        /* \"#utility.yul\":16588:16905   */\n      pop\n      pop\n        /* \"#utility.yul\":16512:16905   */\n      swap4\n      swap3\n      pop\n      pop\n      pop\n      jump\t// out\n        /* \"#utility.yul\":16911:17053   */\n    tag_153:\n        /* \"#utility.yul\":16961:16970   */\n      0x00\n        /* \"#utility.yul\":16994:17047   */\n      tag_332\n        /* \"#utility.yul\":17012:17046   */\n      tag_333\n        /* \"#utility.yul\":17021:17045   */\n      tag_334\n        /* \"#utility.yul\":17039:17044   */\n      dup5\n        /* \"#utility.yul\":17021:17045   */\n      tag_117\n      jump\t// in\n    tag_334:\n        /* \"#utility.yul\":17012:17046   */\n      tag_99\n      jump\t// in\n    tag_333:\n        /* \"#utility.yul\":16994:17047   */\n      tag_117\n      jump\t// in\n    tag_332:\n        /* \"#utility.yul\":16981:17047   */\n      swap1\n      pop\n        /* \"#utility.yul\":16911:17053   */\n      swap2\n      swap1\n      pop\n      jump\t// out\n        /* \"#utility.yul\":17059:17134   */\n    tag_154:\n        /* \"#utility.yul\":17102:17105   */\n      0x00\n        /* \"#utility.yul\":17123:17128   */\n      dup2\n        /* \"#utility.yul\":17116:17128   */\n      swap1\n      pop\n        /* \"#utility.yul\":17059:17134   */\n      swap2\n      swap1\n      pop\n      jump\t// out\n        /* \"#utility.yul\":17140:17409   */\n    tag_155:\n        /* \"#utility.yul\":17250:17289   */\n      tag_337\n        /* \"#utility.yul\":17281:17288   */\n      dup4\n        /* \"#utility.yul\":17250:17289   */\n      tag_153\n      jump\t// in\n    tag_337:\n        /* \"#utility.yul\":17311:17402   */\n      tag_338\n        /* \"#utility.yul\":17360:17401   */\n      tag_339\n        /* \"#utility.yul\":17384:17400   */\n      dup3\n        /* \"#utility.yul\":17360:17401   */\n      tag_154\n      jump\t// in\n    tag_339:\n        /* \"#utility.yul\":17352:17358   */\n      dup5\n        /* \"#utility.yul\":17345:17349   */\n      dup5\n        /* \"#utility.yul\":17339:17350   */\n      sload\n        /* \"#utility.yul\":17311:17402   */\n      tag_152\n      jump\t// in\n    tag_338:\n        /* \"#utility.yul\":17305:17309   */\n      dup3\n        /* \"#utility.yul\":17298:17403   */\n      sstore\n        /* \"#utility.yul\":17216:17409   */\n      pop\n        /* \"#utility.yul\":17140:17409   */\n      pop\n      pop\n      pop\n      jump\t// out\n        /* \"#utility.yul\":17415:17488   */\n    tag_156:\n        /* \"#utility.yul\":17460:17463   */\n      0x00\n        /* \"#utility.yul\":17415:17488   */\n      swap1\n      jump\t// out\n        /* \"#utility.yul\":17494:17683   */\n    tag_157:\n        /* \"#utility.yul\":17571:17603   */\n      tag_342\n      tag_156\n      jump\t// in\n    tag_342:\n        /* \"#utility.yul\":17612:17677   */\n      tag_343\n        /* \"#utility.yul\":17670:17676   */\n      dup2\n        /* \"#utility.yul\":17662:17668   */\n      dup5\n        /* \"#utility.yul\":17656:17660   */\n      dup5\n        /* \"#utility.yul\":17612:17677   */\n      tag_155\n      jump\t// in\n    tag_343:\n        /* \"#utility.yul\":17547:17683   */\n      pop\n        /* \"#utility.yul\":17494:17683   */\n      pop\n      pop\n      jump\t// out\n        /* \"#utility.yul\":17689:17875   */\n    tag_158:\n        /* \"#utility.yul\":17749:17869   */\n    tag_345:\n        /* \"#utility.yul\":17766:17769   */\n      dup2\n        /* \"#utility.yul\":17759:17764   */\n      dup2\n        /* \"#utility.yul\":17756:17770   */\n      lt\n        /* \"#utility.yul\":17749:17869   */\n      iszero\n      tag_347\n      jumpi\n        /* \"#utility.yul\":17820:17859   */\n      tag_348\n        /* \"#utility.yul\":17857:17858   */\n      0x00\n        /* \"#utility.yul\":17850:17855   */\n      dup3\n        /* \"#utility.yul\":17820:17859   */\n      tag_157\n      jump\t// in\n    tag_348:\n        /* \"#utility.yul\":17793:17794   */\n      0x01\n        /* \"#utility.yul\":17786:17791   */\n      dup2\n        /* \"#utility.yul\":17782:17795   */\n      add\n        /* \"#utility.yul\":17773:17795   */\n      swap1\n      pop\n        /* \"#utility.yul\":17749:17869   */\n      jump(tag_345)\n    tag_347:\n        /* \"#utility.yul\":17689:17875   */\n      pop\n      pop\n      jump\t// out\n        /* \"#utility.yul\":17881:18424   */\n    tag_159:\n        /* \"#utility.yul\":17982:17984   */\n      0x1f\n        /* \"#utility.yul\":17977:17980   */\n      dup3\n        /* \"#utility.yul\":17974:17985   */\n      gt\n        /* \"#utility.yul\":17971:18417   */\n      iszero\n      tag_350\n      jumpi\n        /* \"#utility.yul\":18016:18054   */\n      tag_351\n        /* \"#utility.yul\":18048:18053   */\n      dup2\n        /* \"#utility.yul\":18016:18054   */\n      tag_149\n      jump\t// in\n    tag_351:\n        /* \"#utility.yul\":18100:18129   */\n      tag_352\n        /* \"#utility.yul\":18118:18128   */\n      dup5\n        /* \"#utility.yul\":18100:18129   */\n      tag_150\n      jump\t// in\n    tag_352:\n        /* \"#utility.yul\":18090:18098   */\n      dup2\n        /* \"#utility.yul\":18086:18130   */\n      add\n        /* \"#utility.yul\":18283:18285   */\n      0x20\n        /* \"#utility.yul\":18271:18281   */\n      dup6\n        /* \"#utility.yul\":18268:18286   */\n      lt\n        /* \"#utility.yul\":18265:18314   */\n      iszero\n      tag_353\n      jumpi\n        /* \"#utility.yul\":18304:18312   */\n      dup2\n        /* \"#utility.yul\":18289:18312   */\n      swap1\n      pop\n        /* \"#utility.yul\":18265:18314   */\n    tag_353:\n        /* \"#utility.yul\":18327:18407   */\n      tag_354\n        /* \"#utility.yul\":18383:18405   */\n      tag_355\n        /* \"#utility.yul\":18401:18404   */\n      dup6\n        /* \"#utility.yul\":18383:18405   */\n      tag_150\n      jump\t// in\n    tag_355:\n        /* \"#utility.yul\":18373:18381   */\n      dup4\n        /* \"#utility.yul\":18369:18406   */\n      add\n        /* \"#utility.yul\":18356:18367   */\n      dup3\n        /* \"#utility.yul\":18327:18407   */\n      tag_158\n      jump\t// in\n    tag_354:\n        /* \"#utility.yul\":17986:18417   */\n      pop\n      pop\n        /* \"#utility.yul\":17971:18417   */\n    tag_350:\n        /* \"#utility.yul\":17881:18424   */\n      pop\n      pop\n      pop\n      jump\t// out\n        /* \"#utility.yul\":18430:18547   */\n    tag_160:\n        /* \"#utility.yul\":18484:18492   */\n      0x00\n        /* \"#utility.yul\":18534:18539   */\n      dup3\n        /* \"#utility.yul\":18528:18532   */\n      dup3\n        /* \"#utility.yul\":18524:18540   */\n      shr\n        /* \"#utility.yul\":18503:18540   */\n      swap1\n      pop\n        /* \"#utility.yul\":18430:18547   */\n      swap3\n      swap2\n      pop\n      pop\n      jump\t// out\n        /* \"#utility.yul\":18553:18722   */\n    tag_161:\n        /* \"#utility.yul\":18597:18603   */\n      0x00\n        /* \"#utility.yul\":18630:18681   */\n      tag_358\n        /* \"#utility.yul\":18678:18679   */\n      0x00\n        /* \"#utility.yul\":18674:18680   */\n      not\n        /* \"#utility.yul\":18666:18671   */\n      dup5\n        /* \"#utility.yul\":18663:18664   */\n      0x08\n        /* \"#utility.yul\":18659:18672   */\n      mul\n        /* \"#utility.yul\":18630:18681   */\n      tag_160\n      jump\t// in\n    tag_358:\n        /* \"#utility.yul\":18626:18682   */\n      not\n        /* \"#utility.yul\":18711:18715   */\n      dup1\n        /* \"#utility.yul\":18705:18709   */\n      dup4\n        /* \"#utility.yul\":18701:18716   */\n      and\n        /* \"#utility.yul\":18691:18716   */\n      swap2\n      pop\n        /* \"#utility.yul\":18604:18722   */\n      pop\n        /* \"#utility.yul\":18553:18722   */\n      swap3\n      swap2\n      pop\n      pop\n      jump\t// out\n        /* \"#utility.yul\":18727:19022   */\n    tag_162:\n        /* \"#utility.yul\":18803:18807   */\n      0x00\n        /* \"#utility.yul\":18949:18978   */\n      tag_360\n        /* \"#utility.yul\":18974:18977   */\n      dup4\n        /* \"#utility.yul\":18968:18972   */\n      dup4\n        /* \"#utility.yul\":18949:18978   */\n      tag_161\n      jump\t// in\n    tag_360:\n        /* \"#utility.yul\":18941:18978   */\n      swap2\n      pop\n        /* \"#utility.yul\":19011:19014   */\n      dup3\n        /* \"#utility.yul\":19008:19009   */\n      0x02\n        /* \"#utility.yul\":19004:19015   */\n      mul\n        /* \"#utility.yul\":18998:19002   */\n      dup3\n        /* \"#utility.yul\":18995:19016   */\n      or\n        /* \"#utility.yul\":18987:19016   */\n      swap1\n      pop\n        /* \"#utility.yul\":18727:19022   */\n      swap3\n      swap2\n      pop\n      pop\n      jump\t// out\n        /* \"#utility.yul\":19027:20430   */\n    tag_93:\n        /* \"#utility.yul\":19151:19195   */\n      tag_362\n        /* \"#utility.yul\":19191:19194   */\n      dup4\n        /* \"#utility.yul\":19186:19189   */\n      dup4\n        /* \"#utility.yul\":19151:19195   */\n      tag_147\n      jump\t// in\n    tag_362:\n        /* \"#utility.yul\":19260:19278   */\n      0xffffffffffffffff\n        /* \"#utility.yul\":19252:19258   */\n      dup2\n        /* \"#utility.yul\":19249:19279   */\n      gt\n        /* \"#utility.yul\":19246:19302   */\n      iszero\n      tag_363\n      jumpi\n        /* \"#utility.yul\":19282:19300   */\n      tag_364\n      tag_148\n      jump\t// in\n    tag_364:\n        /* \"#utility.yul\":19246:19302   */\n    tag_363:\n        /* \"#utility.yul\":19326:19364   */\n      tag_365\n        /* \"#utility.yul\":19358:19362   */\n      dup3\n        /* \"#utility.yul\":19352:19363   */\n      sload\n        /* \"#utility.yul\":19326:19364   */\n      tag_53\n      jump\t// in\n    tag_365:\n        /* \"#utility.yul\":19411:19478   */\n      tag_366\n        /* \"#utility.yul\":19471:19477   */\n      dup3\n        /* \"#utility.yul\":19463:19469   */\n      dup3\n        /* \"#utility.yul\":19457:19461   */\n      dup6\n        /* \"#utility.yul\":19411:19478   */\n      tag_159\n      jump\t// in\n    tag_366:\n        /* \"#utility.yul\":19505:19506   */\n      0x00\n        /* \"#utility.yul\":19534:19536   */\n      0x1f\n        /* \"#utility.yul\":19526:19532   */\n      dup4\n        /* \"#utility.yul\":19523:19537   */\n      gt\n        /* \"#utility.yul\":19551:19552   */\n      0x01\n        /* \"#utility.yul\":19546:20178   */\n      dup2\n      eq\n      tag_368\n      jumpi\n        /* \"#utility.yul\":20222:20223   */\n      0x00\n        /* \"#utility.yul\":20239:20245   */\n      dup5\n        /* \"#utility.yul\":20236:20320   */\n      iszero\n      tag_369\n      jumpi\n        /* \"#utility.yul\":20295:20304   */\n      dup3\n        /* \"#utility.yul\":20290:20293   */\n      dup8\n        /* \"#utility.yul\":20286:20305   */\n      add\n        /* \"#utility.yul\":20273:20306   */\n      calldataload\n        /* \"#utility.yul\":20264:20306   */\n      swap1\n      pop\n        /* \"#utility.yul\":20236:20320   */\n    tag_369:\n        /* \"#utility.yul\":20346:20413   */\n      tag_370\n        /* \"#utility.yul\":20406:20412   */\n      dup6\n        /* \"#utility.yul\":20399:20404   */\n      dup3\n        /* \"#utility.yul\":20346:20413   */\n      tag_162\n      jump\t// in\n    tag_370:\n        /* \"#utility.yul\":20340:20344   */\n      dup7\n        /* \"#utility.yul\":20333:20414   */\n      sstore\n        /* \"#utility.yul\":20195:20424   */\n      pop\n        /* \"#utility.yul\":19516:20424   */\n      jump(tag_367)\n        /* \"#utility.yul\":19546:20178   */\n    tag_368:\n        /* \"#utility.yul\":19598:19602   */\n      0x1f\n        /* \"#utility.yul\":19594:19603   */\n      not\n        /* \"#utility.yul\":19586:19592   */\n      dup5\n        /* \"#utility.yul\":19582:19604   */\n      and\n        /* \"#utility.yul\":19632:19669   */\n      tag_371\n        /* \"#utility.yul\":19664:19668   */\n      dup7\n        /* \"#utility.yul\":19632:19669   */\n      tag_149\n      jump\t// in\n    tag_371:\n        /* \"#utility.yul\":19691:19692   */\n      0x00\n        /* \"#utility.yul\":19705:19920   */\n    tag_372:\n        /* \"#utility.yul\":19719:19726   */\n      dup3\n        /* \"#utility.yul\":19716:19717   */\n      dup2\n        /* \"#utility.yul\":19713:19727   */\n      lt\n        /* \"#utility.yul\":19705:19920   */\n      iszero\n      tag_374\n      jumpi\n        /* \"#utility.yul\":19805:19814   */\n      dup5\n        /* \"#utility.yul\":19800:19803   */\n      dup10\n        /* \"#utility.yul\":19796:19815   */\n      add\n        /* \"#utility.yul\":19783:19816   */\n      calldataload\n        /* \"#utility.yul\":19775:19781   */\n      dup3\n        /* \"#utility.yul\":19768:19817   */\n      sstore\n        /* \"#utility.yul\":19856:19857   */\n      0x01\n        /* \"#utility.yul\":19848:19854   */\n      dup3\n        /* \"#utility.yul\":19844:19858   */\n      add\n        /* \"#utility.yul\":19834:19858   */\n      swap2\n      pop\n        /* \"#utility.yul\":19903:19905   */\n      0x20\n        /* \"#utility.yul\":19892:19901   */\n      dup6\n        /* \"#utility.yul\":19888:19906   */\n      add\n        /* \"#utility.yul\":19875:19906   */\n      swap5\n      pop\n        /* \"#utility.yul\":19742:19746   */\n      0x20\n        /* \"#utility.yul\":19739:19740   */\n      dup2\n        /* \"#utility.yul\":19735:19747   */\n      add\n        /* \"#utility.yul\":19730:19747   */\n      swap1\n      pop\n        /* \"#utility.yul\":19705:19920   */\n      jump(tag_372)\n    tag_374:\n        /* \"#utility.yul\":19948:19954   */\n      dup7\n        /* \"#utility.yul\":19939:19946   */\n      dup4\n        /* \"#utility.yul\":19936:19955   */\n      lt\n        /* \"#utility.yul\":19933:20119   */\n      iszero\n      tag_375\n      jumpi\n        /* \"#utility.yul\":20013:20022   */\n      dup5\n        /* \"#utility.yul\":20008:20011   */\n      dup10\n        /* \"#utility.yul\":20004:20023   */\n      add\n        /* \"#utility.yul\":19991:20024   */\n      calldataload\n        /* \"#utility.yul\":20056:20104   */\n      tag_376\n        /* \"#utility.yul\":20098:20102   */\n      0x1f\n        /* \"#utility.yul\":20090:20096   */\n      dup10\n        /* \"#utility.yul\":20086:20103   */\n      and\n        /* \"#utility.yul\":20075:20084   */\n      dup3\n        /* \"#utility.yul\":20056:20104   */\n      tag_161\n      jump\t// in\n    tag_376:\n        /* \"#utility.yul\":20048:20054   */\n      dup4\n        /* \"#utility.yul\":20041:20105   */\n      sstore\n        /* \"#utility.yul\":19956:20119   */\n      pop\n        /* \"#utility.yul\":19933:20119   */\n    tag_375:\n        /* \"#utility.yul\":20165:20166   */\n      0x01\n        /* \"#utility.yul\":20161:20162   */\n      0x02\n        /* \"#utility.yul\":20153:20159   */\n      dup9\n        /* \"#utility.yul\":20149:20163   */\n      mul\n        /* \"#utility.yul\":20145:20167   */\n      add\n        /* \"#utility.yul\":20139:20143   */\n      dup9\n        /* \"#utility.yul\":20132:20168   */\n      sstore\n        /* \"#utility.yul\":19553:20178   */\n      pop\n      pop\n      pop\n        /* \"#utility.yul\":19516:20424   */\n    tag_367:\n      pop\n        /* \"#utility.yul\":19126:20430   */\n      pop\n      pop\n      pop\n        /* \"#utility.yul\":19027:20430   */\n      pop\n      pop\n      pop\n      jump\t// out\n        /* \"#utility.yul\":20436:20582   */\n    tag_163:\n        /* \"#utility.yul\":20533:20539   */\n      dup3\n        /* \"#utility.yul\":20528:20531   */\n      dup2\n        /* \"#utility.yul\":20523:20526   */\n      dup4\n        /* \"#utility.yul\":20510:20540   */\n      calldatacopy\n        /* \"#utility.yul\":20574:20575   */\n      0x00\n        /* \"#utility.yul\":20565:20571   */\n      dup4\n        /* \"#utility.yul\":20560:20563   */\n      dup4\n        /* \"#utility.yul\":20556:20572   */\n      add\n        /* \"#utility.yul\":20549:20576   */\n      mstore\n        /* \"#utility.yul\":20436:20582   */\n      pop\n      pop\n      pop\n      jump\t// out\n        /* \"#utility.yul\":20612:20929   */\n    tag_164:\n        /* \"#utility.yul\":20710:20713   */\n      0x00\n        /* \"#utility.yul\":20731:20802   */\n      tag_379\n        /* \"#utility.yul\":20795:20801   */\n      dup4\n        /* \"#utility.yul\":20790:20793   */\n      dup6\n        /* \"#utility.yul\":20731:20802   */\n      tag_110\n      jump\t// in\n    tag_379:\n        /* \"#utility.yul\":20724:20802   */\n      swap4\n      pop\n        /* \"#utility.yul\":20812:20868   */\n      tag_380\n        /* \"#utility.yul\":20861:20867   */\n      dup4\n        /* \"#utility.yul\":20856:20859   */\n      dup6\n        /* \"#utility.yul\":20849:20854   */\n      dup5\n        /* \"#utility.yul\":20812:20868   */\n      tag_163\n      jump\t// in\n    tag_380:\n        /* \"#utility.yul\":20893:20922   */\n      tag_381\n        /* \"#utility.yul\":20915:20921   */\n      dup4\n        /* \"#utility.yul\":20893:20922   */\n      tag_112\n      jump\t// in\n    tag_381:\n        /* \"#utility.yul\":20888:20891   */\n      dup5\n        /* \"#utility.yul\":20884:20923   */\n      add\n        /* \"#utility.yul\":20877:20923   */\n      swap1\n      pop\n        /* \"#utility.yul\":20612:20929   */\n      swap4\n      swap3\n      pop\n      pop\n      pop\n      jump\t// out\n        /* \"#utility.yul\":20935:21268   */\n    tag_95:\n        /* \"#utility.yul\":21058:21062   */\n      0x00\n        /* \"#utility.yul\":21096:21098   */\n      0x20\n        /* \"#utility.yul\":21085:21094   */\n      dup3\n        /* \"#utility.yul\":21081:21099   */\n      add\n        /* \"#utility.yul\":21073:21099   */\n      swap1\n      pop\n        /* \"#utility.yul\":21145:21154   */\n      dup2\n        /* \"#utility.yul\":21139:21143   */\n      dup2\n        /* \"#utility.yul\":21135:21155   */\n      sub\n        /* \"#utility.yul\":21131:21132   */\n      0x00\n        /* \"#utility.yul\":21120:21129   */\n      dup4\n        /* \"#utility.yul\":21116:21133   */\n      add\n        /* \"#utility.yul\":21109:21156   */\n      mstore\n        /* \"#utility.yul\":21173:21261   */\n      tag_383\n        /* \"#utility.yul\":21256:21260   */\n      dup2\n        /* \"#utility.yul\":21247:21253   */\n      dup5\n        /* \"#utility.yul\":21239:21245   */\n      dup7\n        /* \"#utility.yul\":21173:21261   */\n      tag_164\n      jump\t// in\n    tag_383:\n        /* \"#utility.yul\":21165:21261   */\n      swap1\n      pop\n        /* \"#utility.yul\":20935:21268   */\n      swap4\n      swap3\n      pop\n      pop\n      pop\n      jump\t// out\n\n    auxdata: 0xa264697066735822122040cbb3e5910f705b46fbd2d28c26d8df0fa07965f6d6f26926a7fc135914381a64736f6c63430008160033\n}\n",
				"bytecode": {
					"linkReferences": {},
					"object": "608060405234801561000f575f80fd5b503360015f6101000a81548173ffffffffffffffffffffffffffffffffffffffff021916908373ffffffffffffffffffffffffffffffffffffffff1602179055506112938061005d5f395ff3fe608060405234801561000f575f80fd5b5060043610610086575f3560e01c8063d671890811610059578063d671890814610112578063da650ec614610142578063f49e323e14610160578063fc36e15b1461019057610086565b80632e4176cf1461008a578063b8fcf937146100a8578063bbcd5bbe146100c6578063bfa5d3b0146100e2575b5f80fd5b6100926101ac565b60405161009f9190610834565b60405180910390f35b6100b06101d1565b6040516100bd91906108a8565b60405180910390f35b6100e060048036038101906100db91906108f3565b6101f4565b005b6100fc60048036038101906100f791906108f3565b6102c5565b60405161010991906109a8565b60405180910390f35b61012c600480360381019061012791906108f3565b610392565b60405161013991906109a8565b60405180910390f35b61014a61042d565b6040516101579190610a88565b60405180910390f35b61017a60048036038101906101759190610ad2565b610483565b6040516101879190610b0c565b60405180910390f35b6101aa60048036038101906101a59190610b86565b6104a3565b005b60015f9054906101000a900473ffffffffffffffffffffffffffffffffffffffff1681565b5f8054906101000a900473ffffffffffffffffffffffffffffffffffffffff1681565b60015f9054906101000a900473ffffffffffffffffffffffffffffffffffffffff1673ffffffffffffffffffffffffffffffffffffffff163373ffffffffffffffffffffffffffffffffffffffff1614610283576040517f08c379a000000000000000000000000000000000000000000000000000000000815260040161027a90610c41565b60405180910390fd5b805f806101000a81548173ffffffffffffffffffffffffffffffffffffffff021916908373ffffffffffffffffffffffffffffffffffffffff16021790555050565b606060025f8373ffffffffffffffffffffffffffffffffffffffff1673ffffffffffffffffffffffffffffffffffffffff1681526020019081526020015f20805461030f90610c8c565b80601f016020809104026020016040519081016040528092919081815260200182805461033b90610c8c565b80156103865780601f1061035d57610100808354040283529160200191610386565b820191905f5260205f20905b81548152906001019060200180831161036957829003601f168201915b50505050509050919050565b6002602052805f5260405f205f9150905080546103ae90610c8c565b80601f01602080910402602001604051908101604052809291908181526020018280546103da90610c8c565b80156104255780601f106103fc57610100808354040283529160200191610425565b820191905f5260205f20905b81548152906001019060200180831161040857829003601f168201915b505050505081565b6060600380548060200260200160405190810160405280929190818152602001828054801561047957602002820191905f5260205f20905b815481526020019060010190808311610465575b5050505050905090565b60038181548110610492575f80fd5b905f5260205f20015f915090505481565b5f73ffffffffffffffffffffffffffffffffffffffff163373ffffffffffffffffffffffffffffffffffffffff1603610511576040517f08c379a000000000000000000000000000000000000000000000000000000000815260040161050890610d06565b60405180910390fd5b5f73ffffffffffffffffffffffffffffffffffffffff165f8054906101000a900473ffffffffffffffffffffffffffffffffffffffff1673ffffffffffffffffffffffffffffffffffffffff160361059e576040517f08c379a000000000000000000000000000000000000000000000000000000000815260040161059590610d6e565b60405180910390fd5b60015f8054906101000a900473ffffffffffffffffffffffffffffffffffffffff1673ffffffffffffffffffffffffffffffffffffffff166370a08231336040518263ffffffff1660e01b81526004016105f89190610834565b602060405180830381865afa158015610613573d5f803e3d5ffd5b505050506040513d601f19601f820116820180604052508101906106379190610da0565b1015610678576040517f08c379a000000000000000000000000000000000000000000000000000000000815260040161066f90610e15565b60405180910390fd5b5f8054906101000a900473ffffffffffffffffffffffffffffffffffffffff1673ffffffffffffffffffffffffffffffffffffffff166323b872dd333060016040518463ffffffff1660e01b81526004016106d593929190610e6c565b6020604051808303815f875af11580156106f1573d5f803e3d5ffd5b505050506040513d601f19601f820116820180604052508101906107159190610ed6565b610754576040517f08c379a000000000000000000000000000000000000000000000000000000000815260040161074b90610f4b565b60405180910390fd5b818160025f3373ffffffffffffffffffffffffffffffffffffffff1673ffffffffffffffffffffffffffffffffffffffff1681526020019081526020015f2091826107a0929190611134565b503373ffffffffffffffffffffffffffffffffffffffff167fcb6783276e8a4347387036bbfea000268f0a4b1f8c46ac79980609f2af8d2acd83836040516107e992919061123b565b60405180910390a25050565b5f73ffffffffffffffffffffffffffffffffffffffff82169050919050565b5f61081e826107f5565b9050919050565b61082e81610814565b82525050565b5f6020820190506108475f830184610825565b92915050565b5f819050919050565b5f61087061086b610866846107f5565b61084d565b6107f5565b9050919050565b5f61088182610856565b9050919050565b5f61089282610877565b9050919050565b6108a281610888565b82525050565b5f6020820190506108bb5f830184610899565b92915050565b5f80fd5b5f80fd5b6108d281610814565b81146108dc575f80fd5b50565b5f813590506108ed816108c9565b92915050565b5f60208284031215610908576109076108c1565b5b5f610915848285016108df565b91505092915050565b5f81519050919050565b5f82825260208201905092915050565b5f5b8381101561095557808201518184015260208101905061093a565b5f8484015250505050565b5f601f19601f8301169050919050565b5f61097a8261091e565b6109848185610928565b9350610994818560208601610938565b61099d81610960565b840191505092915050565b5f6020820190508181035f8301526109c08184610970565b905092915050565b5f81519050919050565b5f82825260208201905092915050565b5f819050602082019050919050565b5f819050919050565b610a03816109f1565b82525050565b5f610a1483836109fa565b60208301905092915050565b5f602082019050919050565b5f610a36826109c8565b610a4081856109d2565b9350610a4b836109e2565b805f5b83811015610a7b578151610a628882610a09565b9750610a6d83610a20565b925050600181019050610a4e565b5085935050505092915050565b5f6020820190508181035f830152610aa08184610a2c565b905092915050565b610ab1816109f1565b8114610abb575f80fd5b50565b5f81359050610acc81610aa8565b92915050565b5f60208284031215610ae757610ae66108c1565b5b5f610af484828501610abe565b91505092915050565b610b06816109f1565b82525050565b5f602082019050610b1f5f830184610afd565b92915050565b5f80fd5b5f80fd5b5f80fd5b5f8083601f840112610b4657610b45610b25565b5b8235905067ffffffffffffffff811115610b6357610b62610b29565b5b602083019150836001820283011115610b7f57610b7e610b2d565b5b9250929050565b5f8060208385031215610b9c57610b9b6108c1565b5b5f83013567ffffffffffffffff811115610bb957610bb86108c5565b5b610bc585828601610b31565b92509250509250929050565b7f4f6e6c7920746865206368616972706572736f6e2063616e20736574207468655f8201527f20746f6b656e20636f6e74726163740000000000000000000000000000000000602082015250565b5f610c2b602f83610928565b9150610c3682610bd1565b604082019050919050565b5f6020820190508181035f830152610c5881610c1f565b9050919050565b7f4e487b71000000000000000000000000000000000000000000000000000000005f52602260045260245ffd5b5f6002820490506001821680610ca357607f821691505b602082108103610cb657610cb5610c5f565b5b50919050565b7f496e76616c69642073656e6465722061646472657373000000000000000000005f82015250565b5f610cf0601683610928565b9150610cfb82610cbc565b602082019050919050565b5f6020820190508181035f830152610d1d81610ce4565b9050919050565b7f546f6b656e20636f6e7472616374206e6f7420736574000000000000000000005f82015250565b5f610d58601683610928565b9150610d6382610d24565b602082019050919050565b5f6020820190508181035f830152610d8581610d4c565b9050919050565b5f81519050610d9a81610aa8565b92915050565b5f60208284031215610db557610db46108c1565b5b5f610dc284828501610d8c565b91505092915050565b7f496e73756666696369656e7420746f6b656e7320746f20766f746500000000005f82015250565b5f610dff601b83610928565b9150610e0a82610dcb565b602082019050919050565b5f6020820190508181035f830152610e2c81610df3565b9050919050565b5f819050919050565b5f610e56610e51610e4c84610e33565b61084d565b6109f1565b9050919050565b610e6681610e3c565b82525050565b5f606082019050610e7f5f830186610825565b610e8c6020830185610825565b610e996040830184610e5d565b949350505050565b5f8115159050919050565b610eb581610ea1565b8114610ebf575f80fd5b50565b5f81519050610ed081610eac565b92915050565b5f60208284031215610eeb57610eea6108c1565b5b5f610ef884828501610ec2565b91505092915050565b7f546f6b656e207472616e73666572206661696c656400000000000000000000005f82015250565b5f610f35601583610928565b9150610f4082610f01565b602082019050919050565b5f6020820190508181035f830152610f6281610f29565b9050919050565b5f82905092915050565b7f4e487b71000000000000000000000000000000000000000000000000000000005f52604160045260245ffd5b5f819050815f5260205f209050919050565b5f6020601f8301049050919050565b5f82821b905092915050565b5f60088302610ffc7fffffffffffffffffffffffffffffffffffffffffffffffffffffffffffffffff82610fc1565b6110068683610fc1565b95508019841693508086168417925050509392505050565b5f61103861103361102e846109f1565b61084d565b6109f1565b9050919050565b5f819050919050565b6110518361101e565b61106561105d8261103f565b848454610fcd565b825550505050565b5f90565b61107961106d565b611084818484611048565b505050565b5b818110156110a75761109c5f82611071565b60018101905061108a565b5050565b601f8211156110ec576110bd81610fa0565b6110c684610fb2565b810160208510156110d5578190505b6110e96110e185610fb2565b830182611089565b50505b505050565b5f82821c905092915050565b5f61110c5f19846008026110f1565b1980831691505092915050565b5f61112483836110fd565b9150826002028217905092915050565b61113e8383610f69565b67ffffffffffffffff81111561115757611156610f73565b5b6111618254610c8c565b61116c8282856110ab565b5f601f831160018114611199575f8415611187578287013590505b6111918582611119565b8655506111f8565b601f1984166111a786610fa0565b5f5b828110156111ce578489013582556001820191506020850194506020810190506111a9565b868310156111eb57848901356111e7601f8916826110fd565b8355505b6001600288020188555050505b50505050505050565b828183375f83830152505050565b5f61121a8385610928565b9350611227838584611201565b61123083610960565b840190509392505050565b5f6020820190508181035f83015261125481848661120f565b9050939250505056fea264697066735822122040cbb3e5910f705b46fbd2d28c26d8df0fa07965f6d6f26926a7fc135914381a64736f6c63430008160033",
					"opcodes": "PUSH1 0x80 PUSH1 0x40 MSTORE CALLVALUE DUP1 ISZERO PUSH2 0xF JUMPI PUSH0 DUP1 REVERT JUMPDEST POP CALLER PUSH1 0x1 PUSH0 PUSH2 0x100 EXP DUP2 SLOAD DUP2 PUSH20 0xFFFFFFFFFFFFFFFFFFFFFFFFFFFFFFFFFFFFFFFF MUL NOT AND SWAP1 DUP4 PUSH20 0xFFFFFFFFFFFFFFFFFFFFFFFFFFFFFFFFFFFFFFFF AND MUL OR SWAP1 SSTORE POP PUSH2 0x1293 DUP1 PUSH2 0x5D PUSH0 CODECOPY PUSH0 RETURN INVALID PUSH1 0x80 PUSH1 0x40 MSTORE CALLVALUE DUP1 ISZERO PUSH2 0xF JUMPI PUSH0 DUP1 REVERT JUMPDEST POP PUSH1 0x4 CALLDATASIZE LT PUSH2 0x86 JUMPI PUSH0 CALLDATALOAD PUSH1 0xE0 SHR DUP1 PUSH4 0xD6718908 GT PUSH2 0x59 JUMPI DUP1 PUSH4 0xD6718908 EQ PUSH2 0x112 JUMPI DUP1 PUSH4 0xDA650EC6 EQ PUSH2 0x142 JUMPI DUP1 PUSH4 0xF49E323E EQ PUSH2 0x160 JUMPI DUP1 PUSH4 0xFC36E15B EQ PUSH2 0x190 JUMPI PUSH2 0x86 JUMP JUMPDEST DUP1 PUSH4 0x2E4176CF EQ PUSH2 0x8A JUMPI DUP1 PUSH4 0xB8FCF937 EQ PUSH2 0xA8 JUMPI DUP1 PUSH4 0xBBCD5BBE EQ PUSH2 0xC6 JUMPI DUP1 PUSH4 0xBFA5D3B0 EQ PUSH2 0xE2 JUMPI JUMPDEST PUSH0 DUP1 REVERT JUMPDEST PUSH2 0x92 PUSH2 0x1AC JUMP JUMPDEST PUSH1 0x40 MLOAD PUSH2 0x9F SWAP2 SWAP1 PUSH2 0x834 JUMP JUMPDEST PUSH1 0x40 MLOAD DUP1 SWAP2 SUB SWAP1 RETURN JUMPDEST PUSH2 0xB0 PUSH2 0x1D1 JUMP JUMPDEST PUSH1 0x40 MLOAD PUSH2 0xBD SWAP2 SWAP1 PUSH2 0x8A8 JUMP JUMPDEST PUSH1 0x40 MLOAD DUP1 SWAP2 SUB SWAP1 RETURN JUMPDEST PUSH2 0xE0 PUSH1 0x4 DUP1 CALLDATASIZE SUB DUP2 ADD SWAP1 PUSH2 0xDB SWAP2 SWAP1 PUSH2 0x8F3 JUMP JUMPDEST PUSH2 0x1F4 JUMP JUMPDEST STOP JUMPDEST PUSH2 0xFC PUSH1 0x4 DUP1 CALLDATASIZE SUB DUP2 ADD SWAP1 PUSH2 0xF7 SWAP2 SWAP1 PUSH2 0x8F3 JUMP JUMPDEST PUSH2 0x2C5 JUMP JUMPDEST PUSH1 0x40 MLOAD PUSH2 0x109 SWAP2 SWAP1 PUSH2 0x9A8 JUMP JUMPDEST PUSH1 0x40 MLOAD DUP1 SWAP2 SUB SWAP1 RETURN JUMPDEST PUSH2 0x12C PUSH1 0x4 DUP1 CALLDATASIZE SUB DUP2 ADD SWAP1 PUSH2 0x127 SWAP2 SWAP1 PUSH2 0x8F3 JUMP JUMPDEST PUSH2 0x392 JUMP JUMPDEST PUSH1 0x40 MLOAD PUSH2 0x139 SWAP2 SWAP1 PUSH2 0x9A8 JUMP JUMPDEST PUSH1 0x40 MLOAD DUP1 SWAP2 SUB SWAP1 RETURN JUMPDEST PUSH2 0x14A PUSH2 0x42D JUMP JUMPDEST PUSH1 0x40 MLOAD PUSH2 0x157 SWAP2 SWAP1 PUSH2 0xA88 JUMP JUMPDEST PUSH1 0x40 MLOAD DUP1 SWAP2 SUB SWAP1 RETURN JUMPDEST PUSH2 0x17A PUSH1 0x4 DUP1 CALLDATASIZE SUB DUP2 ADD SWAP1 PUSH2 0x175 SWAP2 SWAP1 PUSH2 0xAD2 JUMP JUMPDEST PUSH2 0x483 JUMP JUMPDEST PUSH1 0x40 MLOAD PUSH2 0x187 SWAP2 SWAP1 PUSH2 0xB0C JUMP JUMPDEST PUSH1 0x40 MLOAD DUP1 SWAP2 SUB SWAP1 RETURN JUMPDEST PUSH2 0x1AA PUSH1 0x4 DUP1 CALLDATASIZE SUB DUP2 ADD SWAP1 PUSH2 0x1A5 SWAP2 SWAP1 PUSH2 0xB86 JUMP JUMPDEST PUSH2 0x4A3 JUMP JUMPDEST STOP JUMPDEST PUSH1 0x1 PUSH0 SWAP1 SLOAD SWAP1 PUSH2 0x100 EXP SWAP1 DIV PUSH20 0xFFFFFFFFFFFFFFFFFFFFFFFFFFFFFFFFFFFFFFFF AND DUP2 JUMP JUMPDEST PUSH0 DUP1 SLOAD SWAP1 PUSH2 0x100 EXP SWAP1 DIV PUSH20 0xFFFFFFFFFFFFFFFFFFFFFFFFFFFFFFFFFFFFFFFF AND DUP2 JUMP JUMPDEST PUSH1 0x1 PUSH0 SWAP1 SLOAD SWAP1 PUSH2 0x100 EXP SWAP1 DIV PUSH20 0xFFFFFFFFFFFFFFFFFFFFFFFFFFFFFFFFFFFFFFFF AND PUSH20 0xFFFFFFFFFFFFFFFFFFFFFFFFFFFFFFFFFFFFFFFF AND CALLER PUSH20 0xFFFFFFFFFFFFFFFFFFFFFFFFFFFFFFFFFFFFFFFF AND EQ PUSH2 0x283 JUMPI PUSH1 0x40 MLOAD PUSH32 0x8C379A000000000000000000000000000000000000000000000000000000000 DUP2 MSTORE PUSH1 0x4 ADD PUSH2 0x27A SWAP1 PUSH2 0xC41 JUMP JUMPDEST PUSH1 0x40 MLOAD DUP1 SWAP2 SUB SWAP1 REVERT JUMPDEST DUP1 PUSH0 DUP1 PUSH2 0x100 EXP DUP2 SLOAD DUP2 PUSH20 0xFFFFFFFFFFFFFFFFFFFFFFFFFFFFFFFFFFFFFFFF MUL NOT AND SWAP1 DUP4 PUSH20 0xFFFFFFFFFFFFFFFFFFFFFFFFFFFFFFFFFFFFFFFF AND MUL OR SWAP1 SSTORE POP POP JUMP JUMPDEST PUSH1 0x60 PUSH1 0x2 PUSH0 DUP4 PUSH20 0xFFFFFFFFFFFFFFFFFFFFFFFFFFFFFFFFFFFFFFFF AND PUSH20 0xFFFFFFFFFFFFFFFFFFFFFFFFFFFFFFFFFFFFFFFF AND DUP2 MSTORE PUSH1 0x20 ADD SWAP1 DUP2 MSTORE PUSH1 0x20 ADD PUSH0 KECCAK256 DUP1 SLOAD PUSH2 0x30F SWAP1 PUSH2 0xC8C JUMP JUMPDEST DUP1 PUSH1 0x1F ADD PUSH1 0x20 DUP1 SWAP2 DIV MUL PUSH1 0x20 ADD PUSH1 0x40 MLOAD SWAP1 DUP2 ADD PUSH1 0x40 MSTORE DUP1 SWAP3 SWAP2 SWAP1 DUP2 DUP2 MSTORE PUSH1 0x20 ADD DUP3 DUP1 SLOAD PUSH2 0x33B SWAP1 PUSH2 0xC8C JUMP JUMPDEST DUP1 ISZERO PUSH2 0x386 JUMPI DUP1 PUSH1 0x1F LT PUSH2 0x35D JUMPI PUSH2 0x100 DUP1 DUP4 SLOAD DIV MUL DUP4 MSTORE SWAP2 PUSH1 0x20 ADD SWAP2 PUSH2 0x386 JUMP JUMPDEST DUP3 ADD SWAP2 SWAP1 PUSH0 MSTORE PUSH1 0x20 PUSH0 KECCAK256 SWAP1 JUMPDEST DUP2 SLOAD DUP2 MSTORE SWAP1 PUSH1 0x1 ADD SWAP1 PUSH1 0x20 ADD DUP1 DUP4 GT PUSH2 0x369 JUMPI DUP3 SWAP1 SUB PUSH1 0x1F AND DUP3 ADD SWAP2 JUMPDEST POP POP POP POP POP SWAP1 POP SWAP2 SWAP1 POP JUMP JUMPDEST PUSH1 0x2 PUSH1 0x20 MSTORE DUP1 PUSH0 MSTORE PUSH1 0x40 PUSH0 KECCAK256 PUSH0 SWAP2 POP SWAP1 POP DUP1 SLOAD PUSH2 0x3AE SWAP1 PUSH2 0xC8C JUMP JUMPDEST DUP1 PUSH1 0x1F ADD PUSH1 0x20 DUP1 SWAP2 DIV MUL PUSH1 0x20 ADD PUSH1 0x40 MLOAD SWAP1 DUP2 ADD PUSH1 0x40 MSTORE DUP1 SWAP3 SWAP2 SWAP1 DUP2 DUP2 MSTORE PUSH1 0x20 ADD DUP3 DUP1 SLOAD PUSH2 0x3DA SWAP1 PUSH2 0xC8C JUMP JUMPDEST DUP1 ISZERO PUSH2 0x425 JUMPI DUP1 PUSH1 0x1F LT PUSH2 0x3FC JUMPI PUSH2 0x100 DUP1 DUP4 SLOAD DIV MUL DUP4 MSTORE SWAP2 PUSH1 0x20 ADD SWAP2 PUSH2 0x425 JUMP JUMPDEST DUP3 ADD SWAP2 SWAP1 PUSH0 MSTORE PUSH1 0x20 PUSH0 KECCAK256 SWAP1 JUMPDEST DUP2 SLOAD DUP2 MSTORE SWAP1 PUSH1 0x1 ADD SWAP1 PUSH1 0x20 ADD DUP1 DUP4 GT PUSH2 0x408 JUMPI DUP3 SWAP1 SUB PUSH1 0x1F AND DUP3 ADD SWAP2 JUMPDEST POP POP POP POP POP DUP2 JUMP JUMPDEST PUSH1 0x60 PUSH1 0x3 DUP1 SLOAD DUP1 PUSH1 0x20 MUL PUSH1 0x20 ADD PUSH1 0x40 MLOAD SWAP1 DUP2 ADD PUSH1 0x40 MSTORE DUP1 SWAP3 SWAP2 SWAP1 DUP2 DUP2 MSTORE PUSH1 0x20 ADD DUP3 DUP1 SLOAD DUP1 ISZERO PUSH2 0x479 JUMPI PUSH1 0x20 MUL DUP3 ADD SWAP2 SWAP1 PUSH0 MSTORE PUSH1 0x20 PUSH0 KECCAK256 SWAP1 JUMPDEST DUP2 SLOAD DUP2 MSTORE PUSH1 0x20 ADD SWAP1 PUSH1 0x1 ADD SWAP1 DUP1 DUP4 GT PUSH2 0x465 JUMPI JUMPDEST POP POP POP POP POP SWAP1 POP SWAP1 JUMP JUMPDEST PUSH1 0x3 DUP2 DUP2 SLOAD DUP2 LT PUSH2 0x492 JUMPI PUSH0 DUP1 REVERT JUMPDEST SWAP1 PUSH0 MSTORE PUSH1 0x20 PUSH0 KECCAK256 ADD PUSH0 SWAP2 POP SWAP1 POP SLOAD DUP2 JUMP JUMPDEST PUSH0 PUSH20 0xFFFFFFFFFFFFFFFFFFFFFFFFFFFFFFFFFFFFFFFF AND CALLER PUSH20 0xFFFFFFFFFFFFFFFFFFFFFFFFFFFFFFFFFFFFFFFF AND SUB PUSH2 0x511 JUMPI PUSH1 0x40 MLOAD PUSH32 0x8C379A000000000000000000000000000000000000000000000000000000000 DUP2 MSTORE PUSH1 0x4 ADD PUSH2 0x508 SWAP1 PUSH2 0xD06 JUMP JUMPDEST PUSH1 0x40 MLOAD DUP1 SWAP2 SUB SWAP1 REVERT JUMPDEST PUSH0 PUSH20 0xFFFFFFFFFFFFFFFFFFFFFFFFFFFFFFFFFFFFFFFF AND PUSH0 DUP1 SLOAD SWAP1 PUSH2 0x100 EXP SWAP1 DIV PUSH20 0xFFFFFFFFFFFFFFFFFFFFFFFFFFFFFFFFFFFFFFFF AND PUSH20 0xFFFFFFFFFFFFFFFFFFFFFFFFFFFFFFFFFFFFFFFF AND SUB PUSH2 0x59E JUMPI PUSH1 0x40 MLOAD PUSH32 0x8C379A000000000000000000000000000000000000000000000000000000000 DUP2 MSTORE PUSH1 0x4 ADD PUSH2 0x595 SWAP1 PUSH2 0xD6E JUMP JUMPDEST PUSH1 0x40 MLOAD DUP1 SWAP2 SUB SWAP1 REVERT JUMPDEST PUSH1 0x1 PUSH0 DUP1 SLOAD SWAP1 PUSH2 0x100 EXP SWAP1 DIV PUSH20 0xFFFFFFFFFFFFFFFFFFFFFFFFFFFFFFFFFFFFFFFF AND PUSH20 0xFFFFFFFFFFFFFFFFFFFFFFFFFFFFFFFFFFFFFFFF AND PUSH4 0x70A08231 CALLER PUSH1 0x40 MLOAD DUP3 PUSH4 0xFFFFFFFF AND PUSH1 0xE0 SHL DUP2 MSTORE PUSH1 0x4 ADD PUSH2 0x5F8 SWAP2 SWAP1 PUSH2 0x834 JUMP JUMPDEST PUSH1 0x20 PUSH1 0x40 MLOAD DUP1 DUP4 SUB DUP2 DUP7 GAS STATICCALL ISZERO DUP1 ISZERO PUSH2 0x613 JUMPI RETURNDATASIZE PUSH0 DUP1 RETURNDATACOPY RETURNDATASIZE PUSH0 REVERT JUMPDEST POP POP POP POP PUSH1 0x40 MLOAD RETURNDATASIZE PUSH1 0x1F NOT PUSH1 0x1F DUP3 ADD AND DUP3 ADD DUP1 PUSH1 0x40 MSTORE POP DUP2 ADD SWAP1 PUSH2 0x637 SWAP2 SWAP1 PUSH2 0xDA0 JUMP JUMPDEST LT ISZERO PUSH2 0x678 JUMPI PUSH1 0x40 MLOAD PUSH32 0x8C379A000000000000000000000000000000000000000000000000000000000 DUP2 MSTORE PUSH1 0x4 ADD PUSH2 0x66F SWAP1 PUSH2 0xE15 JUMP JUMPDEST PUSH1 0x40 MLOAD DUP1 SWAP2 SUB SWAP1 REVERT JUMPDEST PUSH0 DUP1 SLOAD SWAP1 PUSH2 0x100 EXP SWAP1 DIV PUSH20 0xFFFFFFFFFFFFFFFFFFFFFFFFFFFFFFFFFFFFFFFF AND PUSH20 0xFFFFFFFFFFFFFFFFFFFFFFFFFFFFFFFFFFFFFFFF AND PUSH4 0x23B872DD CALLER ADDRESS PUSH1 0x1 PUSH1 0x40 MLOAD DUP5 PUSH4 0xFFFFFFFF AND PUSH1 0xE0 SHL DUP2 MSTORE PUSH1 0x4 ADD PUSH2 0x6D5 SWAP4 SWAP3 SWAP2 SWAP1 PUSH2 0xE6C JUMP JUMPDEST PUSH1 0x20 PUSH1 0x40 MLOAD DUP1 DUP4 SUB DUP2 PUSH0 DUP8 GAS CALL ISZERO DUP1 ISZERO PUSH2 0x6F1 JUMPI RETURNDATASIZE PUSH0 DUP1 RETURNDATACOPY RETURNDATASIZE PUSH0 REVERT JUMPDEST POP POP POP POP PUSH1 0x40 MLOAD RETURNDATASIZE PUSH1 0x1F NOT PUSH1 0x1F DUP3 ADD AND DUP3 ADD DUP1 PUSH1 0x40 MSTORE POP DUP2 ADD SWAP1 PUSH2 0x715 SWAP2 SWAP1 PUSH2 0xED6 JUMP JUMPDEST PUSH2 0x754 JUMPI PUSH1 0x40 MLOAD PUSH32 0x8C379A000000000000000000000000000000000000000000000000000000000 DUP2 MSTORE PUSH1 0x4 ADD PUSH2 0x74B SWAP1 PUSH2 0xF4B JUMP JUMPDEST PUSH1 0x40 MLOAD DUP1 SWAP2 SUB SWAP1 REVERT JUMPDEST DUP2 DUP2 PUSH1 0x2 PUSH0 CALLER PUSH20 0xFFFFFFFFFFFFFFFFFFFFFFFFFFFFFFFFFFFFFFFF AND PUSH20 0xFFFFFFFFFFFFFFFFFFFFFFFFFFFFFFFFFFFFFFFF AND DUP2 MSTORE PUSH1 0x20 ADD SWAP1 DUP2 MSTORE PUSH1 0x20 ADD PUSH0 KECCAK256 SWAP2 DUP3 PUSH2 0x7A0 SWAP3 SWAP2 SWAP1 PUSH2 0x1134 JUMP JUMPDEST POP CALLER PUSH20 0xFFFFFFFFFFFFFFFFFFFFFFFFFFFFFFFFFFFFFFFF AND PUSH32 0xCB6783276E8A4347387036BBFEA000268F0A4B1F8C46AC79980609F2AF8D2ACD DUP4 DUP4 PUSH1 0x40 MLOAD PUSH2 0x7E9 SWAP3 SWAP2 SWAP1 PUSH2 0x123B JUMP JUMPDEST PUSH1 0x40 MLOAD DUP1 SWAP2 SUB SWAP1 LOG2 POP POP JUMP JUMPDEST PUSH0 PUSH20 0xFFFFFFFFFFFFFFFFFFFFFFFFFFFFFFFFFFFFFFFF DUP3 AND SWAP1 POP SWAP2 SWAP1 POP JUMP JUMPDEST PUSH0 PUSH2 0x81E DUP3 PUSH2 0x7F5 JUMP JUMPDEST SWAP1 POP SWAP2 SWAP1 POP JUMP JUMPDEST PUSH2 0x82E DUP2 PUSH2 0x814 JUMP JUMPDEST DUP3 MSTORE POP POP JUMP JUMPDEST PUSH0 PUSH1 0x20 DUP3 ADD SWAP1 POP PUSH2 0x847 PUSH0 DUP4 ADD DUP5 PUSH2 0x825 JUMP JUMPDEST SWAP3 SWAP2 POP POP JUMP JUMPDEST PUSH0 DUP2 SWAP1 POP SWAP2 SWAP1 POP JUMP JUMPDEST PUSH0 PUSH2 0x870 PUSH2 0x86B PUSH2 0x866 DUP5 PUSH2 0x7F5 JUMP JUMPDEST PUSH2 0x84D JUMP JUMPDEST PUSH2 0x7F5 JUMP JUMPDEST SWAP1 POP SWAP2 SWAP1 POP JUMP JUMPDEST PUSH0 PUSH2 0x881 DUP3 PUSH2 0x856 JUMP JUMPDEST SWAP1 POP SWAP2 SWAP1 POP JUMP JUMPDEST PUSH0 PUSH2 0x892 DUP3 PUSH2 0x877 JUMP JUMPDEST SWAP1 POP SWAP2 SWAP1 POP JUMP JUMPDEST PUSH2 0x8A2 DUP2 PUSH2 0x888 JUMP JUMPDEST DUP3 MSTORE POP POP JUMP JUMPDEST PUSH0 PUSH1 0x20 DUP3 ADD SWAP1 POP PUSH2 0x8BB PUSH0 DUP4 ADD DUP5 PUSH2 0x899 JUMP JUMPDEST SWAP3 SWAP2 POP POP JUMP JUMPDEST PUSH0 DUP1 REVERT JUMPDEST PUSH0 DUP1 REVERT JUMPDEST PUSH2 0x8D2 DUP2 PUSH2 0x814 JUMP JUMPDEST DUP2 EQ PUSH2 0x8DC JUMPI PUSH0 DUP1 REVERT JUMPDEST POP JUMP JUMPDEST PUSH0 DUP2 CALLDATALOAD SWAP1 POP PUSH2 0x8ED DUP2 PUSH2 0x8C9 JUMP JUMPDEST SWAP3 SWAP2 POP POP JUMP JUMPDEST PUSH0 PUSH1 0x20 DUP3 DUP5 SUB SLT ISZERO PUSH2 0x908 JUMPI PUSH2 0x907 PUSH2 0x8C1 JUMP JUMPDEST JUMPDEST PUSH0 PUSH2 0x915 DUP5 DUP3 DUP6 ADD PUSH2 0x8DF JUMP JUMPDEST SWAP2 POP POP SWAP3 SWAP2 POP POP JUMP JUMPDEST PUSH0 DUP2 MLOAD SWAP1 POP SWAP2 SWAP1 POP JUMP JUMPDEST PUSH0 DUP3 DUP3 MSTORE PUSH1 0x20 DUP3 ADD SWAP1 POP SWAP3 SWAP2 POP POP JUMP JUMPDEST PUSH0 JUMPDEST DUP4 DUP2 LT ISZERO PUSH2 0x955 JUMPI DUP1 DUP3 ADD MLOAD DUP2 DUP5 ADD MSTORE PUSH1 0x20 DUP2 ADD SWAP1 POP PUSH2 0x93A JUMP JUMPDEST PUSH0 DUP5 DUP5 ADD MSTORE POP POP POP POP JUMP JUMPDEST PUSH0 PUSH1 0x1F NOT PUSH1 0x1F DUP4 ADD AND SWAP1 POP SWAP2 SWAP1 POP JUMP JUMPDEST PUSH0 PUSH2 0x97A DUP3 PUSH2 0x91E JUMP JUMPDEST PUSH2 0x984 DUP2 DUP6 PUSH2 0x928 JUMP JUMPDEST SWAP4 POP PUSH2 0x994 DUP2 DUP6 PUSH1 0x20 DUP7 ADD PUSH2 0x938 JUMP JUMPDEST PUSH2 0x99D DUP2 PUSH2 0x960 JUMP JUMPDEST DUP5 ADD SWAP2 POP POP SWAP3 SWAP2 POP POP JUMP JUMPDEST PUSH0 PUSH1 0x20 DUP3 ADD SWAP1 POP DUP2 DUP2 SUB PUSH0 DUP4 ADD MSTORE PUSH2 0x9C0 DUP2 DUP5 PUSH2 0x970 JUMP JUMPDEST SWAP1 POP SWAP3 SWAP2 POP POP JUMP JUMPDEST PUSH0 DUP2 MLOAD SWAP1 POP SWAP2 SWAP1 POP JUMP JUMPDEST PUSH0 DUP3 DUP3 MSTORE PUSH1 0x20 DUP3 ADD SWAP1 POP SWAP3 SWAP2 POP POP JUMP JUMPDEST PUSH0 DUP2 SWAP1 POP PUSH1 0x20 DUP3 ADD SWAP1 POP SWAP2 SWAP1 POP JUMP JUMPDEST PUSH0 DUP2 SWAP1 POP SWAP2 SWAP1 POP JUMP JUMPDEST PUSH2 0xA03 DUP2 PUSH2 0x9F1 JUMP JUMPDEST DUP3 MSTORE POP POP JUMP JUMPDEST PUSH0 PUSH2 0xA14 DUP4 DUP4 PUSH2 0x9FA JUMP JUMPDEST PUSH1 0x20 DUP4 ADD SWAP1 POP SWAP3 SWAP2 POP POP JUMP JUMPDEST PUSH0 PUSH1 0x20 DUP3 ADD SWAP1 POP SWAP2 SWAP1 POP JUMP JUMPDEST PUSH0 PUSH2 0xA36 DUP3 PUSH2 0x9C8 JUMP JUMPDEST PUSH2 0xA40 DUP2 DUP6 PUSH2 0x9D2 JUMP JUMPDEST SWAP4 POP PUSH2 0xA4B DUP4 PUSH2 0x9E2 JUMP JUMPDEST DUP1 PUSH0 JUMPDEST DUP4 DUP2 LT ISZERO PUSH2 0xA7B JUMPI DUP2 MLOAD PUSH2 0xA62 DUP9 DUP3 PUSH2 0xA09 JUMP JUMPDEST SWAP8 POP PUSH2 0xA6D DUP4 PUSH2 0xA20 JUMP JUMPDEST SWAP3 POP POP PUSH1 0x1 DUP2 ADD SWAP1 POP PUSH2 0xA4E JUMP JUMPDEST POP DUP6 SWAP4 POP POP POP POP SWAP3 SWAP2 POP POP JUMP JUMPDEST PUSH0 PUSH1 0x20 DUP3 ADD SWAP1 POP DUP2 DUP2 SUB PUSH0 DUP4 ADD MSTORE PUSH2 0xAA0 DUP2 DUP5 PUSH2 0xA2C JUMP JUMPDEST SWAP1 POP SWAP3 SWAP2 POP POP JUMP JUMPDEST PUSH2 0xAB1 DUP2 PUSH2 0x9F1 JUMP JUMPDEST DUP2 EQ PUSH2 0xABB JUMPI PUSH0 DUP1 REVERT JUMPDEST POP JUMP JUMPDEST PUSH0 DUP2 CALLDATALOAD SWAP1 POP PUSH2 0xACC DUP2 PUSH2 0xAA8 JUMP JUMPDEST SWAP3 SWAP2 POP POP JUMP JUMPDEST PUSH0 PUSH1 0x20 DUP3 DUP5 SUB SLT ISZERO PUSH2 0xAE7 JUMPI PUSH2 0xAE6 PUSH2 0x8C1 JUMP JUMPDEST JUMPDEST PUSH0 PUSH2 0xAF4 DUP5 DUP3 DUP6 ADD PUSH2 0xABE JUMP JUMPDEST SWAP2 POP POP SWAP3 SWAP2 POP POP JUMP JUMPDEST PUSH2 0xB06 DUP2 PUSH2 0x9F1 JUMP JUMPDEST DUP3 MSTORE POP POP JUMP JUMPDEST PUSH0 PUSH1 0x20 DUP3 ADD SWAP1 POP PUSH2 0xB1F PUSH0 DUP4 ADD DUP5 PUSH2 0xAFD JUMP JUMPDEST SWAP3 SWAP2 POP POP JUMP JUMPDEST PUSH0 DUP1 REVERT JUMPDEST PUSH0 DUP1 REVERT JUMPDEST PUSH0 DUP1 REVERT JUMPDEST PUSH0 DUP1 DUP4 PUSH1 0x1F DUP5 ADD SLT PUSH2 0xB46 JUMPI PUSH2 0xB45 PUSH2 0xB25 JUMP JUMPDEST JUMPDEST DUP3 CALLDATALOAD SWAP1 POP PUSH8 0xFFFFFFFFFFFFFFFF DUP2 GT ISZERO PUSH2 0xB63 JUMPI PUSH2 0xB62 PUSH2 0xB29 JUMP JUMPDEST JUMPDEST PUSH1 0x20 DUP4 ADD SWAP2 POP DUP4 PUSH1 0x1 DUP3 MUL DUP4 ADD GT ISZERO PUSH2 0xB7F JUMPI PUSH2 0xB7E PUSH2 0xB2D JUMP JUMPDEST JUMPDEST SWAP3 POP SWAP3 SWAP1 POP JUMP JUMPDEST PUSH0 DUP1 PUSH1 0x20 DUP4 DUP6 SUB SLT ISZERO PUSH2 0xB9C JUMPI PUSH2 0xB9B PUSH2 0x8C1 JUMP JUMPDEST JUMPDEST PUSH0 DUP4 ADD CALLDATALOAD PUSH8 0xFFFFFFFFFFFFFFFF DUP2 GT ISZERO PUSH2 0xBB9 JUMPI PUSH2 0xBB8 PUSH2 0x8C5 JUMP JUMPDEST JUMPDEST PUSH2 0xBC5 DUP6 DUP3 DUP7 ADD PUSH2 0xB31 JUMP JUMPDEST SWAP3 POP SWAP3 POP POP SWAP3 POP SWAP3 SWAP1 POP JUMP JUMPDEST PUSH32 0x4F6E6C7920746865206368616972706572736F6E2063616E2073657420746865 PUSH0 DUP3 ADD MSTORE PUSH32 0x20746F6B656E20636F6E74726163740000000000000000000000000000000000 PUSH1 0x20 DUP3 ADD MSTORE POP JUMP JUMPDEST PUSH0 PUSH2 0xC2B PUSH1 0x2F DUP4 PUSH2 0x928 JUMP JUMPDEST SWAP2 POP PUSH2 0xC36 DUP3 PUSH2 0xBD1 JUMP JUMPDEST PUSH1 0x40 DUP3 ADD SWAP1 POP SWAP2 SWAP1 POP JUMP JUMPDEST PUSH0 PUSH1 0x20 DUP3 ADD SWAP1 POP DUP2 DUP2 SUB PUSH0 DUP4 ADD MSTORE PUSH2 0xC58 DUP2 PUSH2 0xC1F JUMP JUMPDEST SWAP1 POP SWAP2 SWAP1 POP JUMP JUMPDEST PUSH32 0x4E487B7100000000000000000000000000000000000000000000000000000000 PUSH0 MSTORE PUSH1 0x22 PUSH1 0x4 MSTORE PUSH1 0x24 PUSH0 REVERT JUMPDEST PUSH0 PUSH1 0x2 DUP3 DIV SWAP1 POP PUSH1 0x1 DUP3 AND DUP1 PUSH2 0xCA3 JUMPI PUSH1 0x7F DUP3 AND SWAP2 POP JUMPDEST PUSH1 0x20 DUP3 LT DUP2 SUB PUSH2 0xCB6 JUMPI PUSH2 0xCB5 PUSH2 0xC5F JUMP JUMPDEST JUMPDEST POP SWAP2 SWAP1 POP JUMP JUMPDEST PUSH32 0x496E76616C69642073656E646572206164647265737300000000000000000000 PUSH0 DUP3 ADD MSTORE POP JUMP JUMPDEST PUSH0 PUSH2 0xCF0 PUSH1 0x16 DUP4 PUSH2 0x928 JUMP JUMPDEST SWAP2 POP PUSH2 0xCFB DUP3 PUSH2 0xCBC JUMP JUMPDEST PUSH1 0x20 DUP3 ADD SWAP1 POP SWAP2 SWAP1 POP JUMP JUMPDEST PUSH0 PUSH1 0x20 DUP3 ADD SWAP1 POP DUP2 DUP2 SUB PUSH0 DUP4 ADD MSTORE PUSH2 0xD1D DUP2 PUSH2 0xCE4 JUMP JUMPDEST SWAP1 POP SWAP2 SWAP1 POP JUMP JUMPDEST PUSH32 0x546F6B656E20636F6E7472616374206E6F742073657400000000000000000000 PUSH0 DUP3 ADD MSTORE POP JUMP JUMPDEST PUSH0 PUSH2 0xD58 PUSH1 0x16 DUP4 PUSH2 0x928 JUMP JUMPDEST SWAP2 POP PUSH2 0xD63 DUP3 PUSH2 0xD24 JUMP JUMPDEST PUSH1 0x20 DUP3 ADD SWAP1 POP SWAP2 SWAP1 POP JUMP JUMPDEST PUSH0 PUSH1 0x20 DUP3 ADD SWAP1 POP DUP2 DUP2 SUB PUSH0 DUP4 ADD MSTORE PUSH2 0xD85 DUP2 PUSH2 0xD4C JUMP JUMPDEST SWAP1 POP SWAP2 SWAP1 POP JUMP JUMPDEST PUSH0 DUP2 MLOAD SWAP1 POP PUSH2 0xD9A DUP2 PUSH2 0xAA8 JUMP JUMPDEST SWAP3 SWAP2 POP POP JUMP JUMPDEST PUSH0 PUSH1 0x20 DUP3 DUP5 SUB SLT ISZERO PUSH2 0xDB5 JUMPI PUSH2 0xDB4 PUSH2 0x8C1 JUMP JUMPDEST JUMPDEST PUSH0 PUSH2 0xDC2 DUP5 DUP3 DUP6 ADD PUSH2 0xD8C JUMP JUMPDEST SWAP2 POP POP SWAP3 SWAP2 POP POP JUMP JUMPDEST PUSH32 0x496E73756666696369656E7420746F6B656E7320746F20766F74650000000000 PUSH0 DUP3 ADD MSTORE POP JUMP JUMPDEST PUSH0 PUSH2 0xDFF PUSH1 0x1B DUP4 PUSH2 0x928 JUMP JUMPDEST SWAP2 POP PUSH2 0xE0A DUP3 PUSH2 0xDCB JUMP JUMPDEST PUSH1 0x20 DUP3 ADD SWAP1 POP SWAP2 SWAP1 POP JUMP JUMPDEST PUSH0 PUSH1 0x20 DUP3 ADD SWAP1 POP DUP2 DUP2 SUB PUSH0 DUP4 ADD MSTORE PUSH2 0xE2C DUP2 PUSH2 0xDF3 JUMP JUMPDEST SWAP1 POP SWAP2 SWAP1 POP JUMP JUMPDEST PUSH0 DUP2 SWAP1 POP SWAP2 SWAP1 POP JUMP JUMPDEST PUSH0 PUSH2 0xE56 PUSH2 0xE51 PUSH2 0xE4C DUP5 PUSH2 0xE33 JUMP JUMPDEST PUSH2 0x84D JUMP JUMPDEST PUSH2 0x9F1 JUMP JUMPDEST SWAP1 POP SWAP2 SWAP1 POP JUMP JUMPDEST PUSH2 0xE66 DUP2 PUSH2 0xE3C JUMP JUMPDEST DUP3 MSTORE POP POP JUMP JUMPDEST PUSH0 PUSH1 0x60 DUP3 ADD SWAP1 POP PUSH2 0xE7F PUSH0 DUP4 ADD DUP7 PUSH2 0x825 JUMP JUMPDEST PUSH2 0xE8C PUSH1 0x20 DUP4 ADD DUP6 PUSH2 0x825 JUMP JUMPDEST PUSH2 0xE99 PUSH1 0x40 DUP4 ADD DUP5 PUSH2 0xE5D JUMP JUMPDEST SWAP5 SWAP4 POP POP POP POP JUMP JUMPDEST PUSH0 DUP2 ISZERO ISZERO SWAP1 POP SWAP2 SWAP1 POP JUMP JUMPDEST PUSH2 0xEB5 DUP2 PUSH2 0xEA1 JUMP JUMPDEST DUP2 EQ PUSH2 0xEBF JUMPI PUSH0 DUP1 REVERT JUMPDEST POP JUMP JUMPDEST PUSH0 DUP2 MLOAD SWAP1 POP PUSH2 0xED0 DUP2 PUSH2 0xEAC JUMP JUMPDEST SWAP3 SWAP2 POP POP JUMP JUMPDEST PUSH0 PUSH1 0x20 DUP3 DUP5 SUB SLT ISZERO PUSH2 0xEEB JUMPI PUSH2 0xEEA PUSH2 0x8C1 JUMP JUMPDEST JUMPDEST PUSH0 PUSH2 0xEF8 DUP5 DUP3 DUP6 ADD PUSH2 0xEC2 JUMP JUMPDEST SWAP2 POP POP SWAP3 SWAP2 POP POP JUMP JUMPDEST PUSH32 0x546F6B656E207472616E73666572206661696C65640000000000000000000000 PUSH0 DUP3 ADD MSTORE POP JUMP JUMPDEST PUSH0 PUSH2 0xF35 PUSH1 0x15 DUP4 PUSH2 0x928 JUMP JUMPDEST SWAP2 POP PUSH2 0xF40 DUP3 PUSH2 0xF01 JUMP JUMPDEST PUSH1 0x20 DUP3 ADD SWAP1 POP SWAP2 SWAP1 POP JUMP JUMPDEST PUSH0 PUSH1 0x20 DUP3 ADD SWAP1 POP DUP2 DUP2 SUB PUSH0 DUP4 ADD MSTORE PUSH2 0xF62 DUP2 PUSH2 0xF29 JUMP JUMPDEST SWAP1 POP SWAP2 SWAP1 POP JUMP JUMPDEST PUSH0 DUP3 SWAP1 POP SWAP3 SWAP2 POP POP JUMP JUMPDEST PUSH32 0x4E487B7100000000000000000000000000000000000000000000000000000000 PUSH0 MSTORE PUSH1 0x41 PUSH1 0x4 MSTORE PUSH1 0x24 PUSH0 REVERT JUMPDEST PUSH0 DUP2 SWAP1 POP DUP2 PUSH0 MSTORE PUSH1 0x20 PUSH0 KECCAK256 SWAP1 POP SWAP2 SWAP1 POP JUMP JUMPDEST PUSH0 PUSH1 0x20 PUSH1 0x1F DUP4 ADD DIV SWAP1 POP SWAP2 SWAP1 POP JUMP JUMPDEST PUSH0 DUP3 DUP3 SHL SWAP1 POP SWAP3 SWAP2 POP POP JUMP JUMPDEST PUSH0 PUSH1 0x8 DUP4 MUL PUSH2 0xFFC PUSH32 0xFFFFFFFFFFFFFFFFFFFFFFFFFFFFFFFFFFFFFFFFFFFFFFFFFFFFFFFFFFFFFFFF DUP3 PUSH2 0xFC1 JUMP JUMPDEST PUSH2 0x1006 DUP7 DUP4 PUSH2 0xFC1 JUMP JUMPDEST SWAP6 POP DUP1 NOT DUP5 AND SWAP4 POP DUP1 DUP7 AND DUP5 OR SWAP3 POP POP POP SWAP4 SWAP3 POP POP POP JUMP JUMPDEST PUSH0 PUSH2 0x1038 PUSH2 0x1033 PUSH2 0x102E DUP5 PUSH2 0x9F1 JUMP JUMPDEST PUSH2 0x84D JUMP JUMPDEST PUSH2 0x9F1 JUMP JUMPDEST SWAP1 POP SWAP2 SWAP1 POP JUMP JUMPDEST PUSH0 DUP2 SWAP1 POP SWAP2 SWAP1 POP JUMP JUMPDEST PUSH2 0x1051 DUP4 PUSH2 0x101E JUMP JUMPDEST PUSH2 0x1065 PUSH2 0x105D DUP3 PUSH2 0x103F JUMP JUMPDEST DUP5 DUP5 SLOAD PUSH2 0xFCD JUMP JUMPDEST DUP3 SSTORE POP POP POP POP JUMP JUMPDEST PUSH0 SWAP1 JUMP JUMPDEST PUSH2 0x1079 PUSH2 0x106D JUMP JUMPDEST PUSH2 0x1084 DUP2 DUP5 DUP5 PUSH2 0x1048 JUMP JUMPDEST POP POP POP JUMP JUMPDEST JUMPDEST DUP2 DUP2 LT ISZERO PUSH2 0x10A7 JUMPI PUSH2 0x109C PUSH0 DUP3 PUSH2 0x1071 JUMP JUMPDEST PUSH1 0x1 DUP2 ADD SWAP1 POP PUSH2 0x108A JUMP JUMPDEST POP POP JUMP JUMPDEST PUSH1 0x1F DUP3 GT ISZERO PUSH2 0x10EC JUMPI PUSH2 0x10BD DUP2 PUSH2 0xFA0 JUMP JUMPDEST PUSH2 0x10C6 DUP5 PUSH2 0xFB2 JUMP JUMPDEST DUP2 ADD PUSH1 0x20 DUP6 LT ISZERO PUSH2 0x10D5 JUMPI DUP2 SWAP1 POP JUMPDEST PUSH2 0x10E9 PUSH2 0x10E1 DUP6 PUSH2 0xFB2 JUMP JUMPDEST DUP4 ADD DUP3 PUSH2 0x1089 JUMP JUMPDEST POP POP JUMPDEST POP POP POP JUMP JUMPDEST PUSH0 DUP3 DUP3 SHR SWAP1 POP SWAP3 SWAP2 POP POP JUMP JUMPDEST PUSH0 PUSH2 0x110C PUSH0 NOT DUP5 PUSH1 0x8 MUL PUSH2 0x10F1 JUMP JUMPDEST NOT DUP1 DUP4 AND SWAP2 POP POP SWAP3 SWAP2 POP POP JUMP JUMPDEST PUSH0 PUSH2 0x1124 DUP4 DUP4 PUSH2 0x10FD JUMP JUMPDEST SWAP2 POP DUP3 PUSH1 0x2 MUL DUP3 OR SWAP1 POP SWAP3 SWAP2 POP POP JUMP JUMPDEST PUSH2 0x113E DUP4 DUP4 PUSH2 0xF69 JUMP JUMPDEST PUSH8 0xFFFFFFFFFFFFFFFF DUP2 GT ISZERO PUSH2 0x1157 JUMPI PUSH2 0x1156 PUSH2 0xF73 JUMP JUMPDEST JUMPDEST PUSH2 0x1161 DUP3 SLOAD PUSH2 0xC8C JUMP JUMPDEST PUSH2 0x116C DUP3 DUP3 DUP6 PUSH2 0x10AB JUMP JUMPDEST PUSH0 PUSH1 0x1F DUP4 GT PUSH1 0x1 DUP2 EQ PUSH2 0x1199 JUMPI PUSH0 DUP5 ISZERO PUSH2 0x1187 JUMPI DUP3 DUP8 ADD CALLDATALOAD SWAP1 POP JUMPDEST PUSH2 0x1191 DUP6 DUP3 PUSH2 0x1119 JUMP JUMPDEST DUP7 SSTORE POP PUSH2 0x11F8 JUMP JUMPDEST PUSH1 0x1F NOT DUP5 AND PUSH2 0x11A7 DUP7 PUSH2 0xFA0 JUMP JUMPDEST PUSH0 JUMPDEST DUP3 DUP2 LT ISZERO PUSH2 0x11CE JUMPI DUP5 DUP10 ADD CALLDATALOAD DUP3 SSTORE PUSH1 0x1 DUP3 ADD SWAP2 POP PUSH1 0x20 DUP6 ADD SWAP5 POP PUSH1 0x20 DUP2 ADD SWAP1 POP PUSH2 0x11A9 JUMP JUMPDEST DUP7 DUP4 LT ISZERO PUSH2 0x11EB JUMPI DUP5 DUP10 ADD CALLDATALOAD PUSH2 0x11E7 PUSH1 0x1F DUP10 AND DUP3 PUSH2 0x10FD JUMP JUMPDEST DUP4 SSTORE POP JUMPDEST PUSH1 0x1 PUSH1 0x2 DUP9 MUL ADD DUP9 SSTORE POP POP POP JUMPDEST POP POP POP POP POP POP POP JUMP JUMPDEST DUP3 DUP2 DUP4 CALLDATACOPY PUSH0 DUP4 DUP4 ADD MSTORE POP POP POP JUMP JUMPDEST PUSH0 PUSH2 0x121A DUP4 DUP6 PUSH2 0x928 JUMP JUMPDEST SWAP4 POP PUSH2 0x1227 DUP4 DUP6 DUP5 PUSH2 0x1201 JUMP JUMPDEST PUSH2 0x1230 DUP4 PUSH2 0x960 JUMP JUMPDEST DUP5 ADD SWAP1 POP SWAP4 SWAP3 POP POP POP JUMP JUMPDEST PUSH0 PUSH1 0x20 DUP3 ADD SWAP1 POP DUP2 DUP2 SUB PUSH0 DUP4 ADD MSTORE PUSH2 0x1254 DUP2 DUP5 DUP7 PUSH2 0x120F JUMP JUMPDEST SWAP1 POP SWAP4 SWAP3 POP POP POP JUMP INVALID LOG2 PUSH5 0x6970667358 0x22 SLT KECCAK256 BLOCKHASH 0xCB 0xB3 0xE5 SWAP2 0xF PUSH17 0x5B46FBD2D28C26D8DF0FA07965F6D6F269 0x26 0xA7 0xFC SGT MSIZE EQ CODESIZE BYTE PUSH5 0x736F6C6343 STOP ADDMOD AND STOP CALLER "
				},
				"gasEstimates": {
					"creation": {
						"codeDepositCost": "951000",
						"executionCost": "25251",
						"totalCost": "976251"
					},
					"external": {
						"candidateVotes(uint256)": "infinite",
						"chairperson()": "2509",
						"encryptedVotes(address)": "infinite",
						"getEncryptedVote(address)": "infinite",
						"getVotingResults()": "infinite",
						"myToken()": "infinite",
						"setTokenContract(address)": "26929",
						"vote(string)": "infinite"
					}
				},
				"methodIdentifiers": {
					"candidateVotes(uint256)": "f49e323e",
					"chairperson()": "2e4176cf",
					"encryptedVotes(address)": "d6718908",
					"getEncryptedVote(address)": "bfa5d3b0",
					"getVotingResults()": "da650ec6",
					"myToken()": "b8fcf937",
					"setTokenContract(address)": "bbcd5bbe",
					"vote(string)": "fc36e15b"
				}
			},
			"storageLayout": {
				"storage": [
					{
						"astId": 814,
						"contract": "contracts/VotingSystem2.sol:VotingSystem",
						"label": "myToken",
						"offset": 0,
						"slot": "0",
						"type": "t_contract(MyToken)808"
					},
					{
						"astId": 816,
						"contract": "contracts/VotingSystem2.sol:VotingSystem",
						"label": "chairperson",
						"offset": 0,
						"slot": "1",
						"type": "t_address"
					},
					{
						"astId": 820,
						"contract": "contracts/VotingSystem2.sol:VotingSystem",
						"label": "encryptedVotes",
						"offset": 0,
						"slot": "2",
						"type": "t_mapping(t_address,t_string_storage)"
					},
					{
						"astId": 823,
						"contract": "contracts/VotingSystem2.sol:VotingSystem",
						"label": "candidateVotes",
						"offset": 0,
						"slot": "3",
						"type": "t_array(t_uint256)dyn_storage"
					}
				],
				"types": {
					"t_address": {
						"encoding": "inplace",
						"label": "address",
						"numberOfBytes": "20"
					},
					"t_array(t_uint256)dyn_storage": {
						"base": "t_uint256",
						"encoding": "dynamic_array",
						"label": "uint256[]",
						"numberOfBytes": "32"
					},
					"t_contract(MyToken)808": {
						"encoding": "inplace",
						"label": "contract MyToken",
						"numberOfBytes": "20"
					},
					"t_mapping(t_address,t_string_storage)": {
						"encoding": "mapping",
						"key": "t_address",
						"label": "mapping(address => string)",
						"numberOfBytes": "32",
						"value": "t_string_storage"
					},
					"t_string_storage": {
						"encoding": "bytes",
						"label": "string",
						"numberOfBytes": "32"
					},
					"t_uint256": {
						"encoding": "inplace",
						"label": "uint256",
						"numberOfBytes": "32"
					}
				}
			},
			"userdoc": {
				"kind": "user",
				"methods": {},
				"version": 1
			}
		}
	}
}