{
	"contracts/VotingSystem.sol": {
		"VotingSystem": {
			"abi": [
				{
					"inputs": [],
					"stateMutability": "nonpayable",
					"type": "constructor"
				},
				{
					"anonymous": false,
					"inputs": [
						{
							"indexed": true,
							"internalType": "address",
							"name": "voter",
							"type": "address"
						},
						{
							"indexed": false,
							"internalType": "string",
							"name": "encryptedVote",
							"type": "string"
						}
					],
					"name": "Voted",
					"type": "event"
				},
				{
					"inputs": [],
					"name": "chairperson",
					"outputs": [
						{
							"internalType": "address",
							"name": "",
							"type": "address"
						}
					],
					"stateMutability": "view",
					"type": "function"
				},
				{
					"inputs": [],
					"name": "getEncryptedVotes",
					"outputs": [
						{
							"internalType": "string[]",
							"name": "",
							"type": "string[]"
						}
					],
					"stateMutability": "view",
					"type": "function"
				},
				{
					"inputs": [],
					"name": "myToken",
					"outputs": [
						{
							"internalType": "contract MyToken",
							"name": "",
							"type": "address"
						}
					],
					"stateMutability": "view",
					"type": "function"
				},
				{
					"inputs": [
						{
							"internalType": "address",
							"name": "_tokenAddress",
							"type": "address"
						}
					],
					"name": "setTokenContract",
					"outputs": [],
					"stateMutability": "nonpayable",
					"type": "function"
				},
				{
					"inputs": [
						{
							"internalType": "string",
							"name": "encryptedVote",
							"type": "string"
						}
					],
					"name": "vote",
					"outputs": [],
					"stateMutability": "nonpayable",
					"type": "function"
				}
			],
			"devdoc": {
				"kind": "dev",
				"methods": {},
				"version": 1
			},
			"evm": {
				"assembly": "    /* \"contracts/VotingSystem.sol\":82:1442  contract VotingSystem {... */\n  mstore(0x40, 0x80)\n    /* \"contracts/VotingSystem.sol\":374:429  constructor() {... */\n  callvalue\n  dup1\n  iszero\n  tag_1\n  jumpi\n  0x00\n  dup1\n  revert\ntag_1:\n  pop\n    /* \"contracts/VotingSystem.sol\":412:422  msg.sender */\n  caller\n    /* \"contracts/VotingSystem.sol\":398:409  chairperson */\n  0x01\n  0x00\n    /* \"contracts/VotingSystem.sol\":398:422  chairperson = msg.sender */\n  0x0100\n  exp\n  dup2\n  sload\n  dup2\n  0xffffffffffffffffffffffffffffffffffffffff\n  mul\n  not\n  and\n  swap1\n  dup4\n  0xffffffffffffffffffffffffffffffffffffffff\n  and\n  mul\n  or\n  swap1\n  sstore\n  pop\n    /* \"contracts/VotingSystem.sol\":82:1442  contract VotingSystem {... */\n  dataSize(sub_0)\n  dup1\n  dataOffset(sub_0)\n  0x00\n  codecopy\n  0x00\n  return\nstop\n\nsub_0: assembly {\n        /* \"contracts/VotingSystem.sol\":82:1442  contract VotingSystem {... */\n      mstore(0x40, 0x80)\n      callvalue\n      dup1\n      iszero\n      tag_1\n      jumpi\n      0x00\n      dup1\n      revert\n    tag_1:\n      pop\n      jumpi(tag_2, lt(calldatasize, 0x04))\n      shr(0xe0, calldataload(0x00))\n      dup1\n      0x2e4176cf\n      eq\n      tag_3\n      jumpi\n      dup1\n      0x9a6efcc0\n      eq\n      tag_4\n      jumpi\n      dup1\n      0xb8fcf937\n      eq\n      tag_5\n      jumpi\n      dup1\n      0xbbcd5bbe\n      eq\n      tag_6\n      jumpi\n      dup1\n      0xfc36e15b\n      eq\n      tag_7\n      jumpi\n    tag_2:\n      0x00\n      dup1\n      revert\n        /* \"contracts/VotingSystem.sol\":181:207  address public chairperson */\n    tag_3:\n      tag_8\n      tag_9\n      jump\t// in\n    tag_8:\n      mload(0x40)\n      tag_10\n      swap2\n      swap1\n      tag_11\n      jump\t// in\n    tag_10:\n      mload(0x40)\n      dup1\n      swap2\n      sub\n      swap1\n      return\n        /* \"contracts/VotingSystem.sol\":1333:1440  function getEncryptedVotes() external view returns (string[] memory) {... */\n    tag_4:\n      tag_12\n      tag_13\n      jump\t// in\n    tag_12:\n      mload(0x40)\n      tag_14\n      swap2\n      swap1\n      tag_15\n      jump\t// in\n    tag_14:\n      mload(0x40)\n      dup1\n      swap2\n      sub\n      swap1\n      return\n        /* \"contracts/VotingSystem.sol\":110:132  MyToken public myToken */\n    tag_5:\n      tag_16\n      tag_17\n      jump\t// in\n    tag_16:\n      mload(0x40)\n      tag_18\n      swap2\n      swap1\n      tag_19\n      jump\t// in\n    tag_18:\n      mload(0x40)\n      dup1\n      swap2\n      sub\n      swap1\n      return\n        /* \"contracts/VotingSystem.sol\":435:637  function setTokenContract(address _tokenAddress) external {... */\n    tag_6:\n      tag_20\n      0x04\n      dup1\n      calldatasize\n      sub\n      dup2\n      add\n      swap1\n      tag_21\n      swap2\n      swap1\n      tag_22\n      jump\t// in\n    tag_21:\n      tag_23\n      jump\t// in\n    tag_20:\n      stop\n        /* \"contracts/VotingSystem.sol\":643:1327  function vote(string calldata encryptedVote) external {... */\n    tag_7:\n      tag_24\n      0x04\n      dup1\n      calldatasize\n      sub\n      dup2\n      add\n      swap1\n      tag_25\n      swap2\n      swap1\n      tag_26\n      jump\t// in\n    tag_25:\n      tag_27\n      jump\t// in\n    tag_24:\n      stop\n        /* \"contracts/VotingSystem.sol\":181:207  address public chairperson */\n    tag_9:\n      0x01\n      0x00\n      swap1\n      sload\n      swap1\n      0x0100\n      exp\n      swap1\n      div\n      0xffffffffffffffffffffffffffffffffffffffff\n      and\n      dup2\n      jump\t// out\n        /* \"contracts/VotingSystem.sol\":1333:1440  function getEncryptedVotes() external view returns (string[] memory) {... */\n    tag_13:\n        /* \"contracts/VotingSystem.sol\":1385:1400  string[] memory */\n      0x60\n        /* \"contracts/VotingSystem.sol\":1419:1433  encryptedVotes */\n      0x02\n        /* \"contracts/VotingSystem.sol\":1412:1433  return encryptedVotes */\n      dup1\n      sload\n      dup1\n      0x20\n      mul\n      0x20\n      add\n      mload(0x40)\n      swap1\n      dup2\n      add\n      0x40\n      mstore\n      dup1\n      swap3\n      swap2\n      swap1\n      dup2\n      dup2\n      mstore\n      0x20\n      add\n      0x00\n      swap1\n    tag_29:\n      dup3\n      dup3\n      lt\n      iszero\n      tag_30\n      jumpi\n      dup4\n      dup3\n      swap1\n      0x00\n      mstore\n      keccak256(0x00, 0x20)\n      add\n      dup1\n      sload\n      tag_32\n      swap1\n      tag_33\n      jump\t// in\n    tag_32:\n      dup1\n      0x1f\n      add\n      0x20\n      dup1\n      swap2\n      div\n      mul\n      0x20\n      add\n      mload(0x40)\n      swap1\n      dup2\n      add\n      0x40\n      mstore\n      dup1\n      swap3\n      swap2\n      swap1\n      dup2\n      dup2\n      mstore\n      0x20\n      add\n      dup3\n      dup1\n      sload\n      tag_34\n      swap1\n      tag_33\n      jump\t// in\n    tag_34:\n      dup1\n      iszero\n      tag_35\n      jumpi\n      dup1\n      0x1f\n      lt\n      tag_36\n      jumpi\n      0x0100\n      dup1\n      dup4\n      sload\n      div\n      mul\n      dup4\n      mstore\n      swap2\n      0x20\n      add\n      swap2\n      jump(tag_35)\n    tag_36:\n      dup3\n      add\n      swap2\n      swap1\n      0x00\n      mstore\n      keccak256(0x00, 0x20)\n      swap1\n    tag_37:\n      dup2\n      sload\n      dup2\n      mstore\n      swap1\n      0x01\n      add\n      swap1\n      0x20\n      add\n      dup1\n      dup4\n      gt\n      tag_37\n      jumpi\n      dup3\n      swap1\n      sub\n      0x1f\n      and\n      dup3\n      add\n      swap2\n    tag_35:\n      pop\n      pop\n      pop\n      pop\n      pop\n      dup2\n      mstore\n      0x20\n      add\n      swap1\n      0x01\n      add\n      swap1\n      jump(tag_29)\n    tag_30:\n      pop\n      pop\n      pop\n      pop\n      swap1\n      pop\n        /* \"contracts/VotingSystem.sol\":1333:1440  function getEncryptedVotes() external view returns (string[] memory) {... */\n      swap1\n      jump\t// out\n        /* \"contracts/VotingSystem.sol\":110:132  MyToken public myToken */\n    tag_17:\n      0x00\n      dup1\n      sload\n      swap1\n      0x0100\n      exp\n      swap1\n      div\n      0xffffffffffffffffffffffffffffffffffffffff\n      and\n      dup2\n      jump\t// out\n        /* \"contracts/VotingSystem.sol\":435:637  function setTokenContract(address _tokenAddress) external {... */\n    tag_23:\n        /* \"contracts/VotingSystem.sol\":525:536  chairperson */\n      0x01\n      0x00\n      swap1\n      sload\n      swap1\n      0x0100\n      exp\n      swap1\n      div\n      0xffffffffffffffffffffffffffffffffffffffff\n      and\n        /* \"contracts/VotingSystem.sol\":511:536  msg.sender == chairperson */\n      0xffffffffffffffffffffffffffffffffffffffff\n      and\n        /* \"contracts/VotingSystem.sol\":511:521  msg.sender */\n      caller\n        /* \"contracts/VotingSystem.sol\":511:536  msg.sender == chairperson */\n      0xffffffffffffffffffffffffffffffffffffffff\n      and\n      eq\n        /* \"contracts/VotingSystem.sol\":503:588  require(msg.sender == chairperson, \"Only the chairperson can set the token contract\") */\n      tag_39\n      jumpi\n      mload(0x40)\n      0x08c379a000000000000000000000000000000000000000000000000000000000\n      dup2\n      mstore\n      0x04\n      add\n      tag_40\n      swap1\n      tag_41\n      jump\t// in\n    tag_40:\n      mload(0x40)\n      dup1\n      swap2\n      sub\n      swap1\n      revert\n    tag_39:\n        /* \"contracts/VotingSystem.sol\":616:629  _tokenAddress */\n      dup1\n        /* \"contracts/VotingSystem.sol\":598:605  myToken */\n      0x00\n      dup1\n        /* \"contracts/VotingSystem.sol\":598:630  myToken = MyToken(_tokenAddress) */\n      0x0100\n      exp\n      dup2\n      sload\n      dup2\n      0xffffffffffffffffffffffffffffffffffffffff\n      mul\n      not\n      and\n      swap1\n      dup4\n      0xffffffffffffffffffffffffffffffffffffffff\n      and\n      mul\n      or\n      swap1\n      sstore\n      pop\n        /* \"contracts/VotingSystem.sol\":435:637  function setTokenContract(address _tokenAddress) external {... */\n      pop\n      jump\t// out\n        /* \"contracts/VotingSystem.sol\":643:1327  function vote(string calldata encryptedVote) external {... */\n    tag_27:\n        /* \"contracts/VotingSystem.sol\":802:803  0 */\n      0x00\n        /* \"contracts/VotingSystem.sol\":780:804  msg.sender != address(0) */\n      0xffffffffffffffffffffffffffffffffffffffff\n      and\n        /* \"contracts/VotingSystem.sol\":780:790  msg.sender */\n      caller\n        /* \"contracts/VotingSystem.sol\":780:804  msg.sender != address(0) */\n      0xffffffffffffffffffffffffffffffffffffffff\n      and\n      sub\n        /* \"contracts/VotingSystem.sol\":772:831  require(msg.sender != address(0), \"Invalid sender address\") */\n      tag_43\n      jumpi\n      mload(0x40)\n      0x08c379a000000000000000000000000000000000000000000000000000000000\n      dup2\n      mstore\n      0x04\n      add\n      tag_44\n      swap1\n      tag_45\n      jump\t// in\n    tag_44:\n      mload(0x40)\n      dup1\n      swap2\n      sub\n      swap1\n      revert\n    tag_43:\n        /* \"contracts/VotingSystem.sol\":876:877  0 */\n      0x00\n        /* \"contracts/VotingSystem.sol\":849:879  myToken != MyToken(address(0)) */\n      0xffffffffffffffffffffffffffffffffffffffff\n      and\n        /* \"contracts/VotingSystem.sol\":849:856  myToken */\n      0x00\n      dup1\n      sload\n      swap1\n      0x0100\n      exp\n      swap1\n      div\n      0xffffffffffffffffffffffffffffffffffffffff\n      and\n        /* \"contracts/VotingSystem.sol\":849:879  myToken != MyToken(address(0)) */\n      0xffffffffffffffffffffffffffffffffffffffff\n      and\n      sub\n        /* \"contracts/VotingSystem.sol\":841:906  require(myToken != MyToken(address(0)), \"Token contract not set\") */\n      tag_46\n      jumpi\n      mload(0x40)\n      0x08c379a000000000000000000000000000000000000000000000000000000000\n      dup2\n      mstore\n      0x04\n      add\n      tag_47\n      swap1\n      tag_48\n      jump\t// in\n    tag_47:\n      mload(0x40)\n      dup1\n      swap2\n      sub\n      swap1\n      revert\n    tag_46:\n        /* \"contracts/VotingSystem.sol\":963:964  1 */\n      0x01\n        /* \"contracts/VotingSystem.sol\":954:960  10**18 */\n      0x0de0b6b3a7640000\n        /* \"contracts/VotingSystem.sol\":924:931  myToken */\n      0x00\n      dup1\n      sload\n      swap1\n      0x0100\n      exp\n      swap1\n      div\n      0xffffffffffffffffffffffffffffffffffffffff\n      and\n        /* \"contracts/VotingSystem.sol\":924:941  myToken.balanceOf */\n      0xffffffffffffffffffffffffffffffffffffffff\n      and\n      0x70a08231\n        /* \"contracts/VotingSystem.sol\":942:952  msg.sender */\n      caller\n        /* \"contracts/VotingSystem.sol\":924:953  myToken.balanceOf(msg.sender) */\n      mload(0x40)\n      dup3\n      0xffffffff\n      and\n      0xe0\n      shl\n      dup2\n      mstore\n      0x04\n      add\n      tag_49\n      swap2\n      swap1\n      tag_11\n      jump\t// in\n    tag_49:\n      0x20\n      mload(0x40)\n      dup1\n      dup4\n      sub\n      dup2\n      dup7\n      gas\n      staticcall\n      iszero\n      dup1\n      iszero\n      tag_51\n      jumpi\n      returndatasize\n      0x00\n      dup1\n      returndatacopy\n      revert(0x00, returndatasize)\n    tag_51:\n      pop\n      pop\n      pop\n      pop\n      mload(0x40)\n      returndatasize\n      not(0x1f)\n      0x1f\n      dup3\n      add\n      and\n      dup3\n      add\n      dup1\n      0x40\n      mstore\n      pop\n      dup2\n      add\n      swap1\n      tag_52\n      swap2\n      swap1\n      tag_53\n      jump\t// in\n    tag_52:\n        /* \"contracts/VotingSystem.sol\":924:960  myToken.balanceOf(msg.sender)/10**18 */\n      tag_54\n      swap2\n      swap1\n      tag_55\n      jump\t// in\n    tag_54:\n        /* \"contracts/VotingSystem.sol\":924:964  myToken.balanceOf(msg.sender)/10**18 ==1 */\n      eq\n        /* \"contracts/VotingSystem.sol\":916:1031  require(myToken.balanceOf(msg.sender)/10**18 ==1, \"Insufficient tokens to vote or Balance exceedes normal balance\") */\n      tag_56\n      jumpi\n      mload(0x40)\n      0x08c379a000000000000000000000000000000000000000000000000000000000\n      dup2\n      mstore\n      0x04\n      add\n      tag_57\n      swap1\n      tag_58\n      jump\t// in\n    tag_57:\n      mload(0x40)\n      dup1\n      swap2\n      sub\n      swap1\n      revert\n    tag_56:\n        /* \"contracts/VotingSystem.sol\":1108:1115  myToken */\n      0x00\n      dup1\n      sload\n      swap1\n      0x0100\n      exp\n      swap1\n      div\n      0xffffffffffffffffffffffffffffffffffffffff\n      and\n        /* \"contracts/VotingSystem.sol\":1108:1128  myToken.transferFrom */\n      0xffffffffffffffffffffffffffffffffffffffff\n      and\n      0x23b872dd\n        /* \"contracts/VotingSystem.sol\":1129:1139  msg.sender */\n      caller\n        /* \"contracts/VotingSystem.sol\":1149:1153  this */\n      address\n        /* \"contracts/VotingSystem.sol\":1156:1164  1*10**18 */\n      0x0de0b6b3a7640000\n        /* \"contracts/VotingSystem.sol\":1108:1165  myToken.transferFrom(msg.sender, address(this), 1*10**18) */\n      mload(0x40)\n      dup5\n      0xffffffff\n      and\n      0xe0\n      shl\n      dup2\n      mstore\n      0x04\n      add\n      tag_59\n      swap4\n      swap3\n      swap2\n      swap1\n      tag_60\n      jump\t// in\n    tag_59:\n      0x20\n      mload(0x40)\n      dup1\n      dup4\n      sub\n      dup2\n      0x00\n      dup8\n      gas\n      call\n      iszero\n      dup1\n      iszero\n      tag_62\n      jumpi\n      returndatasize\n      0x00\n      dup1\n      returndatacopy\n      revert(0x00, returndatasize)\n    tag_62:\n      pop\n      pop\n      pop\n      pop\n      mload(0x40)\n      returndatasize\n      not(0x1f)\n      0x1f\n      dup3\n      add\n      and\n      dup3\n      add\n      dup1\n      0x40\n      mstore\n      pop\n      dup2\n      add\n      swap1\n      tag_63\n      swap2\n      swap1\n      tag_64\n      jump\t// in\n    tag_63:\n        /* \"contracts/VotingSystem.sol\":1100:1191  require(myToken.transferFrom(msg.sender, address(this), 1*10**18), \"Token transfer failed\") */\n      tag_65\n      jumpi\n      mload(0x40)\n      0x08c379a000000000000000000000000000000000000000000000000000000000\n      dup2\n      mstore\n      0x04\n      add\n      tag_66\n      swap1\n      tag_67\n      jump\t// in\n    tag_66:\n      mload(0x40)\n      dup1\n      swap2\n      sub\n      swap1\n      revert\n    tag_65:\n        /* \"contracts/VotingSystem.sol\":1239:1253  encryptedVotes */\n      0x02\n        /* \"contracts/VotingSystem.sol\":1259:1272  encryptedVote */\n      dup3\n      dup3\n        /* \"contracts/VotingSystem.sol\":1239:1273  encryptedVotes.push(encryptedVote) */\n      swap1\n      swap2\n      dup1\n      0x01\n      dup2\n      sload\n      add\n      dup1\n      dup3\n      sstore\n      dup1\n      swap2\n      pop\n      pop\n      0x01\n      swap1\n      sub\n      swap1\n      0x00\n      mstore\n      keccak256(0x00, 0x20)\n      add\n      0x00\n      swap1\n      swap2\n      swap3\n      swap1\n      swap2\n      swap3\n      swap1\n      swap2\n      swap3\n      swap1\n      swap2\n      swap3\n      pop\n      swap2\n      dup3\n      tag_69\n      swap3\n      swap2\n      swap1\n      tag_70\n      jump\t// in\n    tag_69:\n      pop\n        /* \"contracts/VotingSystem.sol\":1294:1304  msg.sender */\n      caller\n        /* \"contracts/VotingSystem.sol\":1288:1320  Voted(msg.sender, encryptedVote) */\n      0xffffffffffffffffffffffffffffffffffffffff\n      and\n      0xcb6783276e8a4347387036bbfea000268f0a4b1f8c46ac79980609f2af8d2acd\n        /* \"contracts/VotingSystem.sol\":1306:1319  encryptedVote */\n      dup4\n      dup4\n        /* \"contracts/VotingSystem.sol\":1288:1320  Voted(msg.sender, encryptedVote) */\n      mload(0x40)\n      tag_71\n      swap3\n      swap2\n      swap1\n      tag_72\n      jump\t// in\n    tag_71:\n      mload(0x40)\n      dup1\n      swap2\n      sub\n      swap1\n      log2\n        /* \"contracts/VotingSystem.sol\":643:1327  function vote(string calldata encryptedVote) external {... */\n      pop\n      pop\n      jump\t// out\n        /* \"#utility.yul\":7:133   */\n    tag_73:\n        /* \"#utility.yul\":44:51   */\n      0x00\n        /* \"#utility.yul\":84:126   */\n      0xffffffffffffffffffffffffffffffffffffffff\n        /* \"#utility.yul\":77:82   */\n      dup3\n        /* \"#utility.yul\":73:127   */\n      and\n        /* \"#utility.yul\":62:127   */\n      swap1\n      pop\n        /* \"#utility.yul\":7:133   */\n      swap2\n      swap1\n      pop\n      jump\t// out\n        /* \"#utility.yul\":139:235   */\n    tag_74:\n        /* \"#utility.yul\":176:183   */\n      0x00\n        /* \"#utility.yul\":205:229   */\n      tag_145\n        /* \"#utility.yul\":223:228   */\n      dup3\n        /* \"#utility.yul\":205:229   */\n      tag_73\n      jump\t// in\n    tag_145:\n        /* \"#utility.yul\":194:229   */\n      swap1\n      pop\n        /* \"#utility.yul\":139:235   */\n      swap2\n      swap1\n      pop\n      jump\t// out\n        /* \"#utility.yul\":241:359   */\n    tag_75:\n        /* \"#utility.yul\":328:352   */\n      tag_147\n        /* \"#utility.yul\":346:351   */\n      dup2\n        /* \"#utility.yul\":328:352   */\n      tag_74\n      jump\t// in\n    tag_147:\n        /* \"#utility.yul\":323:326   */\n      dup3\n        /* \"#utility.yul\":316:353   */\n      mstore\n        /* \"#utility.yul\":241:359   */\n      pop\n      pop\n      jump\t// out\n        /* \"#utility.yul\":365:587   */\n    tag_11:\n        /* \"#utility.yul\":458:462   */\n      0x00\n        /* \"#utility.yul\":496:498   */\n      0x20\n        /* \"#utility.yul\":485:494   */\n      dup3\n        /* \"#utility.yul\":481:499   */\n      add\n        /* \"#utility.yul\":473:499   */\n      swap1\n      pop\n        /* \"#utility.yul\":509:580   */\n      tag_149\n        /* \"#utility.yul\":577:578   */\n      0x00\n        /* \"#utility.yul\":566:575   */\n      dup4\n        /* \"#utility.yul\":562:579   */\n      add\n        /* \"#utility.yul\":553:559   */\n      dup5\n        /* \"#utility.yul\":509:580   */\n      tag_75\n      jump\t// in\n    tag_149:\n        /* \"#utility.yul\":365:587   */\n      swap3\n      swap2\n      pop\n      pop\n      jump\t// out\n        /* \"#utility.yul\":593:717   */\n    tag_76:\n        /* \"#utility.yul\":670:676   */\n      0x00\n        /* \"#utility.yul\":704:709   */\n      dup2\n        /* \"#utility.yul\":698:710   */\n      mload\n        /* \"#utility.yul\":688:710   */\n      swap1\n      pop\n        /* \"#utility.yul\":593:717   */\n      swap2\n      swap1\n      pop\n      jump\t// out\n        /* \"#utility.yul\":723:917   */\n    tag_77:\n        /* \"#utility.yul\":832:843   */\n      0x00\n        /* \"#utility.yul\":866:872   */\n      dup3\n        /* \"#utility.yul\":861:864   */\n      dup3\n        /* \"#utility.yul\":854:873   */\n      mstore\n        /* \"#utility.yul\":906:910   */\n      0x20\n        /* \"#utility.yul\":901:904   */\n      dup3\n        /* \"#utility.yul\":897:911   */\n      add\n        /* \"#utility.yul\":882:911   */\n      swap1\n      pop\n        /* \"#utility.yul\":723:917   */\n      swap3\n      swap2\n      pop\n      pop\n      jump\t// out\n        /* \"#utility.yul\":923:1065   */\n    tag_78:\n        /* \"#utility.yul\":1000:1004   */\n      0x00\n        /* \"#utility.yul\":1023:1026   */\n      dup2\n        /* \"#utility.yul\":1015:1026   */\n      swap1\n      pop\n        /* \"#utility.yul\":1053:1057   */\n      0x20\n        /* \"#utility.yul\":1048:1051   */\n      dup3\n        /* \"#utility.yul\":1044:1058   */\n      add\n        /* \"#utility.yul\":1036:1058   */\n      swap1\n      pop\n        /* \"#utility.yul\":923:1065   */\n      swap2\n      swap1\n      pop\n      jump\t// out\n        /* \"#utility.yul\":1071:1170   */\n    tag_79:\n        /* \"#utility.yul\":1123:1129   */\n      0x00\n        /* \"#utility.yul\":1157:1162   */\n      dup2\n        /* \"#utility.yul\":1151:1163   */\n      mload\n        /* \"#utility.yul\":1141:1163   */\n      swap1\n      pop\n        /* \"#utility.yul\":1071:1170   */\n      swap2\n      swap1\n      pop\n      jump\t// out\n        /* \"#utility.yul\":1176:1335   */\n    tag_80:\n        /* \"#utility.yul\":1250:1261   */\n      0x00\n        /* \"#utility.yul\":1284:1290   */\n      dup3\n        /* \"#utility.yul\":1279:1282   */\n      dup3\n        /* \"#utility.yul\":1272:1291   */\n      mstore\n        /* \"#utility.yul\":1324:1328   */\n      0x20\n        /* \"#utility.yul\":1319:1322   */\n      dup3\n        /* \"#utility.yul\":1315:1329   */\n      add\n        /* \"#utility.yul\":1300:1329   */\n      swap1\n      pop\n        /* \"#utility.yul\":1176:1335   */\n      swap3\n      swap2\n      pop\n      pop\n      jump\t// out\n        /* \"#utility.yul\":1341:1587   */\n    tag_81:\n        /* \"#utility.yul\":1422:1423   */\n      0x00\n        /* \"#utility.yul\":1432:1545   */\n    tag_156:\n        /* \"#utility.yul\":1446:1452   */\n      dup4\n        /* \"#utility.yul\":1443:1444   */\n      dup2\n        /* \"#utility.yul\":1440:1453   */\n      lt\n        /* \"#utility.yul\":1432:1545   */\n      iszero\n      tag_158\n      jumpi\n        /* \"#utility.yul\":1531:1532   */\n      dup1\n        /* \"#utility.yul\":1526:1529   */\n      dup3\n        /* \"#utility.yul\":1522:1533   */\n      add\n        /* \"#utility.yul\":1516:1534   */\n      mload\n        /* \"#utility.yul\":1512:1513   */\n      dup2\n        /* \"#utility.yul\":1507:1510   */\n      dup5\n        /* \"#utility.yul\":1503:1514   */\n      add\n        /* \"#utility.yul\":1496:1535   */\n      mstore\n        /* \"#utility.yul\":1468:1470   */\n      0x20\n        /* \"#utility.yul\":1465:1466   */\n      dup2\n        /* \"#utility.yul\":1461:1471   */\n      add\n        /* \"#utility.yul\":1456:1471   */\n      swap1\n      pop\n        /* \"#utility.yul\":1432:1545   */\n      jump(tag_156)\n    tag_158:\n        /* \"#utility.yul\":1579:1580   */\n      0x00\n        /* \"#utility.yul\":1570:1576   */\n      dup5\n        /* \"#utility.yul\":1565:1568   */\n      dup5\n        /* \"#utility.yul\":1561:1577   */\n      add\n        /* \"#utility.yul\":1554:1581   */\n      mstore\n        /* \"#utility.yul\":1403:1587   */\n      pop\n        /* \"#utility.yul\":1341:1587   */\n      pop\n      pop\n      pop\n      jump\t// out\n        /* \"#utility.yul\":1593:1695   */\n    tag_82:\n        /* \"#utility.yul\":1634:1640   */\n      0x00\n        /* \"#utility.yul\":1685:1687   */\n      0x1f\n        /* \"#utility.yul\":1681:1688   */\n      not\n        /* \"#utility.yul\":1676:1678   */\n      0x1f\n        /* \"#utility.yul\":1669:1674   */\n      dup4\n        /* \"#utility.yul\":1665:1679   */\n      add\n        /* \"#utility.yul\":1661:1689   */\n      and\n        /* \"#utility.yul\":1651:1689   */\n      swap1\n      pop\n        /* \"#utility.yul\":1593:1695   */\n      swap2\n      swap1\n      pop\n      jump\t// out\n        /* \"#utility.yul\":1701:2058   */\n    tag_83:\n        /* \"#utility.yul\":1779:1782   */\n      0x00\n        /* \"#utility.yul\":1807:1846   */\n      tag_161\n        /* \"#utility.yul\":1840:1845   */\n      dup3\n        /* \"#utility.yul\":1807:1846   */\n      tag_79\n      jump\t// in\n    tag_161:\n        /* \"#utility.yul\":1862:1923   */\n      tag_162\n        /* \"#utility.yul\":1916:1922   */\n      dup2\n        /* \"#utility.yul\":1911:1914   */\n      dup6\n        /* \"#utility.yul\":1862:1923   */\n      tag_80\n      jump\t// in\n    tag_162:\n        /* \"#utility.yul\":1855:1923   */\n      swap4\n      pop\n        /* \"#utility.yul\":1932:1997   */\n      tag_163\n        /* \"#utility.yul\":1990:1996   */\n      dup2\n        /* \"#utility.yul\":1985:1988   */\n      dup6\n        /* \"#utility.yul\":1978:1982   */\n      0x20\n        /* \"#utility.yul\":1971:1976   */\n      dup7\n        /* \"#utility.yul\":1967:1983   */\n      add\n        /* \"#utility.yul\":1932:1997   */\n      tag_81\n      jump\t// in\n    tag_163:\n        /* \"#utility.yul\":2022:2051   */\n      tag_164\n        /* \"#utility.yul\":2044:2050   */\n      dup2\n        /* \"#utility.yul\":2022:2051   */\n      tag_82\n      jump\t// in\n    tag_164:\n        /* \"#utility.yul\":2017:2020   */\n      dup5\n        /* \"#utility.yul\":2013:2052   */\n      add\n        /* \"#utility.yul\":2006:2052   */\n      swap2\n      pop\n        /* \"#utility.yul\":1783:2058   */\n      pop\n        /* \"#utility.yul\":1701:2058   */\n      swap3\n      swap2\n      pop\n      pop\n      jump\t// out\n        /* \"#utility.yul\":2064:2260   */\n    tag_84:\n        /* \"#utility.yul\":2153:2163   */\n      0x00\n        /* \"#utility.yul\":2188:2254   */\n      tag_166\n        /* \"#utility.yul\":2250:2253   */\n      dup4\n        /* \"#utility.yul\":2242:2248   */\n      dup4\n        /* \"#utility.yul\":2188:2254   */\n      tag_83\n      jump\t// in\n    tag_166:\n        /* \"#utility.yul\":2174:2254   */\n      swap1\n      pop\n        /* \"#utility.yul\":2064:2260   */\n      swap3\n      swap2\n      pop\n      pop\n      jump\t// out\n        /* \"#utility.yul\":2266:2389   */\n    tag_85:\n        /* \"#utility.yul\":2346:2350   */\n      0x00\n        /* \"#utility.yul\":2378:2382   */\n      0x20\n        /* \"#utility.yul\":2373:2376   */\n      dup3\n        /* \"#utility.yul\":2369:2383   */\n      add\n        /* \"#utility.yul\":2361:2383   */\n      swap1\n      pop\n        /* \"#utility.yul\":2266:2389   */\n      swap2\n      swap1\n      pop\n      jump\t// out\n        /* \"#utility.yul\":2423:3414   */\n    tag_86:\n        /* \"#utility.yul\":2562:2565   */\n      0x00\n        /* \"#utility.yul\":2591:2655   */\n      tag_169\n        /* \"#utility.yul\":2649:2654   */\n      dup3\n        /* \"#utility.yul\":2591:2655   */\n      tag_76\n      jump\t// in\n    tag_169:\n        /* \"#utility.yul\":2671:2767   */\n      tag_170\n        /* \"#utility.yul\":2760:2766   */\n      dup2\n        /* \"#utility.yul\":2755:2758   */\n      dup6\n        /* \"#utility.yul\":2671:2767   */\n      tag_77\n      jump\t// in\n    tag_170:\n        /* \"#utility.yul\":2664:2767   */\n      swap4\n      pop\n        /* \"#utility.yul\":2793:2796   */\n      dup4\n        /* \"#utility.yul\":2838:2842   */\n      0x20\n        /* \"#utility.yul\":2830:2836   */\n      dup3\n        /* \"#utility.yul\":2826:2843   */\n      mul\n        /* \"#utility.yul\":2821:2824   */\n      dup6\n        /* \"#utility.yul\":2817:2844   */\n      add\n        /* \"#utility.yul\":2868:2934   */\n      tag_171\n        /* \"#utility.yul\":2928:2933   */\n      dup6\n        /* \"#utility.yul\":2868:2934   */\n      tag_78\n      jump\t// in\n    tag_171:\n        /* \"#utility.yul\":2957:2964   */\n      dup1\n        /* \"#utility.yul\":2988:2989   */\n      0x00\n        /* \"#utility.yul\":2973:3369   */\n    tag_172:\n        /* \"#utility.yul\":2998:3004   */\n      dup6\n        /* \"#utility.yul\":2995:2996   */\n      dup2\n        /* \"#utility.yul\":2992:3005   */\n      lt\n        /* \"#utility.yul\":2973:3369   */\n      iszero\n      tag_174\n      jumpi\n        /* \"#utility.yul\":3069:3078   */\n      dup5\n        /* \"#utility.yul\":3063:3067   */\n      dup5\n        /* \"#utility.yul\":3059:3079   */\n      sub\n        /* \"#utility.yul\":3054:3057   */\n      dup10\n        /* \"#utility.yul\":3047:3080   */\n      mstore\n        /* \"#utility.yul\":3120:3126   */\n      dup2\n        /* \"#utility.yul\":3114:3127   */\n      mload\n        /* \"#utility.yul\":3148:3232   */\n      tag_175\n        /* \"#utility.yul\":3227:3231   */\n      dup6\n        /* \"#utility.yul\":3212:3225   */\n      dup3\n        /* \"#utility.yul\":3148:3232   */\n      tag_84\n      jump\t// in\n    tag_175:\n        /* \"#utility.yul\":3140:3232   */\n      swap5\n      pop\n        /* \"#utility.yul\":3255:3325   */\n      tag_176\n        /* \"#utility.yul\":3318:3324   */\n      dup4\n        /* \"#utility.yul\":3255:3325   */\n      tag_85\n      jump\t// in\n    tag_176:\n        /* \"#utility.yul\":3245:3325   */\n      swap3\n      pop\n        /* \"#utility.yul\":3354:3358   */\n      0x20\n        /* \"#utility.yul\":3349:3352   */\n      dup11\n        /* \"#utility.yul\":3345:3359   */\n      add\n        /* \"#utility.yul\":3338:3359   */\n      swap10\n      pop\n        /* \"#utility.yul\":3033:3369   */\n      pop\n        /* \"#utility.yul\":3020:3021   */\n      0x01\n        /* \"#utility.yul\":3017:3018   */\n      dup2\n        /* \"#utility.yul\":3013:3022   */\n      add\n        /* \"#utility.yul\":3008:3022   */\n      swap1\n      pop\n        /* \"#utility.yul\":2973:3369   */\n      jump(tag_172)\n    tag_174:\n        /* \"#utility.yul\":2977:2991   */\n      pop\n        /* \"#utility.yul\":3385:3389   */\n      dup3\n        /* \"#utility.yul\":3378:3389   */\n      swap8\n      pop\n        /* \"#utility.yul\":3405:3408   */\n      dup8\n        /* \"#utility.yul\":3398:3408   */\n      swap6\n      pop\n        /* \"#utility.yul\":2567:3414   */\n      pop\n      pop\n      pop\n      pop\n      pop\n        /* \"#utility.yul\":2423:3414   */\n      swap3\n      swap2\n      pop\n      pop\n      jump\t// out\n        /* \"#utility.yul\":3420:3833   */\n    tag_15:\n        /* \"#utility.yul\":3583:3587   */\n      0x00\n        /* \"#utility.yul\":3621:3623   */\n      0x20\n        /* \"#utility.yul\":3610:3619   */\n      dup3\n        /* \"#utility.yul\":3606:3624   */\n      add\n        /* \"#utility.yul\":3598:3624   */\n      swap1\n      pop\n        /* \"#utility.yul\":3670:3679   */\n      dup2\n        /* \"#utility.yul\":3664:3668   */\n      dup2\n        /* \"#utility.yul\":3660:3680   */\n      sub\n        /* \"#utility.yul\":3656:3657   */\n      0x00\n        /* \"#utility.yul\":3645:3654   */\n      dup4\n        /* \"#utility.yul\":3641:3658   */\n      add\n        /* \"#utility.yul\":3634:3681   */\n      mstore\n        /* \"#utility.yul\":3698:3826   */\n      tag_178\n        /* \"#utility.yul\":3821:3825   */\n      dup2\n        /* \"#utility.yul\":3812:3818   */\n      dup5\n        /* \"#utility.yul\":3698:3826   */\n      tag_86\n      jump\t// in\n    tag_178:\n        /* \"#utility.yul\":3690:3826   */\n      swap1\n      pop\n        /* \"#utility.yul\":3420:3833   */\n      swap3\n      swap2\n      pop\n      pop\n      jump\t// out\n        /* \"#utility.yul\":3839:3899   */\n    tag_87:\n        /* \"#utility.yul\":3867:3870   */\n      0x00\n        /* \"#utility.yul\":3888:3893   */\n      dup2\n        /* \"#utility.yul\":3881:3893   */\n      swap1\n      pop\n        /* \"#utility.yul\":3839:3899   */\n      swap2\n      swap1\n      pop\n      jump\t// out\n        /* \"#utility.yul\":3905:4047   */\n    tag_88:\n        /* \"#utility.yul\":3955:3964   */\n      0x00\n        /* \"#utility.yul\":3988:4041   */\n      tag_181\n        /* \"#utility.yul\":4006:4040   */\n      tag_182\n        /* \"#utility.yul\":4015:4039   */\n      tag_183\n        /* \"#utility.yul\":4033:4038   */\n      dup5\n        /* \"#utility.yul\":4015:4039   */\n      tag_73\n      jump\t// in\n    tag_183:\n        /* \"#utility.yul\":4006:4040   */\n      tag_87\n      jump\t// in\n    tag_182:\n        /* \"#utility.yul\":3988:4041   */\n      tag_73\n      jump\t// in\n    tag_181:\n        /* \"#utility.yul\":3975:4041   */\n      swap1\n      pop\n        /* \"#utility.yul\":3905:4047   */\n      swap2\n      swap1\n      pop\n      jump\t// out\n        /* \"#utility.yul\":4053:4179   */\n    tag_89:\n        /* \"#utility.yul\":4103:4112   */\n      0x00\n        /* \"#utility.yul\":4136:4173   */\n      tag_185\n        /* \"#utility.yul\":4167:4172   */\n      dup3\n        /* \"#utility.yul\":4136:4173   */\n      tag_88\n      jump\t// in\n    tag_185:\n        /* \"#utility.yul\":4123:4173   */\n      swap1\n      pop\n        /* \"#utility.yul\":4053:4179   */\n      swap2\n      swap1\n      pop\n      jump\t// out\n        /* \"#utility.yul\":4185:4326   */\n    tag_90:\n        /* \"#utility.yul\":4250:4259   */\n      0x00\n        /* \"#utility.yul\":4283:4320   */\n      tag_187\n        /* \"#utility.yul\":4314:4319   */\n      dup3\n        /* \"#utility.yul\":4283:4320   */\n      tag_89\n      jump\t// in\n    tag_187:\n        /* \"#utility.yul\":4270:4320   */\n      swap1\n      pop\n        /* \"#utility.yul\":4185:4326   */\n      swap2\n      swap1\n      pop\n      jump\t// out\n        /* \"#utility.yul\":4332:4493   */\n    tag_91:\n        /* \"#utility.yul\":4434:4486   */\n      tag_189\n        /* \"#utility.yul\":4480:4485   */\n      dup2\n        /* \"#utility.yul\":4434:4486   */\n      tag_90\n      jump\t// in\n    tag_189:\n        /* \"#utility.yul\":4429:4432   */\n      dup3\n        /* \"#utility.yul\":4422:4487   */\n      mstore\n        /* \"#utility.yul\":4332:4493   */\n      pop\n      pop\n      jump\t// out\n        /* \"#utility.yul\":4499:4751   */\n    tag_19:\n        /* \"#utility.yul\":4607:4611   */\n      0x00\n        /* \"#utility.yul\":4645:4647   */\n      0x20\n        /* \"#utility.yul\":4634:4643   */\n      dup3\n        /* \"#utility.yul\":4630:4648   */\n      add\n        /* \"#utility.yul\":4622:4648   */\n      swap1\n      pop\n        /* \"#utility.yul\":4658:4744   */\n      tag_191\n        /* \"#utility.yul\":4741:4742   */\n      0x00\n        /* \"#utility.yul\":4730:4739   */\n      dup4\n        /* \"#utility.yul\":4726:4743   */\n      add\n        /* \"#utility.yul\":4717:4723   */\n      dup5\n        /* \"#utility.yul\":4658:4744   */\n      tag_91\n      jump\t// in\n    tag_191:\n        /* \"#utility.yul\":4499:4751   */\n      swap3\n      swap2\n      pop\n      pop\n      jump\t// out\n        /* \"#utility.yul\":4838:4955   */\n    tag_93:\n        /* \"#utility.yul\":4947:4948   */\n      0x00\n        /* \"#utility.yul\":4944:4945   */\n      dup1\n        /* \"#utility.yul\":4937:4949   */\n      revert\n        /* \"#utility.yul\":4961:5078   */\n    tag_94:\n        /* \"#utility.yul\":5070:5071   */\n      0x00\n        /* \"#utility.yul\":5067:5068   */\n      dup1\n        /* \"#utility.yul\":5060:5072   */\n      revert\n        /* \"#utility.yul\":5084:5206   */\n    tag_95:\n        /* \"#utility.yul\":5157:5181   */\n      tag_196\n        /* \"#utility.yul\":5175:5180   */\n      dup2\n        /* \"#utility.yul\":5157:5181   */\n      tag_74\n      jump\t// in\n    tag_196:\n        /* \"#utility.yul\":5150:5155   */\n      dup2\n        /* \"#utility.yul\":5147:5182   */\n      eq\n        /* \"#utility.yul\":5137:5200   */\n      tag_197\n      jumpi\n        /* \"#utility.yul\":5196:5197   */\n      0x00\n        /* \"#utility.yul\":5193:5194   */\n      dup1\n        /* \"#utility.yul\":5186:5198   */\n      revert\n        /* \"#utility.yul\":5137:5200   */\n    tag_197:\n        /* \"#utility.yul\":5084:5206   */\n      pop\n      jump\t// out\n        /* \"#utility.yul\":5212:5351   */\n    tag_96:\n        /* \"#utility.yul\":5258:5263   */\n      0x00\n        /* \"#utility.yul\":5296:5302   */\n      dup2\n        /* \"#utility.yul\":5283:5303   */\n      calldataload\n        /* \"#utility.yul\":5274:5303   */\n      swap1\n      pop\n        /* \"#utility.yul\":5312:5345   */\n      tag_199\n        /* \"#utility.yul\":5339:5344   */\n      dup2\n        /* \"#utility.yul\":5312:5345   */\n      tag_95\n      jump\t// in\n    tag_199:\n        /* \"#utility.yul\":5212:5351   */\n      swap3\n      swap2\n      pop\n      pop\n      jump\t// out\n        /* \"#utility.yul\":5357:5686   */\n    tag_22:\n        /* \"#utility.yul\":5416:5422   */\n      0x00\n        /* \"#utility.yul\":5465:5467   */\n      0x20\n        /* \"#utility.yul\":5453:5462   */\n      dup3\n        /* \"#utility.yul\":5444:5451   */\n      dup5\n        /* \"#utility.yul\":5440:5463   */\n      sub\n        /* \"#utility.yul\":5436:5468   */\n      slt\n        /* \"#utility.yul\":5433:5552   */\n      iszero\n      tag_201\n      jumpi\n        /* \"#utility.yul\":5471:5550   */\n      tag_202\n      tag_93\n      jump\t// in\n    tag_202:\n        /* \"#utility.yul\":5433:5552   */\n    tag_201:\n        /* \"#utility.yul\":5591:5592   */\n      0x00\n        /* \"#utility.yul\":5616:5669   */\n      tag_203\n        /* \"#utility.yul\":5661:5668   */\n      dup5\n        /* \"#utility.yul\":5652:5658   */\n      dup3\n        /* \"#utility.yul\":5641:5650   */\n      dup6\n        /* \"#utility.yul\":5637:5659   */\n      add\n        /* \"#utility.yul\":5616:5669   */\n      tag_96\n      jump\t// in\n    tag_203:\n        /* \"#utility.yul\":5606:5669   */\n      swap2\n      pop\n        /* \"#utility.yul\":5562:5679   */\n      pop\n        /* \"#utility.yul\":5357:5686   */\n      swap3\n      swap2\n      pop\n      pop\n      jump\t// out\n        /* \"#utility.yul\":5692:5809   */\n    tag_97:\n        /* \"#utility.yul\":5801:5802   */\n      0x00\n        /* \"#utility.yul\":5798:5799   */\n      dup1\n        /* \"#utility.yul\":5791:5803   */\n      revert\n        /* \"#utility.yul\":5815:5932   */\n    tag_98:\n        /* \"#utility.yul\":5924:5925   */\n      0x00\n        /* \"#utility.yul\":5921:5922   */\n      dup1\n        /* \"#utility.yul\":5914:5926   */\n      revert\n        /* \"#utility.yul\":5938:6055   */\n    tag_99:\n        /* \"#utility.yul\":6047:6048   */\n      0x00\n        /* \"#utility.yul\":6044:6045   */\n      dup1\n        /* \"#utility.yul\":6037:6049   */\n      revert\n        /* \"#utility.yul\":6075:6628   */\n    tag_100:\n        /* \"#utility.yul\":6133:6141   */\n      0x00\n        /* \"#utility.yul\":6143:6149   */\n      dup1\n        /* \"#utility.yul\":6193:6196   */\n      dup4\n        /* \"#utility.yul\":6186:6190   */\n      0x1f\n        /* \"#utility.yul\":6178:6184   */\n      dup5\n        /* \"#utility.yul\":6174:6191   */\n      add\n        /* \"#utility.yul\":6170:6197   */\n      slt\n        /* \"#utility.yul\":6160:6282   */\n      tag_208\n      jumpi\n        /* \"#utility.yul\":6201:6280   */\n      tag_209\n      tag_97\n      jump\t// in\n    tag_209:\n        /* \"#utility.yul\":6160:6282   */\n    tag_208:\n        /* \"#utility.yul\":6314:6320   */\n      dup3\n        /* \"#utility.yul\":6301:6321   */\n      calldataload\n        /* \"#utility.yul\":6291:6321   */\n      swap1\n      pop\n        /* \"#utility.yul\":6344:6362   */\n      0xffffffffffffffff\n        /* \"#utility.yul\":6336:6342   */\n      dup2\n        /* \"#utility.yul\":6333:6363   */\n      gt\n        /* \"#utility.yul\":6330:6447   */\n      iszero\n      tag_210\n      jumpi\n        /* \"#utility.yul\":6366:6445   */\n      tag_211\n      tag_98\n      jump\t// in\n    tag_211:\n        /* \"#utility.yul\":6330:6447   */\n    tag_210:\n        /* \"#utility.yul\":6480:6484   */\n      0x20\n        /* \"#utility.yul\":6472:6478   */\n      dup4\n        /* \"#utility.yul\":6468:6485   */\n      add\n        /* \"#utility.yul\":6456:6485   */\n      swap2\n      pop\n        /* \"#utility.yul\":6534:6537   */\n      dup4\n        /* \"#utility.yul\":6526:6530   */\n      0x01\n        /* \"#utility.yul\":6518:6524   */\n      dup3\n        /* \"#utility.yul\":6514:6531   */\n      mul\n        /* \"#utility.yul\":6504:6512   */\n      dup4\n        /* \"#utility.yul\":6500:6532   */\n      add\n        /* \"#utility.yul\":6497:6538   */\n      gt\n        /* \"#utility.yul\":6494:6622   */\n      iszero\n      tag_212\n      jumpi\n        /* \"#utility.yul\":6541:6620   */\n      tag_213\n      tag_99\n      jump\t// in\n    tag_213:\n        /* \"#utility.yul\":6494:6622   */\n    tag_212:\n        /* \"#utility.yul\":6075:6628   */\n      swap3\n      pop\n      swap3\n      swap1\n      pop\n      jump\t// out\n        /* \"#utility.yul\":6634:7163   */\n    tag_26:\n        /* \"#utility.yul\":6705:6711   */\n      0x00\n        /* \"#utility.yul\":6713:6719   */\n      dup1\n        /* \"#utility.yul\":6762:6764   */\n      0x20\n        /* \"#utility.yul\":6750:6759   */\n      dup4\n        /* \"#utility.yul\":6741:6748   */\n      dup6\n        /* \"#utility.yul\":6737:6760   */\n      sub\n        /* \"#utility.yul\":6733:6765   */\n      slt\n        /* \"#utility.yul\":6730:6849   */\n      iszero\n      tag_215\n      jumpi\n        /* \"#utility.yul\":6768:6847   */\n      tag_216\n      tag_93\n      jump\t// in\n    tag_216:\n        /* \"#utility.yul\":6730:6849   */\n    tag_215:\n        /* \"#utility.yul\":6916:6917   */\n      0x00\n        /* \"#utility.yul\":6905:6914   */\n      dup4\n        /* \"#utility.yul\":6901:6918   */\n      add\n        /* \"#utility.yul\":6888:6919   */\n      calldataload\n        /* \"#utility.yul\":6946:6964   */\n      0xffffffffffffffff\n        /* \"#utility.yul\":6938:6944   */\n      dup2\n        /* \"#utility.yul\":6935:6965   */\n      gt\n        /* \"#utility.yul\":6932:7049   */\n      iszero\n      tag_217\n      jumpi\n        /* \"#utility.yul\":6968:7047   */\n      tag_218\n      tag_94\n      jump\t// in\n    tag_218:\n        /* \"#utility.yul\":6932:7049   */\n    tag_217:\n        /* \"#utility.yul\":7081:7146   */\n      tag_219\n        /* \"#utility.yul\":7138:7145   */\n      dup6\n        /* \"#utility.yul\":7129:7135   */\n      dup3\n        /* \"#utility.yul\":7118:7127   */\n      dup7\n        /* \"#utility.yul\":7114:7136   */\n      add\n        /* \"#utility.yul\":7081:7146   */\n      tag_100\n      jump\t// in\n    tag_219:\n        /* \"#utility.yul\":7063:7146   */\n      swap3\n      pop\n      swap3\n      pop\n        /* \"#utility.yul\":6859:7156   */\n      pop\n        /* \"#utility.yul\":6634:7163   */\n      swap3\n      pop\n      swap3\n      swap1\n      pop\n      jump\t// out\n        /* \"#utility.yul\":7169:7349   */\n    tag_101:\n        /* \"#utility.yul\":7217:7294   */\n      0x4e487b7100000000000000000000000000000000000000000000000000000000\n        /* \"#utility.yul\":7214:7215   */\n      0x00\n        /* \"#utility.yul\":7207:7295   */\n      mstore\n        /* \"#utility.yul\":7314:7318   */\n      0x22\n        /* \"#utility.yul\":7311:7312   */\n      0x04\n        /* \"#utility.yul\":7304:7319   */\n      mstore\n        /* \"#utility.yul\":7338:7342   */\n      0x24\n        /* \"#utility.yul\":7335:7336   */\n      0x00\n        /* \"#utility.yul\":7328:7343   */\n      revert\n        /* \"#utility.yul\":7355:7675   */\n    tag_33:\n        /* \"#utility.yul\":7399:7405   */\n      0x00\n        /* \"#utility.yul\":7436:7437   */\n      0x02\n        /* \"#utility.yul\":7430:7434   */\n      dup3\n        /* \"#utility.yul\":7426:7438   */\n      div\n        /* \"#utility.yul\":7416:7438   */\n      swap1\n      pop\n        /* \"#utility.yul\":7483:7484   */\n      0x01\n        /* \"#utility.yul\":7477:7481   */\n      dup3\n        /* \"#utility.yul\":7473:7485   */\n      and\n        /* \"#utility.yul\":7504:7522   */\n      dup1\n        /* \"#utility.yul\":7494:7575   */\n      tag_222\n      jumpi\n        /* \"#utility.yul\":7560:7564   */\n      0x7f\n        /* \"#utility.yul\":7552:7558   */\n      dup3\n        /* \"#utility.yul\":7548:7565   */\n      and\n        /* \"#utility.yul\":7538:7565   */\n      swap2\n      pop\n        /* \"#utility.yul\":7494:7575   */\n    tag_222:\n        /* \"#utility.yul\":7622:7624   */\n      0x20\n        /* \"#utility.yul\":7614:7620   */\n      dup3\n        /* \"#utility.yul\":7611:7625   */\n      lt\n        /* \"#utility.yul\":7591:7609   */\n      dup2\n        /* \"#utility.yul\":7588:7626   */\n      sub\n        /* \"#utility.yul\":7585:7669   */\n      tag_223\n      jumpi\n        /* \"#utility.yul\":7641:7659   */\n      tag_224\n      tag_101\n      jump\t// in\n    tag_224:\n        /* \"#utility.yul\":7585:7669   */\n    tag_223:\n        /* \"#utility.yul\":7406:7675   */\n      pop\n        /* \"#utility.yul\":7355:7675   */\n      swap2\n      swap1\n      pop\n      jump\t// out\n        /* \"#utility.yul\":7681:7850   */\n    tag_102:\n        /* \"#utility.yul\":7765:7776   */\n      0x00\n        /* \"#utility.yul\":7799:7805   */\n      dup3\n        /* \"#utility.yul\":7794:7797   */\n      dup3\n        /* \"#utility.yul\":7787:7806   */\n      mstore\n        /* \"#utility.yul\":7839:7843   */\n      0x20\n        /* \"#utility.yul\":7834:7837   */\n      dup3\n        /* \"#utility.yul\":7830:7844   */\n      add\n        /* \"#utility.yul\":7815:7844   */\n      swap1\n      pop\n        /* \"#utility.yul\":7681:7850   */\n      swap3\n      swap2\n      pop\n      pop\n      jump\t// out\n        /* \"#utility.yul\":7856:8090   */\n    tag_103:\n        /* \"#utility.yul\":7996:8030   */\n      0x4f6e6c7920746865206368616972706572736f6e2063616e2073657420746865\n        /* \"#utility.yul\":7992:7993   */\n      0x00\n        /* \"#utility.yul\":7984:7990   */\n      dup3\n        /* \"#utility.yul\":7980:7994   */\n      add\n        /* \"#utility.yul\":7973:8031   */\n      mstore\n        /* \"#utility.yul\":8065:8082   */\n      0x20746f6b656e20636f6e74726163740000000000000000000000000000000000\n        /* \"#utility.yul\":8060:8062   */\n      0x20\n        /* \"#utility.yul\":8052:8058   */\n      dup3\n        /* \"#utility.yul\":8048:8063   */\n      add\n        /* \"#utility.yul\":8041:8083   */\n      mstore\n        /* \"#utility.yul\":7856:8090   */\n      pop\n      jump\t// out\n        /* \"#utility.yul\":8096:8462   */\n    tag_104:\n        /* \"#utility.yul\":8238:8241   */\n      0x00\n        /* \"#utility.yul\":8259:8326   */\n      tag_228\n        /* \"#utility.yul\":8323:8325   */\n      0x2f\n        /* \"#utility.yul\":8318:8321   */\n      dup4\n        /* \"#utility.yul\":8259:8326   */\n      tag_102\n      jump\t// in\n    tag_228:\n        /* \"#utility.yul\":8252:8326   */\n      swap2\n      pop\n        /* \"#utility.yul\":8335:8428   */\n      tag_229\n        /* \"#utility.yul\":8424:8427   */\n      dup3\n        /* \"#utility.yul\":8335:8428   */\n      tag_103\n      jump\t// in\n    tag_229:\n        /* \"#utility.yul\":8453:8455   */\n      0x40\n        /* \"#utility.yul\":8448:8451   */\n      dup3\n        /* \"#utility.yul\":8444:8456   */\n      add\n        /* \"#utility.yul\":8437:8456   */\n      swap1\n      pop\n        /* \"#utility.yul\":8096:8462   */\n      swap2\n      swap1\n      pop\n      jump\t// out\n        /* \"#utility.yul\":8468:8887   */\n    tag_41:\n        /* \"#utility.yul\":8634:8638   */\n      0x00\n        /* \"#utility.yul\":8672:8674   */\n      0x20\n        /* \"#utility.yul\":8661:8670   */\n      dup3\n        /* \"#utility.yul\":8657:8675   */\n      add\n        /* \"#utility.yul\":8649:8675   */\n      swap1\n      pop\n        /* \"#utility.yul\":8721:8730   */\n      dup2\n        /* \"#utility.yul\":8715:8719   */\n      dup2\n        /* \"#utility.yul\":8711:8731   */\n      sub\n        /* \"#utility.yul\":8707:8708   */\n      0x00\n        /* \"#utility.yul\":8696:8705   */\n      dup4\n        /* \"#utility.yul\":8692:8709   */\n      add\n        /* \"#utility.yul\":8685:8732   */\n      mstore\n        /* \"#utility.yul\":8749:8880   */\n      tag_231\n        /* \"#utility.yul\":8875:8879   */\n      dup2\n        /* \"#utility.yul\":8749:8880   */\n      tag_104\n      jump\t// in\n    tag_231:\n        /* \"#utility.yul\":8741:8880   */\n      swap1\n      pop\n        /* \"#utility.yul\":8468:8887   */\n      swap2\n      swap1\n      pop\n      jump\t// out\n        /* \"#utility.yul\":8893:9065   */\n    tag_105:\n        /* \"#utility.yul\":9033:9057   */\n      0x496e76616c69642073656e646572206164647265737300000000000000000000\n        /* \"#utility.yul\":9029:9030   */\n      0x00\n        /* \"#utility.yul\":9021:9027   */\n      dup3\n        /* \"#utility.yul\":9017:9031   */\n      add\n        /* \"#utility.yul\":9010:9058   */\n      mstore\n        /* \"#utility.yul\":8893:9065   */\n      pop\n      jump\t// out\n        /* \"#utility.yul\":9071:9437   */\n    tag_106:\n        /* \"#utility.yul\":9213:9216   */\n      0x00\n        /* \"#utility.yul\":9234:9301   */\n      tag_234\n        /* \"#utility.yul\":9298:9300   */\n      0x16\n        /* \"#utility.yul\":9293:9296   */\n      dup4\n        /* \"#utility.yul\":9234:9301   */\n      tag_102\n      jump\t// in\n    tag_234:\n        /* \"#utility.yul\":9227:9301   */\n      swap2\n      pop\n        /* \"#utility.yul\":9310:9403   */\n      tag_235\n        /* \"#utility.yul\":9399:9402   */\n      dup3\n        /* \"#utility.yul\":9310:9403   */\n      tag_105\n      jump\t// in\n    tag_235:\n        /* \"#utility.yul\":9428:9430   */\n      0x20\n        /* \"#utility.yul\":9423:9426   */\n      dup3\n        /* \"#utility.yul\":9419:9431   */\n      add\n        /* \"#utility.yul\":9412:9431   */\n      swap1\n      pop\n        /* \"#utility.yul\":9071:9437   */\n      swap2\n      swap1\n      pop\n      jump\t// out\n        /* \"#utility.yul\":9443:9862   */\n    tag_45:\n        /* \"#utility.yul\":9609:9613   */\n      0x00\n        /* \"#utility.yul\":9647:9649   */\n      0x20\n        /* \"#utility.yul\":9636:9645   */\n      dup3\n        /* \"#utility.yul\":9632:9650   */\n      add\n        /* \"#utility.yul\":9624:9650   */\n      swap1\n      pop\n        /* \"#utility.yul\":9696:9705   */\n      dup2\n        /* \"#utility.yul\":9690:9694   */\n      dup2\n        /* \"#utility.yul\":9686:9706   */\n      sub\n        /* \"#utility.yul\":9682:9683   */\n      0x00\n        /* \"#utility.yul\":9671:9680   */\n      dup4\n        /* \"#utility.yul\":9667:9684   */\n      add\n        /* \"#utility.yul\":9660:9707   */\n      mstore\n        /* \"#utility.yul\":9724:9855   */\n      tag_237\n        /* \"#utility.yul\":9850:9854   */\n      dup2\n        /* \"#utility.yul\":9724:9855   */\n      tag_106\n      jump\t// in\n    tag_237:\n        /* \"#utility.yul\":9716:9855   */\n      swap1\n      pop\n        /* \"#utility.yul\":9443:9862   */\n      swap2\n      swap1\n      pop\n      jump\t// out\n        /* \"#utility.yul\":9868:10040   */\n    tag_107:\n        /* \"#utility.yul\":10008:10032   */\n      0x546f6b656e20636f6e7472616374206e6f742073657400000000000000000000\n        /* \"#utility.yul\":10004:10005   */\n      0x00\n        /* \"#utility.yul\":9996:10002   */\n      dup3\n        /* \"#utility.yul\":9992:10006   */\n      add\n        /* \"#utility.yul\":9985:10033   */\n      mstore\n        /* \"#utility.yul\":9868:10040   */\n      pop\n      jump\t// out\n        /* \"#utility.yul\":10046:10412   */\n    tag_108:\n        /* \"#utility.yul\":10188:10191   */\n      0x00\n        /* \"#utility.yul\":10209:10276   */\n      tag_240\n        /* \"#utility.yul\":10273:10275   */\n      0x16\n        /* \"#utility.yul\":10268:10271   */\n      dup4\n        /* \"#utility.yul\":10209:10276   */\n      tag_102\n      jump\t// in\n    tag_240:\n        /* \"#utility.yul\":10202:10276   */\n      swap2\n      pop\n        /* \"#utility.yul\":10285:10378   */\n      tag_241\n        /* \"#utility.yul\":10374:10377   */\n      dup3\n        /* \"#utility.yul\":10285:10378   */\n      tag_107\n      jump\t// in\n    tag_241:\n        /* \"#utility.yul\":10403:10405   */\n      0x20\n        /* \"#utility.yul\":10398:10401   */\n      dup3\n        /* \"#utility.yul\":10394:10406   */\n      add\n        /* \"#utility.yul\":10387:10406   */\n      swap1\n      pop\n        /* \"#utility.yul\":10046:10412   */\n      swap2\n      swap1\n      pop\n      jump\t// out\n        /* \"#utility.yul\":10418:10837   */\n    tag_48:\n        /* \"#utility.yul\":10584:10588   */\n      0x00\n        /* \"#utility.yul\":10622:10624   */\n      0x20\n        /* \"#utility.yul\":10611:10620   */\n      dup3\n        /* \"#utility.yul\":10607:10625   */\n      add\n        /* \"#utility.yul\":10599:10625   */\n      swap1\n      pop\n        /* \"#utility.yul\":10671:10680   */\n      dup2\n        /* \"#utility.yul\":10665:10669   */\n      dup2\n        /* \"#utility.yul\":10661:10681   */\n      sub\n        /* \"#utility.yul\":10657:10658   */\n      0x00\n        /* \"#utility.yul\":10646:10655   */\n      dup4\n        /* \"#utility.yul\":10642:10659   */\n      add\n        /* \"#utility.yul\":10635:10682   */\n      mstore\n        /* \"#utility.yul\":10699:10830   */\n      tag_243\n        /* \"#utility.yul\":10825:10829   */\n      dup2\n        /* \"#utility.yul\":10699:10830   */\n      tag_108\n      jump\t// in\n    tag_243:\n        /* \"#utility.yul\":10691:10830   */\n      swap1\n      pop\n        /* \"#utility.yul\":10418:10837   */\n      swap2\n      swap1\n      pop\n      jump\t// out\n        /* \"#utility.yul\":10843:10920   */\n    tag_109:\n        /* \"#utility.yul\":10880:10887   */\n      0x00\n        /* \"#utility.yul\":10909:10914   */\n      dup2\n        /* \"#utility.yul\":10898:10914   */\n      swap1\n      pop\n        /* \"#utility.yul\":10843:10920   */\n      swap2\n      swap1\n      pop\n      jump\t// out\n        /* \"#utility.yul\":10926:11048   */\n    tag_110:\n        /* \"#utility.yul\":10999:11023   */\n      tag_246\n        /* \"#utility.yul\":11017:11022   */\n      dup2\n        /* \"#utility.yul\":10999:11023   */\n      tag_109\n      jump\t// in\n    tag_246:\n        /* \"#utility.yul\":10992:10997   */\n      dup2\n        /* \"#utility.yul\":10989:11024   */\n      eq\n        /* \"#utility.yul\":10979:11042   */\n      tag_247\n      jumpi\n        /* \"#utility.yul\":11038:11039   */\n      0x00\n        /* \"#utility.yul\":11035:11036   */\n      dup1\n        /* \"#utility.yul\":11028:11040   */\n      revert\n        /* \"#utility.yul\":10979:11042   */\n    tag_247:\n        /* \"#utility.yul\":10926:11048   */\n      pop\n      jump\t// out\n        /* \"#utility.yul\":11054:11197   */\n    tag_111:\n        /* \"#utility.yul\":11111:11116   */\n      0x00\n        /* \"#utility.yul\":11142:11148   */\n      dup2\n        /* \"#utility.yul\":11136:11149   */\n      mload\n        /* \"#utility.yul\":11127:11149   */\n      swap1\n      pop\n        /* \"#utility.yul\":11158:11191   */\n      tag_249\n        /* \"#utility.yul\":11185:11190   */\n      dup2\n        /* \"#utility.yul\":11158:11191   */\n      tag_110\n      jump\t// in\n    tag_249:\n        /* \"#utility.yul\":11054:11197   */\n      swap3\n      swap2\n      pop\n      pop\n      jump\t// out\n        /* \"#utility.yul\":11203:11554   */\n    tag_53:\n        /* \"#utility.yul\":11273:11279   */\n      0x00\n        /* \"#utility.yul\":11322:11324   */\n      0x20\n        /* \"#utility.yul\":11310:11319   */\n      dup3\n        /* \"#utility.yul\":11301:11308   */\n      dup5\n        /* \"#utility.yul\":11297:11320   */\n      sub\n        /* \"#utility.yul\":11293:11325   */\n      slt\n        /* \"#utility.yul\":11290:11409   */\n      iszero\n      tag_251\n      jumpi\n        /* \"#utility.yul\":11328:11407   */\n      tag_252\n      tag_93\n      jump\t// in\n    tag_252:\n        /* \"#utility.yul\":11290:11409   */\n    tag_251:\n        /* \"#utility.yul\":11448:11449   */\n      0x00\n        /* \"#utility.yul\":11473:11537   */\n      tag_253\n        /* \"#utility.yul\":11529:11536   */\n      dup5\n        /* \"#utility.yul\":11520:11526   */\n      dup3\n        /* \"#utility.yul\":11509:11518   */\n      dup6\n        /* \"#utility.yul\":11505:11527   */\n      add\n        /* \"#utility.yul\":11473:11537   */\n      tag_111\n      jump\t// in\n    tag_253:\n        /* \"#utility.yul\":11463:11537   */\n      swap2\n      pop\n        /* \"#utility.yul\":11419:11547   */\n      pop\n        /* \"#utility.yul\":11203:11554   */\n      swap3\n      swap2\n      pop\n      pop\n      jump\t// out\n        /* \"#utility.yul\":11560:11740   */\n    tag_112:\n        /* \"#utility.yul\":11608:11685   */\n      0x4e487b7100000000000000000000000000000000000000000000000000000000\n        /* \"#utility.yul\":11605:11606   */\n      0x00\n        /* \"#utility.yul\":11598:11686   */\n      mstore\n        /* \"#utility.yul\":11705:11709   */\n      0x12\n        /* \"#utility.yul\":11702:11703   */\n      0x04\n        /* \"#utility.yul\":11695:11710   */\n      mstore\n        /* \"#utility.yul\":11729:11733   */\n      0x24\n        /* \"#utility.yul\":11726:11727   */\n      0x00\n        /* \"#utility.yul\":11719:11734   */\n      revert\n        /* \"#utility.yul\":11932:12117   */\n    tag_55:\n        /* \"#utility.yul\":11972:11973   */\n      0x00\n        /* \"#utility.yul\":11989:12009   */\n      tag_257\n        /* \"#utility.yul\":12007:12008   */\n      dup3\n        /* \"#utility.yul\":11989:12009   */\n      tag_109\n      jump\t// in\n    tag_257:\n        /* \"#utility.yul\":11984:12009   */\n      swap2\n      pop\n        /* \"#utility.yul\":12023:12043   */\n      tag_258\n        /* \"#utility.yul\":12041:12042   */\n      dup4\n        /* \"#utility.yul\":12023:12043   */\n      tag_109\n      jump\t// in\n    tag_258:\n        /* \"#utility.yul\":12018:12043   */\n      swap3\n      pop\n        /* \"#utility.yul\":12062:12063   */\n      dup3\n        /* \"#utility.yul\":12052:12087   */\n      tag_259\n      jumpi\n        /* \"#utility.yul\":12067:12085   */\n      tag_260\n      tag_112\n      jump\t// in\n    tag_260:\n        /* \"#utility.yul\":12052:12087   */\n    tag_259:\n        /* \"#utility.yul\":12109:12110   */\n      dup3\n        /* \"#utility.yul\":12106:12107   */\n      dup3\n        /* \"#utility.yul\":12102:12111   */\n      div\n        /* \"#utility.yul\":12097:12111   */\n      swap1\n      pop\n        /* \"#utility.yul\":11932:12117   */\n      swap3\n      swap2\n      pop\n      pop\n      jump\t// out\n        /* \"#utility.yul\":12123:12372   */\n    tag_114:\n        /* \"#utility.yul\":12263:12297   */\n      0x496e73756666696369656e7420746f6b656e7320746f20766f7465206f722042\n        /* \"#utility.yul\":12259:12260   */\n      0x00\n        /* \"#utility.yul\":12251:12257   */\n      dup3\n        /* \"#utility.yul\":12247:12261   */\n      add\n        /* \"#utility.yul\":12240:12298   */\n      mstore\n        /* \"#utility.yul\":12332:12364   */\n      0x616c616e6365206578636565646573206e6f726d616c2062616c616e63650000\n        /* \"#utility.yul\":12327:12329   */\n      0x20\n        /* \"#utility.yul\":12319:12325   */\n      dup3\n        /* \"#utility.yul\":12315:12330   */\n      add\n        /* \"#utility.yul\":12308:12365   */\n      mstore\n        /* \"#utility.yul\":12123:12372   */\n      pop\n      jump\t// out\n        /* \"#utility.yul\":12378:12744   */\n    tag_115:\n        /* \"#utility.yul\":12520:12523   */\n      0x00\n        /* \"#utility.yul\":12541:12608   */\n      tag_263\n        /* \"#utility.yul\":12605:12607   */\n      0x3e\n        /* \"#utility.yul\":12600:12603   */\n      dup4\n        /* \"#utility.yul\":12541:12608   */\n      tag_102\n      jump\t// in\n    tag_263:\n        /* \"#utility.yul\":12534:12608   */\n      swap2\n      pop\n        /* \"#utility.yul\":12617:12710   */\n      tag_264\n        /* \"#utility.yul\":12706:12709   */\n      dup3\n        /* \"#utility.yul\":12617:12710   */\n      tag_114\n      jump\t// in\n    tag_264:\n        /* \"#utility.yul\":12735:12737   */\n      0x40\n        /* \"#utility.yul\":12730:12733   */\n      dup3\n        /* \"#utility.yul\":12726:12738   */\n      add\n        /* \"#utility.yul\":12719:12738   */\n      swap1\n      pop\n        /* \"#utility.yul\":12378:12744   */\n      swap2\n      swap1\n      pop\n      jump\t// out\n        /* \"#utility.yul\":12750:13169   */\n    tag_58:\n        /* \"#utility.yul\":12916:12920   */\n      0x00\n        /* \"#utility.yul\":12954:12956   */\n      0x20\n        /* \"#utility.yul\":12943:12952   */\n      dup3\n        /* \"#utility.yul\":12939:12957   */\n      add\n        /* \"#utility.yul\":12931:12957   */\n      swap1\n      pop\n        /* \"#utility.yul\":13003:13012   */\n      dup2\n        /* \"#utility.yul\":12997:13001   */\n      dup2\n        /* \"#utility.yul\":12993:13013   */\n      sub\n        /* \"#utility.yul\":12989:12990   */\n      0x00\n        /* \"#utility.yul\":12978:12987   */\n      dup4\n        /* \"#utility.yul\":12974:12991   */\n      add\n        /* \"#utility.yul\":12967:13014   */\n      mstore\n        /* \"#utility.yul\":13031:13162   */\n      tag_266\n        /* \"#utility.yul\":13157:13161   */\n      dup2\n        /* \"#utility.yul\":13031:13162   */\n      tag_115\n      jump\t// in\n    tag_266:\n        /* \"#utility.yul\":13023:13162   */\n      swap1\n      pop\n        /* \"#utility.yul\":12750:13169   */\n      swap2\n      swap1\n      pop\n      jump\t// out\n        /* \"#utility.yul\":13175:13278   */\n    tag_116:\n        /* \"#utility.yul\":13238:13245   */\n      0x00\n        /* \"#utility.yul\":13267:13272   */\n      dup2\n        /* \"#utility.yul\":13256:13272   */\n      swap1\n      pop\n        /* \"#utility.yul\":13175:13278   */\n      swap2\n      swap1\n      pop\n      jump\t// out\n        /* \"#utility.yul\":13284:13478   */\n    tag_117:\n        /* \"#utility.yul\":13360:13369   */\n      0x00\n        /* \"#utility.yul\":13393:13472   */\n      tag_269\n        /* \"#utility.yul\":13411:13471   */\n      tag_270\n        /* \"#utility.yul\":13420:13470   */\n      tag_271\n        /* \"#utility.yul\":13464:13469   */\n      dup5\n        /* \"#utility.yul\":13420:13470   */\n      tag_116\n      jump\t// in\n    tag_271:\n        /* \"#utility.yul\":13411:13471   */\n      tag_87\n      jump\t// in\n    tag_270:\n        /* \"#utility.yul\":13393:13472   */\n      tag_109\n      jump\t// in\n    tag_269:\n        /* \"#utility.yul\":13380:13472   */\n      swap1\n      pop\n        /* \"#utility.yul\":13284:13478   */\n      swap2\n      swap1\n      pop\n      jump\t// out\n        /* \"#utility.yul\":13484:13667   */\n    tag_118:\n        /* \"#utility.yul\":13597:13660   */\n      tag_273\n        /* \"#utility.yul\":13654:13659   */\n      dup2\n        /* \"#utility.yul\":13597:13660   */\n      tag_117\n      jump\t// in\n    tag_273:\n        /* \"#utility.yul\":13592:13595   */\n      dup3\n        /* \"#utility.yul\":13585:13661   */\n      mstore\n        /* \"#utility.yul\":13484:13667   */\n      pop\n      pop\n      jump\t// out\n        /* \"#utility.yul\":13673:14167   */\n    tag_60:\n        /* \"#utility.yul\":13848:13852   */\n      0x00\n        /* \"#utility.yul\":13886:13888   */\n      0x60\n        /* \"#utility.yul\":13875:13884   */\n      dup3\n        /* \"#utility.yul\":13871:13889   */\n      add\n        /* \"#utility.yul\":13863:13889   */\n      swap1\n      pop\n        /* \"#utility.yul\":13899:13970   */\n      tag_275\n        /* \"#utility.yul\":13967:13968   */\n      0x00\n        /* \"#utility.yul\":13956:13965   */\n      dup4\n        /* \"#utility.yul\":13952:13969   */\n      add\n        /* \"#utility.yul\":13943:13949   */\n      dup7\n        /* \"#utility.yul\":13899:13970   */\n      tag_75\n      jump\t// in\n    tag_275:\n        /* \"#utility.yul\":13980:14052   */\n      tag_276\n        /* \"#utility.yul\":14048:14050   */\n      0x20\n        /* \"#utility.yul\":14037:14046   */\n      dup4\n        /* \"#utility.yul\":14033:14051   */\n      add\n        /* \"#utility.yul\":14024:14030   */\n      dup6\n        /* \"#utility.yul\":13980:14052   */\n      tag_75\n      jump\t// in\n    tag_276:\n        /* \"#utility.yul\":14062:14160   */\n      tag_277\n        /* \"#utility.yul\":14156:14158   */\n      0x40\n        /* \"#utility.yul\":14145:14154   */\n      dup4\n        /* \"#utility.yul\":14141:14159   */\n      add\n        /* \"#utility.yul\":14132:14138   */\n      dup5\n        /* \"#utility.yul\":14062:14160   */\n      tag_118\n      jump\t// in\n    tag_277:\n        /* \"#utility.yul\":13673:14167   */\n      swap5\n      swap4\n      pop\n      pop\n      pop\n      pop\n      jump\t// out\n        /* \"#utility.yul\":14173:14263   */\n    tag_119:\n        /* \"#utility.yul\":14207:14214   */\n      0x00\n        /* \"#utility.yul\":14250:14255   */\n      dup2\n        /* \"#utility.yul\":14243:14256   */\n      iszero\n        /* \"#utility.yul\":14236:14257   */\n      iszero\n        /* \"#utility.yul\":14225:14257   */\n      swap1\n      pop\n        /* \"#utility.yul\":14173:14263   */\n      swap2\n      swap1\n      pop\n      jump\t// out\n        /* \"#utility.yul\":14269:14385   */\n    tag_120:\n        /* \"#utility.yul\":14339:14360   */\n      tag_280\n        /* \"#utility.yul\":14354:14359   */\n      dup2\n        /* \"#utility.yul\":14339:14360   */\n      tag_119\n      jump\t// in\n    tag_280:\n        /* \"#utility.yul\":14332:14337   */\n      dup2\n        /* \"#utility.yul\":14329:14361   */\n      eq\n        /* \"#utility.yul\":14319:14379   */\n      tag_281\n      jumpi\n        /* \"#utility.yul\":14375:14376   */\n      0x00\n        /* \"#utility.yul\":14372:14373   */\n      dup1\n        /* \"#utility.yul\":14365:14377   */\n      revert\n        /* \"#utility.yul\":14319:14379   */\n    tag_281:\n        /* \"#utility.yul\":14269:14385   */\n      pop\n      jump\t// out\n        /* \"#utility.yul\":14391:14528   */\n    tag_121:\n        /* \"#utility.yul\":14445:14450   */\n      0x00\n        /* \"#utility.yul\":14476:14482   */\n      dup2\n        /* \"#utility.yul\":14470:14483   */\n      mload\n        /* \"#utility.yul\":14461:14483   */\n      swap1\n      pop\n        /* \"#utility.yul\":14492:14522   */\n      tag_283\n        /* \"#utility.yul\":14516:14521   */\n      dup2\n        /* \"#utility.yul\":14492:14522   */\n      tag_120\n      jump\t// in\n    tag_283:\n        /* \"#utility.yul\":14391:14528   */\n      swap3\n      swap2\n      pop\n      pop\n      jump\t// out\n        /* \"#utility.yul\":14534:14879   */\n    tag_64:\n        /* \"#utility.yul\":14601:14607   */\n      0x00\n        /* \"#utility.yul\":14650:14652   */\n      0x20\n        /* \"#utility.yul\":14638:14647   */\n      dup3\n        /* \"#utility.yul\":14629:14636   */\n      dup5\n        /* \"#utility.yul\":14625:14648   */\n      sub\n        /* \"#utility.yul\":14621:14653   */\n      slt\n        /* \"#utility.yul\":14618:14737   */\n      iszero\n      tag_285\n      jumpi\n        /* \"#utility.yul\":14656:14735   */\n      tag_286\n      tag_93\n      jump\t// in\n    tag_286:\n        /* \"#utility.yul\":14618:14737   */\n    tag_285:\n        /* \"#utility.yul\":14776:14777   */\n      0x00\n        /* \"#utility.yul\":14801:14862   */\n      tag_287\n        /* \"#utility.yul\":14854:14861   */\n      dup5\n        /* \"#utility.yul\":14845:14851   */\n      dup3\n        /* \"#utility.yul\":14834:14843   */\n      dup6\n        /* \"#utility.yul\":14830:14852   */\n      add\n        /* \"#utility.yul\":14801:14862   */\n      tag_121\n      jump\t// in\n    tag_287:\n        /* \"#utility.yul\":14791:14862   */\n      swap2\n      pop\n        /* \"#utility.yul\":14747:14872   */\n      pop\n        /* \"#utility.yul\":14534:14879   */\n      swap3\n      swap2\n      pop\n      pop\n      jump\t// out\n        /* \"#utility.yul\":14885:15056   */\n    tag_122:\n        /* \"#utility.yul\":15025:15048   */\n      0x546f6b656e207472616e73666572206661696c65640000000000000000000000\n        /* \"#utility.yul\":15021:15022   */\n      0x00\n        /* \"#utility.yul\":15013:15019   */\n      dup3\n        /* \"#utility.yul\":15009:15023   */\n      add\n        /* \"#utility.yul\":15002:15049   */\n      mstore\n        /* \"#utility.yul\":14885:15056   */\n      pop\n      jump\t// out\n        /* \"#utility.yul\":15062:15428   */\n    tag_123:\n        /* \"#utility.yul\":15204:15207   */\n      0x00\n        /* \"#utility.yul\":15225:15292   */\n      tag_290\n        /* \"#utility.yul\":15289:15291   */\n      0x15\n        /* \"#utility.yul\":15284:15287   */\n      dup4\n        /* \"#utility.yul\":15225:15292   */\n      tag_102\n      jump\t// in\n    tag_290:\n        /* \"#utility.yul\":15218:15292   */\n      swap2\n      pop\n        /* \"#utility.yul\":15301:15394   */\n      tag_291\n        /* \"#utility.yul\":15390:15393   */\n      dup3\n        /* \"#utility.yul\":15301:15394   */\n      tag_122\n      jump\t// in\n    tag_291:\n        /* \"#utility.yul\":15419:15421   */\n      0x20\n        /* \"#utility.yul\":15414:15417   */\n      dup3\n        /* \"#utility.yul\":15410:15422   */\n      add\n        /* \"#utility.yul\":15403:15422   */\n      swap1\n      pop\n        /* \"#utility.yul\":15062:15428   */\n      swap2\n      swap1\n      pop\n      jump\t// out\n        /* \"#utility.yul\":15434:15853   */\n    tag_67:\n        /* \"#utility.yul\":15600:15604   */\n      0x00\n        /* \"#utility.yul\":15638:15640   */\n      0x20\n        /* \"#utility.yul\":15627:15636   */\n      dup3\n        /* \"#utility.yul\":15623:15641   */\n      add\n        /* \"#utility.yul\":15615:15641   */\n      swap1\n      pop\n        /* \"#utility.yul\":15687:15696   */\n      dup2\n        /* \"#utility.yul\":15681:15685   */\n      dup2\n        /* \"#utility.yul\":15677:15697   */\n      sub\n        /* \"#utility.yul\":15673:15674   */\n      0x00\n        /* \"#utility.yul\":15662:15671   */\n      dup4\n        /* \"#utility.yul\":15658:15675   */\n      add\n        /* \"#utility.yul\":15651:15698   */\n      mstore\n        /* \"#utility.yul\":15715:15846   */\n      tag_293\n        /* \"#utility.yul\":15841:15845   */\n      dup2\n        /* \"#utility.yul\":15715:15846   */\n      tag_123\n      jump\t// in\n    tag_293:\n        /* \"#utility.yul\":15707:15846   */\n      swap1\n      pop\n        /* \"#utility.yul\":15434:15853   */\n      swap2\n      swap1\n      pop\n      jump\t// out\n        /* \"#utility.yul\":15859:15956   */\n    tag_124:\n        /* \"#utility.yul\":15918:15924   */\n      0x00\n        /* \"#utility.yul\":15946:15949   */\n      dup3\n        /* \"#utility.yul\":15936:15949   */\n      swap1\n      pop\n        /* \"#utility.yul\":15859:15956   */\n      swap3\n      swap2\n      pop\n      pop\n      jump\t// out\n        /* \"#utility.yul\":15962:16142   */\n    tag_125:\n        /* \"#utility.yul\":16010:16087   */\n      0x4e487b7100000000000000000000000000000000000000000000000000000000\n        /* \"#utility.yul\":16007:16008   */\n      0x00\n        /* \"#utility.yul\":16000:16088   */\n      mstore\n        /* \"#utility.yul\":16107:16111   */\n      0x41\n        /* \"#utility.yul\":16104:16105   */\n      0x04\n        /* \"#utility.yul\":16097:16112   */\n      mstore\n        /* \"#utility.yul\":16131:16135   */\n      0x24\n        /* \"#utility.yul\":16128:16129   */\n      0x00\n        /* \"#utility.yul\":16121:16136   */\n      revert\n        /* \"#utility.yul\":16148:16289   */\n    tag_126:\n        /* \"#utility.yul\":16197:16201   */\n      0x00\n        /* \"#utility.yul\":16220:16223   */\n      dup2\n        /* \"#utility.yul\":16212:16223   */\n      swap1\n      pop\n        /* \"#utility.yul\":16243:16246   */\n      dup2\n        /* \"#utility.yul\":16240:16241   */\n      0x00\n        /* \"#utility.yul\":16233:16247   */\n      mstore\n        /* \"#utility.yul\":16277:16281   */\n      0x20\n        /* \"#utility.yul\":16274:16275   */\n      0x00\n        /* \"#utility.yul\":16264:16282   */\n      keccak256\n        /* \"#utility.yul\":16256:16282   */\n      swap1\n      pop\n        /* \"#utility.yul\":16148:16289   */\n      swap2\n      swap1\n      pop\n      jump\t// out\n        /* \"#utility.yul\":16295:16388   */\n    tag_127:\n        /* \"#utility.yul\":16332:16338   */\n      0x00\n        /* \"#utility.yul\":16379:16381   */\n      0x20\n        /* \"#utility.yul\":16374:16376   */\n      0x1f\n        /* \"#utility.yul\":16367:16372   */\n      dup4\n        /* \"#utility.yul\":16363:16377   */\n      add\n        /* \"#utility.yul\":16359:16382   */\n      div\n        /* \"#utility.yul\":16349:16382   */\n      swap1\n      pop\n        /* \"#utility.yul\":16295:16388   */\n      swap2\n      swap1\n      pop\n      jump\t// out\n        /* \"#utility.yul\":16394:16501   */\n    tag_128:\n        /* \"#utility.yul\":16438:16446   */\n      0x00\n        /* \"#utility.yul\":16488:16493   */\n      dup3\n        /* \"#utility.yul\":16482:16486   */\n      dup3\n        /* \"#utility.yul\":16478:16494   */\n      shl\n        /* \"#utility.yul\":16457:16494   */\n      swap1\n      pop\n        /* \"#utility.yul\":16394:16501   */\n      swap3\n      swap2\n      pop\n      pop\n      jump\t// out\n        /* \"#utility.yul\":16507:16900   */\n    tag_129:\n        /* \"#utility.yul\":16576:16582   */\n      0x00\n        /* \"#utility.yul\":16626:16627   */\n      0x08\n        /* \"#utility.yul\":16614:16624   */\n      dup4\n        /* \"#utility.yul\":16610:16628   */\n      mul\n        /* \"#utility.yul\":16649:16746   */\n      tag_300\n        /* \"#utility.yul\":16679:16745   */\n      0xffffffffffffffffffffffffffffffffffffffffffffffffffffffffffffffff\n        /* \"#utility.yul\":16668:16677   */\n      dup3\n        /* \"#utility.yul\":16649:16746   */\n      tag_128\n      jump\t// in\n    tag_300:\n        /* \"#utility.yul\":16767:16806   */\n      tag_301\n        /* \"#utility.yul\":16797:16805   */\n      dup7\n        /* \"#utility.yul\":16786:16795   */\n      dup4\n        /* \"#utility.yul\":16767:16806   */\n      tag_128\n      jump\t// in\n    tag_301:\n        /* \"#utility.yul\":16755:16806   */\n      swap6\n      pop\n        /* \"#utility.yul\":16839:16843   */\n      dup1\n        /* \"#utility.yul\":16835:16844   */\n      not\n        /* \"#utility.yul\":16828:16833   */\n      dup5\n        /* \"#utility.yul\":16824:16845   */\n      and\n        /* \"#utility.yul\":16815:16845   */\n      swap4\n      pop\n        /* \"#utility.yul\":16888:16892   */\n      dup1\n        /* \"#utility.yul\":16878:16886   */\n      dup7\n        /* \"#utility.yul\":16874:16893   */\n      and\n        /* \"#utility.yul\":16867:16872   */\n      dup5\n        /* \"#utility.yul\":16864:16894   */\n      or\n        /* \"#utility.yul\":16854:16894   */\n      swap3\n      pop\n        /* \"#utility.yul\":16583:16900   */\n      pop\n      pop\n        /* \"#utility.yul\":16507:16900   */\n      swap4\n      swap3\n      pop\n      pop\n      pop\n      jump\t// out\n        /* \"#utility.yul\":16906:17048   */\n    tag_130:\n        /* \"#utility.yul\":16956:16965   */\n      0x00\n        /* \"#utility.yul\":16989:17042   */\n      tag_303\n        /* \"#utility.yul\":17007:17041   */\n      tag_304\n        /* \"#utility.yul\":17016:17040   */\n      tag_305\n        /* \"#utility.yul\":17034:17039   */\n      dup5\n        /* \"#utility.yul\":17016:17040   */\n      tag_109\n      jump\t// in\n    tag_305:\n        /* \"#utility.yul\":17007:17041   */\n      tag_87\n      jump\t// in\n    tag_304:\n        /* \"#utility.yul\":16989:17042   */\n      tag_109\n      jump\t// in\n    tag_303:\n        /* \"#utility.yul\":16976:17042   */\n      swap1\n      pop\n        /* \"#utility.yul\":16906:17048   */\n      swap2\n      swap1\n      pop\n      jump\t// out\n        /* \"#utility.yul\":17054:17129   */\n    tag_131:\n        /* \"#utility.yul\":17097:17100   */\n      0x00\n        /* \"#utility.yul\":17118:17123   */\n      dup2\n        /* \"#utility.yul\":17111:17123   */\n      swap1\n      pop\n        /* \"#utility.yul\":17054:17129   */\n      swap2\n      swap1\n      pop\n      jump\t// out\n        /* \"#utility.yul\":17135:17404   */\n    tag_132:\n        /* \"#utility.yul\":17245:17284   */\n      tag_308\n        /* \"#utility.yul\":17276:17283   */\n      dup4\n        /* \"#utility.yul\":17245:17284   */\n      tag_130\n      jump\t// in\n    tag_308:\n        /* \"#utility.yul\":17306:17397   */\n      tag_309\n        /* \"#utility.yul\":17355:17396   */\n      tag_310\n        /* \"#utility.yul\":17379:17395   */\n      dup3\n        /* \"#utility.yul\":17355:17396   */\n      tag_131\n      jump\t// in\n    tag_310:\n        /* \"#utility.yul\":17347:17353   */\n      dup5\n        /* \"#utility.yul\":17340:17344   */\n      dup5\n        /* \"#utility.yul\":17334:17345   */\n      sload\n        /* \"#utility.yul\":17306:17397   */\n      tag_129\n      jump\t// in\n    tag_309:\n        /* \"#utility.yul\":17300:17304   */\n      dup3\n        /* \"#utility.yul\":17293:17398   */\n      sstore\n        /* \"#utility.yul\":17211:17404   */\n      pop\n        /* \"#utility.yul\":17135:17404   */\n      pop\n      pop\n      pop\n      jump\t// out\n        /* \"#utility.yul\":17410:17483   */\n    tag_133:\n        /* \"#utility.yul\":17455:17458   */\n      0x00\n        /* \"#utility.yul\":17410:17483   */\n      swap1\n      jump\t// out\n        /* \"#utility.yul\":17489:17678   */\n    tag_134:\n        /* \"#utility.yul\":17566:17598   */\n      tag_313\n      tag_133\n      jump\t// in\n    tag_313:\n        /* \"#utility.yul\":17607:17672   */\n      tag_314\n        /* \"#utility.yul\":17665:17671   */\n      dup2\n        /* \"#utility.yul\":17657:17663   */\n      dup5\n        /* \"#utility.yul\":17651:17655   */\n      dup5\n        /* \"#utility.yul\":17607:17672   */\n      tag_132\n      jump\t// in\n    tag_314:\n        /* \"#utility.yul\":17542:17678   */\n      pop\n        /* \"#utility.yul\":17489:17678   */\n      pop\n      pop\n      jump\t// out\n        /* \"#utility.yul\":17684:17870   */\n    tag_135:\n        /* \"#utility.yul\":17744:17864   */\n    tag_316:\n        /* \"#utility.yul\":17761:17764   */\n      dup2\n        /* \"#utility.yul\":17754:17759   */\n      dup2\n        /* \"#utility.yul\":17751:17765   */\n      lt\n        /* \"#utility.yul\":17744:17864   */\n      iszero\n      tag_318\n      jumpi\n        /* \"#utility.yul\":17815:17854   */\n      tag_319\n        /* \"#utility.yul\":17852:17853   */\n      0x00\n        /* \"#utility.yul\":17845:17850   */\n      dup3\n        /* \"#utility.yul\":17815:17854   */\n      tag_134\n      jump\t// in\n    tag_319:\n        /* \"#utility.yul\":17788:17789   */\n      0x01\n        /* \"#utility.yul\":17781:17786   */\n      dup2\n        /* \"#utility.yul\":17777:17790   */\n      add\n        /* \"#utility.yul\":17768:17790   */\n      swap1\n      pop\n        /* \"#utility.yul\":17744:17864   */\n      jump(tag_316)\n    tag_318:\n        /* \"#utility.yul\":17684:17870   */\n      pop\n      pop\n      jump\t// out\n        /* \"#utility.yul\":17876:18419   */\n    tag_136:\n        /* \"#utility.yul\":17977:17979   */\n      0x1f\n        /* \"#utility.yul\":17972:17975   */\n      dup3\n        /* \"#utility.yul\":17969:17980   */\n      gt\n        /* \"#utility.yul\":17966:18412   */\n      iszero\n      tag_321\n      jumpi\n        /* \"#utility.yul\":18011:18049   */\n      tag_322\n        /* \"#utility.yul\":18043:18048   */\n      dup2\n        /* \"#utility.yul\":18011:18049   */\n      tag_126\n      jump\t// in\n    tag_322:\n        /* \"#utility.yul\":18095:18124   */\n      tag_323\n        /* \"#utility.yul\":18113:18123   */\n      dup5\n        /* \"#utility.yul\":18095:18124   */\n      tag_127\n      jump\t// in\n    tag_323:\n        /* \"#utility.yul\":18085:18093   */\n      dup2\n        /* \"#utility.yul\":18081:18125   */\n      add\n        /* \"#utility.yul\":18278:18280   */\n      0x20\n        /* \"#utility.yul\":18266:18276   */\n      dup6\n        /* \"#utility.yul\":18263:18281   */\n      lt\n        /* \"#utility.yul\":18260:18309   */\n      iszero\n      tag_324\n      jumpi\n        /* \"#utility.yul\":18299:18307   */\n      dup2\n        /* \"#utility.yul\":18284:18307   */\n      swap1\n      pop\n        /* \"#utility.yul\":18260:18309   */\n    tag_324:\n        /* \"#utility.yul\":18322:18402   */\n      tag_325\n        /* \"#utility.yul\":18378:18400   */\n      tag_326\n        /* \"#utility.yul\":18396:18399   */\n      dup6\n        /* \"#utility.yul\":18378:18400   */\n      tag_127\n      jump\t// in\n    tag_326:\n        /* \"#utility.yul\":18368:18376   */\n      dup4\n        /* \"#utility.yul\":18364:18401   */\n      add\n        /* \"#utility.yul\":18351:18362   */\n      dup3\n        /* \"#utility.yul\":18322:18402   */\n      tag_135\n      jump\t// in\n    tag_325:\n        /* \"#utility.yul\":17981:18412   */\n      pop\n      pop\n        /* \"#utility.yul\":17966:18412   */\n    tag_321:\n        /* \"#utility.yul\":17876:18419   */\n      pop\n      pop\n      pop\n      jump\t// out\n        /* \"#utility.yul\":18425:18542   */\n    tag_137:\n        /* \"#utility.yul\":18479:18487   */\n      0x00\n        /* \"#utility.yul\":18529:18534   */\n      dup3\n        /* \"#utility.yul\":18523:18527   */\n      dup3\n        /* \"#utility.yul\":18519:18535   */\n      shr\n        /* \"#utility.yul\":18498:18535   */\n      swap1\n      pop\n        /* \"#utility.yul\":18425:18542   */\n      swap3\n      swap2\n      pop\n      pop\n      jump\t// out\n        /* \"#utility.yul\":18548:18717   */\n    tag_138:\n        /* \"#utility.yul\":18592:18598   */\n      0x00\n        /* \"#utility.yul\":18625:18676   */\n      tag_329\n        /* \"#utility.yul\":18673:18674   */\n      0x00\n        /* \"#utility.yul\":18669:18675   */\n      not\n        /* \"#utility.yul\":18661:18666   */\n      dup5\n        /* \"#utility.yul\":18658:18659   */\n      0x08\n        /* \"#utility.yul\":18654:18667   */\n      mul\n        /* \"#utility.yul\":18625:18676   */\n      tag_137\n      jump\t// in\n    tag_329:\n        /* \"#utility.yul\":18621:18677   */\n      not\n        /* \"#utility.yul\":18706:18710   */\n      dup1\n        /* \"#utility.yul\":18700:18704   */\n      dup4\n        /* \"#utility.yul\":18696:18711   */\n      and\n        /* \"#utility.yul\":18686:18711   */\n      swap2\n      pop\n        /* \"#utility.yul\":18599:18717   */\n      pop\n        /* \"#utility.yul\":18548:18717   */\n      swap3\n      swap2\n      pop\n      pop\n      jump\t// out\n        /* \"#utility.yul\":18722:19017   */\n    tag_139:\n        /* \"#utility.yul\":18798:18802   */\n      0x00\n        /* \"#utility.yul\":18944:18973   */\n      tag_331\n        /* \"#utility.yul\":18969:18972   */\n      dup4\n        /* \"#utility.yul\":18963:18967   */\n      dup4\n        /* \"#utility.yul\":18944:18973   */\n      tag_138\n      jump\t// in\n    tag_331:\n        /* \"#utility.yul\":18936:18973   */\n      swap2\n      pop\n        /* \"#utility.yul\":19006:19009   */\n      dup3\n        /* \"#utility.yul\":19003:19004   */\n      0x02\n        /* \"#utility.yul\":18999:19010   */\n      mul\n        /* \"#utility.yul\":18993:18997   */\n      dup3\n        /* \"#utility.yul\":18990:19011   */\n      or\n        /* \"#utility.yul\":18982:19011   */\n      swap1\n      pop\n        /* \"#utility.yul\":18722:19017   */\n      swap3\n      swap2\n      pop\n      pop\n      jump\t// out\n        /* \"#utility.yul\":19022:20425   */\n    tag_70:\n        /* \"#utility.yul\":19146:19190   */\n      tag_333\n        /* \"#utility.yul\":19186:19189   */\n      dup4\n        /* \"#utility.yul\":19181:19184   */\n      dup4\n        /* \"#utility.yul\":19146:19190   */\n      tag_124\n      jump\t// in\n    tag_333:\n        /* \"#utility.yul\":19255:19273   */\n      0xffffffffffffffff\n        /* \"#utility.yul\":19247:19253   */\n      dup2\n        /* \"#utility.yul\":19244:19274   */\n      gt\n        /* \"#utility.yul\":19241:19297   */\n      iszero\n      tag_334\n      jumpi\n        /* \"#utility.yul\":19277:19295   */\n      tag_335\n      tag_125\n      jump\t// in\n    tag_335:\n        /* \"#utility.yul\":19241:19297   */\n    tag_334:\n        /* \"#utility.yul\":19321:19359   */\n      tag_336\n        /* \"#utility.yul\":19353:19357   */\n      dup3\n        /* \"#utility.yul\":19347:19358   */\n      sload\n        /* \"#utility.yul\":19321:19359   */\n      tag_33\n      jump\t// in\n    tag_336:\n        /* \"#utility.yul\":19406:19473   */\n      tag_337\n        /* \"#utility.yul\":19466:19472   */\n      dup3\n        /* \"#utility.yul\":19458:19464   */\n      dup3\n        /* \"#utility.yul\":19452:19456   */\n      dup6\n        /* \"#utility.yul\":19406:19473   */\n      tag_136\n      jump\t// in\n    tag_337:\n        /* \"#utility.yul\":19500:19501   */\n      0x00\n        /* \"#utility.yul\":19529:19531   */\n      0x1f\n        /* \"#utility.yul\":19521:19527   */\n      dup4\n        /* \"#utility.yul\":19518:19532   */\n      gt\n        /* \"#utility.yul\":19546:19547   */\n      0x01\n        /* \"#utility.yul\":19541:20173   */\n      dup2\n      eq\n      tag_339\n      jumpi\n        /* \"#utility.yul\":20217:20218   */\n      0x00\n        /* \"#utility.yul\":20234:20240   */\n      dup5\n        /* \"#utility.yul\":20231:20315   */\n      iszero\n      tag_340\n      jumpi\n        /* \"#utility.yul\":20290:20299   */\n      dup3\n        /* \"#utility.yul\":20285:20288   */\n      dup8\n        /* \"#utility.yul\":20281:20300   */\n      add\n        /* \"#utility.yul\":20268:20301   */\n      calldataload\n        /* \"#utility.yul\":20259:20301   */\n      swap1\n      pop\n        /* \"#utility.yul\":20231:20315   */\n    tag_340:\n        /* \"#utility.yul\":20341:20408   */\n      tag_341\n        /* \"#utility.yul\":20401:20407   */\n      dup6\n        /* \"#utility.yul\":20394:20399   */\n      dup3\n        /* \"#utility.yul\":20341:20408   */\n      tag_139\n      jump\t// in\n    tag_341:\n        /* \"#utility.yul\":20335:20339   */\n      dup7\n        /* \"#utility.yul\":20328:20409   */\n      sstore\n        /* \"#utility.yul\":20190:20419   */\n      pop\n        /* \"#utility.yul\":19511:20419   */\n      jump(tag_338)\n        /* \"#utility.yul\":19541:20173   */\n    tag_339:\n        /* \"#utility.yul\":19593:19597   */\n      0x1f\n        /* \"#utility.yul\":19589:19598   */\n      not\n        /* \"#utility.yul\":19581:19587   */\n      dup5\n        /* \"#utility.yul\":19577:19599   */\n      and\n        /* \"#utility.yul\":19627:19664   */\n      tag_342\n        /* \"#utility.yul\":19659:19663   */\n      dup7\n        /* \"#utility.yul\":19627:19664   */\n      tag_126\n      jump\t// in\n    tag_342:\n        /* \"#utility.yul\":19686:19687   */\n      0x00\n        /* \"#utility.yul\":19700:19915   */\n    tag_343:\n        /* \"#utility.yul\":19714:19721   */\n      dup3\n        /* \"#utility.yul\":19711:19712   */\n      dup2\n        /* \"#utility.yul\":19708:19722   */\n      lt\n        /* \"#utility.yul\":19700:19915   */\n      iszero\n      tag_345\n      jumpi\n        /* \"#utility.yul\":19800:19809   */\n      dup5\n        /* \"#utility.yul\":19795:19798   */\n      dup10\n        /* \"#utility.yul\":19791:19810   */\n      add\n        /* \"#utility.yul\":19778:19811   */\n      calldataload\n        /* \"#utility.yul\":19770:19776   */\n      dup3\n        /* \"#utility.yul\":19763:19812   */\n      sstore\n        /* \"#utility.yul\":19851:19852   */\n      0x01\n        /* \"#utility.yul\":19843:19849   */\n      dup3\n        /* \"#utility.yul\":19839:19853   */\n      add\n        /* \"#utility.yul\":19829:19853   */\n      swap2\n      pop\n        /* \"#utility.yul\":19898:19900   */\n      0x20\n        /* \"#utility.yul\":19887:19896   */\n      dup6\n        /* \"#utility.yul\":19883:19901   */\n      add\n        /* \"#utility.yul\":19870:19901   */\n      swap5\n      pop\n        /* \"#utility.yul\":19737:19741   */\n      0x20\n        /* \"#utility.yul\":19734:19735   */\n      dup2\n        /* \"#utility.yul\":19730:19742   */\n      add\n        /* \"#utility.yul\":19725:19742   */\n      swap1\n      pop\n        /* \"#utility.yul\":19700:19915   */\n      jump(tag_343)\n    tag_345:\n        /* \"#utility.yul\":19943:19949   */\n      dup7\n        /* \"#utility.yul\":19934:19941   */\n      dup4\n        /* \"#utility.yul\":19931:19950   */\n      lt\n        /* \"#utility.yul\":19928:20114   */\n      iszero\n      tag_346\n      jumpi\n        /* \"#utility.yul\":20008:20017   */\n      dup5\n        /* \"#utility.yul\":20003:20006   */\n      dup10\n        /* \"#utility.yul\":19999:20018   */\n      add\n        /* \"#utility.yul\":19986:20019   */\n      calldataload\n        /* \"#utility.yul\":20051:20099   */\n      tag_347\n        /* \"#utility.yul\":20093:20097   */\n      0x1f\n        /* \"#utility.yul\":20085:20091   */\n      dup10\n        /* \"#utility.yul\":20081:20098   */\n      and\n        /* \"#utility.yul\":20070:20079   */\n      dup3\n        /* \"#utility.yul\":20051:20099   */\n      tag_138\n      jump\t// in\n    tag_347:\n        /* \"#utility.yul\":20043:20049   */\n      dup4\n        /* \"#utility.yul\":20036:20100   */\n      sstore\n        /* \"#utility.yul\":19951:20114   */\n      pop\n        /* \"#utility.yul\":19928:20114   */\n    tag_346:\n        /* \"#utility.yul\":20160:20161   */\n      0x01\n        /* \"#utility.yul\":20156:20157   */\n      0x02\n        /* \"#utility.yul\":20148:20154   */\n      dup9\n        /* \"#utility.yul\":20144:20158   */\n      mul\n        /* \"#utility.yul\":20140:20162   */\n      add\n        /* \"#utility.yul\":20134:20138   */\n      dup9\n        /* \"#utility.yul\":20127:20163   */\n      sstore\n        /* \"#utility.yul\":19548:20173   */\n      pop\n      pop\n      pop\n        /* \"#utility.yul\":19511:20419   */\n    tag_338:\n      pop\n        /* \"#utility.yul\":19121:20425   */\n      pop\n      pop\n      pop\n        /* \"#utility.yul\":19022:20425   */\n      pop\n      pop\n      pop\n      jump\t// out\n        /* \"#utility.yul\":20431:20577   */\n    tag_140:\n        /* \"#utility.yul\":20528:20534   */\n      dup3\n        /* \"#utility.yul\":20523:20526   */\n      dup2\n        /* \"#utility.yul\":20518:20521   */\n      dup4\n        /* \"#utility.yul\":20505:20535   */\n      calldatacopy\n        /* \"#utility.yul\":20569:20570   */\n      0x00\n        /* \"#utility.yul\":20560:20566   */\n      dup4\n        /* \"#utility.yul\":20555:20558   */\n      dup4\n        /* \"#utility.yul\":20551:20567   */\n      add\n        /* \"#utility.yul\":20544:20571   */\n      mstore\n        /* \"#utility.yul\":20431:20577   */\n      pop\n      pop\n      pop\n      jump\t// out\n        /* \"#utility.yul\":20607:20924   */\n    tag_141:\n        /* \"#utility.yul\":20705:20708   */\n      0x00\n        /* \"#utility.yul\":20726:20797   */\n      tag_350\n        /* \"#utility.yul\":20790:20796   */\n      dup4\n        /* \"#utility.yul\":20785:20788   */\n      dup6\n        /* \"#utility.yul\":20726:20797   */\n      tag_102\n      jump\t// in\n    tag_350:\n        /* \"#utility.yul\":20719:20797   */\n      swap4\n      pop\n        /* \"#utility.yul\":20807:20863   */\n      tag_351\n        /* \"#utility.yul\":20856:20862   */\n      dup4\n        /* \"#utility.yul\":20851:20854   */\n      dup6\n        /* \"#utility.yul\":20844:20849   */\n      dup5\n        /* \"#utility.yul\":20807:20863   */\n      tag_140\n      jump\t// in\n    tag_351:\n        /* \"#utility.yul\":20888:20917   */\n      tag_352\n        /* \"#utility.yul\":20910:20916   */\n      dup4\n        /* \"#utility.yul\":20888:20917   */\n      tag_82\n      jump\t// in\n    tag_352:\n        /* \"#utility.yul\":20883:20886   */\n      dup5\n        /* \"#utility.yul\":20879:20918   */\n      add\n        /* \"#utility.yul\":20872:20918   */\n      swap1\n      pop\n        /* \"#utility.yul\":20607:20924   */\n      swap4\n      swap3\n      pop\n      pop\n      pop\n      jump\t// out\n        /* \"#utility.yul\":20930:21263   */\n    tag_72:\n        /* \"#utility.yul\":21053:21057   */\n      0x00\n        /* \"#utility.yul\":21091:21093   */\n      0x20\n        /* \"#utility.yul\":21080:21089   */\n      dup3\n        /* \"#utility.yul\":21076:21094   */\n      add\n        /* \"#utility.yul\":21068:21094   */\n      swap1\n      pop\n        /* \"#utility.yul\":21140:21149   */\n      dup2\n        /* \"#utility.yul\":21134:21138   */\n      dup2\n        /* \"#utility.yul\":21130:21150   */\n      sub\n        /* \"#utility.yul\":21126:21127   */\n      0x00\n        /* \"#utility.yul\":21115:21124   */\n      dup4\n        /* \"#utility.yul\":21111:21128   */\n      add\n        /* \"#utility.yul\":21104:21151   */\n      mstore\n        /* \"#utility.yul\":21168:21256   */\n      tag_354\n        /* \"#utility.yul\":21251:21255   */\n      dup2\n        /* \"#utility.yul\":21242:21248   */\n      dup5\n        /* \"#utility.yul\":21234:21240   */\n      dup7\n        /* \"#utility.yul\":21168:21256   */\n      tag_141\n      jump\t// in\n    tag_354:\n        /* \"#utility.yul\":21160:21256   */\n      swap1\n      pop\n        /* \"#utility.yul\":20930:21263   */\n      swap4\n      swap3\n      pop\n      pop\n      pop\n      jump\t// out\n\n    auxdata: 0xa26469706673582212205c6d1056213a51a22d48c7ef4941bac8d6fce843d3780f6b35143f674ea7f27b64736f6c63430008160033\n}\n",
				"bytecode": {
					"linkReferences": {},
					"object": "608060405234801561000f575f80fd5b503360015f6101000a81548173ffffffffffffffffffffffffffffffffffffffff021916908373ffffffffffffffffffffffffffffffffffffffff1602179055506110df8061005d5f395ff3fe608060405234801561000f575f80fd5b5060043610610055575f3560e01c80632e4176cf146100595780639a6efcc014610077578063b8fcf93714610095578063bbcd5bbe146100b3578063fc36e15b146100cf575b5f80fd5b6100616100eb565b60405161006e9190610670565b60405180910390f35b61007f610110565b60405161008c91906107ce565b60405180910390f35b61009d6101e4565b6040516100aa9190610849565b60405180910390f35b6100cd60048036038101906100c89190610894565b610207565b005b6100e960048036038101906100e49190610920565b6102d8565b005b60015f9054906101000a900473ffffffffffffffffffffffffffffffffffffffff1681565b60606002805480602002602001604051908101604052809291908181526020015f905b828210156101db578382905f5260205f2001805461015090610998565b80601f016020809104026020016040519081016040528092919081815260200182805461017c90610998565b80156101c75780601f1061019e576101008083540402835291602001916101c7565b820191905f5260205f20905b8154815290600101906020018083116101aa57829003601f168201915b505050505081526020019060010190610133565b50505050905090565b5f8054906101000a900473ffffffffffffffffffffffffffffffffffffffff1681565b60015f9054906101000a900473ffffffffffffffffffffffffffffffffffffffff1673ffffffffffffffffffffffffffffffffffffffff163373ffffffffffffffffffffffffffffffffffffffff1614610296576040517f08c379a000000000000000000000000000000000000000000000000000000000815260040161028d90610a48565b60405180910390fd5b805f806101000a81548173ffffffffffffffffffffffffffffffffffffffff021916908373ffffffffffffffffffffffffffffffffffffffff16021790555050565b5f73ffffffffffffffffffffffffffffffffffffffff163373ffffffffffffffffffffffffffffffffffffffff1603610346576040517f08c379a000000000000000000000000000000000000000000000000000000000815260040161033d90610ab0565b60405180910390fd5b5f73ffffffffffffffffffffffffffffffffffffffff165f8054906101000a900473ffffffffffffffffffffffffffffffffffffffff1673ffffffffffffffffffffffffffffffffffffffff16036103d3576040517f08c379a00000000000000000000000000000000000000000000000000000000081526004016103ca90610b18565b60405180910390fd5b6001670de0b6b3a76400005f8054906101000a900473ffffffffffffffffffffffffffffffffffffffff1673ffffffffffffffffffffffffffffffffffffffff166370a08231336040518263ffffffff1660e01b81526004016104369190610670565b602060405180830381865afa158015610451573d5f803e3d5ffd5b505050506040513d601f19601f820116820180604052508101906104759190610b69565b61047f9190610bc1565b146104bf576040517f08c379a00000000000000000000000000000000000000000000000000000000081526004016104b690610c61565b60405180910390fd5b5f8054906101000a900473ffffffffffffffffffffffffffffffffffffffff1673ffffffffffffffffffffffffffffffffffffffff166323b872dd3330670de0b6b3a76400006040518463ffffffff1660e01b815260040161052393929190610cb8565b6020604051808303815f875af115801561053f573d5f803e3d5ffd5b505050506040513d601f19601f820116820180604052508101906105639190610d22565b6105a2576040517f08c379a000000000000000000000000000000000000000000000000000000000815260040161059990610d97565b60405180910390fd5b6002828290918060018154018082558091505060019003905f5260205f20015f9091929091929091929091925091826105dc929190610f80565b503373ffffffffffffffffffffffffffffffffffffffff167fcb6783276e8a4347387036bbfea000268f0a4b1f8c46ac79980609f2af8d2acd8383604051610625929190611087565b60405180910390a25050565b5f73ffffffffffffffffffffffffffffffffffffffff82169050919050565b5f61065a82610631565b9050919050565b61066a81610650565b82525050565b5f6020820190506106835f830184610661565b92915050565b5f81519050919050565b5f82825260208201905092915050565b5f819050602082019050919050565b5f81519050919050565b5f82825260208201905092915050565b5f5b838110156106e95780820151818401526020810190506106ce565b5f8484015250505050565b5f601f19601f8301169050919050565b5f61070e826106b2565b61071881856106bc565b93506107288185602086016106cc565b610731816106f4565b840191505092915050565b5f6107478383610704565b905092915050565b5f602082019050919050565b5f61076582610689565b61076f8185610693565b935083602082028501610781856106a3565b805f5b858110156107bc578484038952815161079d858261073c565b94506107a88361074f565b925060208a01995050600181019050610784565b50829750879550505050505092915050565b5f6020820190508181035f8301526107e6818461075b565b905092915050565b5f819050919050565b5f61081161080c61080784610631565b6107ee565b610631565b9050919050565b5f610822826107f7565b9050919050565b5f61083382610818565b9050919050565b61084381610829565b82525050565b5f60208201905061085c5f83018461083a565b92915050565b5f80fd5b5f80fd5b61087381610650565b811461087d575f80fd5b50565b5f8135905061088e8161086a565b92915050565b5f602082840312156108a9576108a8610862565b5b5f6108b684828501610880565b91505092915050565b5f80fd5b5f80fd5b5f80fd5b5f8083601f8401126108e0576108df6108bf565b5b8235905067ffffffffffffffff8111156108fd576108fc6108c3565b5b602083019150836001820283011115610919576109186108c7565b5b9250929050565b5f806020838503121561093657610935610862565b5b5f83013567ffffffffffffffff81111561095357610952610866565b5b61095f858286016108cb565b92509250509250929050565b7f4e487b71000000000000000000000000000000000000000000000000000000005f52602260045260245ffd5b5f60028204905060018216806109af57607f821691505b6020821081036109c2576109c161096b565b5b50919050565b5f82825260208201905092915050565b7f4f6e6c7920746865206368616972706572736f6e2063616e20736574207468655f8201527f20746f6b656e20636f6e74726163740000000000000000000000000000000000602082015250565b5f610a32602f836109c8565b9150610a3d826109d8565b604082019050919050565b5f6020820190508181035f830152610a5f81610a26565b9050919050565b7f496e76616c69642073656e6465722061646472657373000000000000000000005f82015250565b5f610a9a6016836109c8565b9150610aa582610a66565b602082019050919050565b5f6020820190508181035f830152610ac781610a8e565b9050919050565b7f546f6b656e20636f6e7472616374206e6f7420736574000000000000000000005f82015250565b5f610b026016836109c8565b9150610b0d82610ace565b602082019050919050565b5f6020820190508181035f830152610b2f81610af6565b9050919050565b5f819050919050565b610b4881610b36565b8114610b52575f80fd5b50565b5f81519050610b6381610b3f565b92915050565b5f60208284031215610b7e57610b7d610862565b5b5f610b8b84828501610b55565b91505092915050565b7f4e487b71000000000000000000000000000000000000000000000000000000005f52601260045260245ffd5b5f610bcb82610b36565b9150610bd683610b36565b925082610be657610be5610b94565b5b828204905092915050565b7f496e73756666696369656e7420746f6b656e7320746f20766f7465206f7220425f8201527f616c616e6365206578636565646573206e6f726d616c2062616c616e63650000602082015250565b5f610c4b603e836109c8565b9150610c5682610bf1565b604082019050919050565b5f6020820190508181035f830152610c7881610c3f565b9050919050565b5f819050919050565b5f610ca2610c9d610c9884610c7f565b6107ee565b610b36565b9050919050565b610cb281610c88565b82525050565b5f606082019050610ccb5f830186610661565b610cd86020830185610661565b610ce56040830184610ca9565b949350505050565b5f8115159050919050565b610d0181610ced565b8114610d0b575f80fd5b50565b5f81519050610d1c81610cf8565b92915050565b5f60208284031215610d3757610d36610862565b5b5f610d4484828501610d0e565b91505092915050565b7f546f6b656e207472616e73666572206661696c656400000000000000000000005f82015250565b5f610d816015836109c8565b9150610d8c82610d4d565b602082019050919050565b5f6020820190508181035f830152610dae81610d75565b9050919050565b5f82905092915050565b7f4e487b71000000000000000000000000000000000000000000000000000000005f52604160045260245ffd5b5f819050815f5260205f209050919050565b5f6020601f8301049050919050565b5f82821b905092915050565b5f60088302610e487fffffffffffffffffffffffffffffffffffffffffffffffffffffffffffffffff82610e0d565b610e528683610e0d565b95508019841693508086168417925050509392505050565b5f610e84610e7f610e7a84610b36565b6107ee565b610b36565b9050919050565b5f819050919050565b610e9d83610e6a565b610eb1610ea982610e8b565b848454610e19565b825550505050565b5f90565b610ec5610eb9565b610ed0818484610e94565b505050565b5b81811015610ef357610ee85f82610ebd565b600181019050610ed6565b5050565b601f821115610f3857610f0981610dec565b610f1284610dfe565b81016020851015610f21578190505b610f35610f2d85610dfe565b830182610ed5565b50505b505050565b5f82821c905092915050565b5f610f585f1984600802610f3d565b1980831691505092915050565b5f610f708383610f49565b9150826002028217905092915050565b610f8a8383610db5565b67ffffffffffffffff811115610fa357610fa2610dbf565b5b610fad8254610998565b610fb8828285610ef7565b5f601f831160018114610fe5575f8415610fd3578287013590505b610fdd8582610f65565b865550611044565b601f198416610ff386610dec565b5f5b8281101561101a57848901358255600182019150602085019450602081019050610ff5565b868310156110375784890135611033601f891682610f49565b8355505b6001600288020188555050505b50505050505050565b828183375f83830152505050565b5f61106683856109c8565b935061107383858461104d565b61107c836106f4565b840190509392505050565b5f6020820190508181035f8301526110a081848661105b565b9050939250505056fea26469706673582212205c6d1056213a51a22d48c7ef4941bac8d6fce843d3780f6b35143f674ea7f27b64736f6c63430008160033",
					"opcodes": "PUSH1 0x80 PUSH1 0x40 MSTORE CALLVALUE DUP1 ISZERO PUSH2 0xF JUMPI PUSH0 DUP1 REVERT JUMPDEST POP CALLER PUSH1 0x1 PUSH0 PUSH2 0x100 EXP DUP2 SLOAD DUP2 PUSH20 0xFFFFFFFFFFFFFFFFFFFFFFFFFFFFFFFFFFFFFFFF MUL NOT AND SWAP1 DUP4 PUSH20 0xFFFFFFFFFFFFFFFFFFFFFFFFFFFFFFFFFFFFFFFF AND MUL OR SWAP1 SSTORE POP PUSH2 0x10DF DUP1 PUSH2 0x5D PUSH0 CODECOPY PUSH0 RETURN INVALID PUSH1 0x80 PUSH1 0x40 MSTORE CALLVALUE DUP1 ISZERO PUSH2 0xF JUMPI PUSH0 DUP1 REVERT JUMPDEST POP PUSH1 0x4 CALLDATASIZE LT PUSH2 0x55 JUMPI PUSH0 CALLDATALOAD PUSH1 0xE0 SHR DUP1 PUSH4 0x2E4176CF EQ PUSH2 0x59 JUMPI DUP1 PUSH4 0x9A6EFCC0 EQ PUSH2 0x77 JUMPI DUP1 PUSH4 0xB8FCF937 EQ PUSH2 0x95 JUMPI DUP1 PUSH4 0xBBCD5BBE EQ PUSH2 0xB3 JUMPI DUP1 PUSH4 0xFC36E15B EQ PUSH2 0xCF JUMPI JUMPDEST PUSH0 DUP1 REVERT JUMPDEST PUSH2 0x61 PUSH2 0xEB JUMP JUMPDEST PUSH1 0x40 MLOAD PUSH2 0x6E SWAP2 SWAP1 PUSH2 0x670 JUMP JUMPDEST PUSH1 0x40 MLOAD DUP1 SWAP2 SUB SWAP1 RETURN JUMPDEST PUSH2 0x7F PUSH2 0x110 JUMP JUMPDEST PUSH1 0x40 MLOAD PUSH2 0x8C SWAP2 SWAP1 PUSH2 0x7CE JUMP JUMPDEST PUSH1 0x40 MLOAD DUP1 SWAP2 SUB SWAP1 RETURN JUMPDEST PUSH2 0x9D PUSH2 0x1E4 JUMP JUMPDEST PUSH1 0x40 MLOAD PUSH2 0xAA SWAP2 SWAP1 PUSH2 0x849 JUMP JUMPDEST PUSH1 0x40 MLOAD DUP1 SWAP2 SUB SWAP1 RETURN JUMPDEST PUSH2 0xCD PUSH1 0x4 DUP1 CALLDATASIZE SUB DUP2 ADD SWAP1 PUSH2 0xC8 SWAP2 SWAP1 PUSH2 0x894 JUMP JUMPDEST PUSH2 0x207 JUMP JUMPDEST STOP JUMPDEST PUSH2 0xE9 PUSH1 0x4 DUP1 CALLDATASIZE SUB DUP2 ADD SWAP1 PUSH2 0xE4 SWAP2 SWAP1 PUSH2 0x920 JUMP JUMPDEST PUSH2 0x2D8 JUMP JUMPDEST STOP JUMPDEST PUSH1 0x1 PUSH0 SWAP1 SLOAD SWAP1 PUSH2 0x100 EXP SWAP1 DIV PUSH20 0xFFFFFFFFFFFFFFFFFFFFFFFFFFFFFFFFFFFFFFFF AND DUP2 JUMP JUMPDEST PUSH1 0x60 PUSH1 0x2 DUP1 SLOAD DUP1 PUSH1 0x20 MUL PUSH1 0x20 ADD PUSH1 0x40 MLOAD SWAP1 DUP2 ADD PUSH1 0x40 MSTORE DUP1 SWAP3 SWAP2 SWAP1 DUP2 DUP2 MSTORE PUSH1 0x20 ADD PUSH0 SWAP1 JUMPDEST DUP3 DUP3 LT ISZERO PUSH2 0x1DB JUMPI DUP4 DUP3 SWAP1 PUSH0 MSTORE PUSH1 0x20 PUSH0 KECCAK256 ADD DUP1 SLOAD PUSH2 0x150 SWAP1 PUSH2 0x998 JUMP JUMPDEST DUP1 PUSH1 0x1F ADD PUSH1 0x20 DUP1 SWAP2 DIV MUL PUSH1 0x20 ADD PUSH1 0x40 MLOAD SWAP1 DUP2 ADD PUSH1 0x40 MSTORE DUP1 SWAP3 SWAP2 SWAP1 DUP2 DUP2 MSTORE PUSH1 0x20 ADD DUP3 DUP1 SLOAD PUSH2 0x17C SWAP1 PUSH2 0x998 JUMP JUMPDEST DUP1 ISZERO PUSH2 0x1C7 JUMPI DUP1 PUSH1 0x1F LT PUSH2 0x19E JUMPI PUSH2 0x100 DUP1 DUP4 SLOAD DIV MUL DUP4 MSTORE SWAP2 PUSH1 0x20 ADD SWAP2 PUSH2 0x1C7 JUMP JUMPDEST DUP3 ADD SWAP2 SWAP1 PUSH0 MSTORE PUSH1 0x20 PUSH0 KECCAK256 SWAP1 JUMPDEST DUP2 SLOAD DUP2 MSTORE SWAP1 PUSH1 0x1 ADD SWAP1 PUSH1 0x20 ADD DUP1 DUP4 GT PUSH2 0x1AA JUMPI DUP3 SWAP1 SUB PUSH1 0x1F AND DUP3 ADD SWAP2 JUMPDEST POP POP POP POP POP DUP2 MSTORE PUSH1 0x20 ADD SWAP1 PUSH1 0x1 ADD SWAP1 PUSH2 0x133 JUMP JUMPDEST POP POP POP POP SWAP1 POP SWAP1 JUMP JUMPDEST PUSH0 DUP1 SLOAD SWAP1 PUSH2 0x100 EXP SWAP1 DIV PUSH20 0xFFFFFFFFFFFFFFFFFFFFFFFFFFFFFFFFFFFFFFFF AND DUP2 JUMP JUMPDEST PUSH1 0x1 PUSH0 SWAP1 SLOAD SWAP1 PUSH2 0x100 EXP SWAP1 DIV PUSH20 0xFFFFFFFFFFFFFFFFFFFFFFFFFFFFFFFFFFFFFFFF AND PUSH20 0xFFFFFFFFFFFFFFFFFFFFFFFFFFFFFFFFFFFFFFFF AND CALLER PUSH20 0xFFFFFFFFFFFFFFFFFFFFFFFFFFFFFFFFFFFFFFFF AND EQ PUSH2 0x296 JUMPI PUSH1 0x40 MLOAD PUSH32 0x8C379A000000000000000000000000000000000000000000000000000000000 DUP2 MSTORE PUSH1 0x4 ADD PUSH2 0x28D SWAP1 PUSH2 0xA48 JUMP JUMPDEST PUSH1 0x40 MLOAD DUP1 SWAP2 SUB SWAP1 REVERT JUMPDEST DUP1 PUSH0 DUP1 PUSH2 0x100 EXP DUP2 SLOAD DUP2 PUSH20 0xFFFFFFFFFFFFFFFFFFFFFFFFFFFFFFFFFFFFFFFF MUL NOT AND SWAP1 DUP4 PUSH20 0xFFFFFFFFFFFFFFFFFFFFFFFFFFFFFFFFFFFFFFFF AND MUL OR SWAP1 SSTORE POP POP JUMP JUMPDEST PUSH0 PUSH20 0xFFFFFFFFFFFFFFFFFFFFFFFFFFFFFFFFFFFFFFFF AND CALLER PUSH20 0xFFFFFFFFFFFFFFFFFFFFFFFFFFFFFFFFFFFFFFFF AND SUB PUSH2 0x346 JUMPI PUSH1 0x40 MLOAD PUSH32 0x8C379A000000000000000000000000000000000000000000000000000000000 DUP2 MSTORE PUSH1 0x4 ADD PUSH2 0x33D SWAP1 PUSH2 0xAB0 JUMP JUMPDEST PUSH1 0x40 MLOAD DUP1 SWAP2 SUB SWAP1 REVERT JUMPDEST PUSH0 PUSH20 0xFFFFFFFFFFFFFFFFFFFFFFFFFFFFFFFFFFFFFFFF AND PUSH0 DUP1 SLOAD SWAP1 PUSH2 0x100 EXP SWAP1 DIV PUSH20 0xFFFFFFFFFFFFFFFFFFFFFFFFFFFFFFFFFFFFFFFF AND PUSH20 0xFFFFFFFFFFFFFFFFFFFFFFFFFFFFFFFFFFFFFFFF AND SUB PUSH2 0x3D3 JUMPI PUSH1 0x40 MLOAD PUSH32 0x8C379A000000000000000000000000000000000000000000000000000000000 DUP2 MSTORE PUSH1 0x4 ADD PUSH2 0x3CA SWAP1 PUSH2 0xB18 JUMP JUMPDEST PUSH1 0x40 MLOAD DUP1 SWAP2 SUB SWAP1 REVERT JUMPDEST PUSH1 0x1 PUSH8 0xDE0B6B3A7640000 PUSH0 DUP1 SLOAD SWAP1 PUSH2 0x100 EXP SWAP1 DIV PUSH20 0xFFFFFFFFFFFFFFFFFFFFFFFFFFFFFFFFFFFFFFFF AND PUSH20 0xFFFFFFFFFFFFFFFFFFFFFFFFFFFFFFFFFFFFFFFF AND PUSH4 0x70A08231 CALLER PUSH1 0x40 MLOAD DUP3 PUSH4 0xFFFFFFFF AND PUSH1 0xE0 SHL DUP2 MSTORE PUSH1 0x4 ADD PUSH2 0x436 SWAP2 SWAP1 PUSH2 0x670 JUMP JUMPDEST PUSH1 0x20 PUSH1 0x40 MLOAD DUP1 DUP4 SUB DUP2 DUP7 GAS STATICCALL ISZERO DUP1 ISZERO PUSH2 0x451 JUMPI RETURNDATASIZE PUSH0 DUP1 RETURNDATACOPY RETURNDATASIZE PUSH0 REVERT JUMPDEST POP POP POP POP PUSH1 0x40 MLOAD RETURNDATASIZE PUSH1 0x1F NOT PUSH1 0x1F DUP3 ADD AND DUP3 ADD DUP1 PUSH1 0x40 MSTORE POP DUP2 ADD SWAP1 PUSH2 0x475 SWAP2 SWAP1 PUSH2 0xB69 JUMP JUMPDEST PUSH2 0x47F SWAP2 SWAP1 PUSH2 0xBC1 JUMP JUMPDEST EQ PUSH2 0x4BF JUMPI PUSH1 0x40 MLOAD PUSH32 0x8C379A000000000000000000000000000000000000000000000000000000000 DUP2 MSTORE PUSH1 0x4 ADD PUSH2 0x4B6 SWAP1 PUSH2 0xC61 JUMP JUMPDEST PUSH1 0x40 MLOAD DUP1 SWAP2 SUB SWAP1 REVERT JUMPDEST PUSH0 DUP1 SLOAD SWAP1 PUSH2 0x100 EXP SWAP1 DIV PUSH20 0xFFFFFFFFFFFFFFFFFFFFFFFFFFFFFFFFFFFFFFFF AND PUSH20 0xFFFFFFFFFFFFFFFFFFFFFFFFFFFFFFFFFFFFFFFF AND PUSH4 0x23B872DD CALLER ADDRESS PUSH8 0xDE0B6B3A7640000 PUSH1 0x40 MLOAD DUP5 PUSH4 0xFFFFFFFF AND PUSH1 0xE0 SHL DUP2 MSTORE PUSH1 0x4 ADD PUSH2 0x523 SWAP4 SWAP3 SWAP2 SWAP1 PUSH2 0xCB8 JUMP JUMPDEST PUSH1 0x20 PUSH1 0x40 MLOAD DUP1 DUP4 SUB DUP2 PUSH0 DUP8 GAS CALL ISZERO DUP1 ISZERO PUSH2 0x53F JUMPI RETURNDATASIZE PUSH0 DUP1 RETURNDATACOPY RETURNDATASIZE PUSH0 REVERT JUMPDEST POP POP POP POP PUSH1 0x40 MLOAD RETURNDATASIZE PUSH1 0x1F NOT PUSH1 0x1F DUP3 ADD AND DUP3 ADD DUP1 PUSH1 0x40 MSTORE POP DUP2 ADD SWAP1 PUSH2 0x563 SWAP2 SWAP1 PUSH2 0xD22 JUMP JUMPDEST PUSH2 0x5A2 JUMPI PUSH1 0x40 MLOAD PUSH32 0x8C379A000000000000000000000000000000000000000000000000000000000 DUP2 MSTORE PUSH1 0x4 ADD PUSH2 0x599 SWAP1 PUSH2 0xD97 JUMP JUMPDEST PUSH1 0x40 MLOAD DUP1 SWAP2 SUB SWAP1 REVERT JUMPDEST PUSH1 0x2 DUP3 DUP3 SWAP1 SWAP2 DUP1 PUSH1 0x1 DUP2 SLOAD ADD DUP1 DUP3 SSTORE DUP1 SWAP2 POP POP PUSH1 0x1 SWAP1 SUB SWAP1 PUSH0 MSTORE PUSH1 0x20 PUSH0 KECCAK256 ADD PUSH0 SWAP1 SWAP2 SWAP3 SWAP1 SWAP2 SWAP3 SWAP1 SWAP2 SWAP3 SWAP1 SWAP2 SWAP3 POP SWAP2 DUP3 PUSH2 0x5DC SWAP3 SWAP2 SWAP1 PUSH2 0xF80 JUMP JUMPDEST POP CALLER PUSH20 0xFFFFFFFFFFFFFFFFFFFFFFFFFFFFFFFFFFFFFFFF AND PUSH32 0xCB6783276E8A4347387036BBFEA000268F0A4B1F8C46AC79980609F2AF8D2ACD DUP4 DUP4 PUSH1 0x40 MLOAD PUSH2 0x625 SWAP3 SWAP2 SWAP1 PUSH2 0x1087 JUMP JUMPDEST PUSH1 0x40 MLOAD DUP1 SWAP2 SUB SWAP1 LOG2 POP POP JUMP JUMPDEST PUSH0 PUSH20 0xFFFFFFFFFFFFFFFFFFFFFFFFFFFFFFFFFFFFFFFF DUP3 AND SWAP1 POP SWAP2 SWAP1 POP JUMP JUMPDEST PUSH0 PUSH2 0x65A DUP3 PUSH2 0x631 JUMP JUMPDEST SWAP1 POP SWAP2 SWAP1 POP JUMP JUMPDEST PUSH2 0x66A DUP2 PUSH2 0x650 JUMP JUMPDEST DUP3 MSTORE POP POP JUMP JUMPDEST PUSH0 PUSH1 0x20 DUP3 ADD SWAP1 POP PUSH2 0x683 PUSH0 DUP4 ADD DUP5 PUSH2 0x661 JUMP JUMPDEST SWAP3 SWAP2 POP POP JUMP JUMPDEST PUSH0 DUP2 MLOAD SWAP1 POP SWAP2 SWAP1 POP JUMP JUMPDEST PUSH0 DUP3 DUP3 MSTORE PUSH1 0x20 DUP3 ADD SWAP1 POP SWAP3 SWAP2 POP POP JUMP JUMPDEST PUSH0 DUP2 SWAP1 POP PUSH1 0x20 DUP3 ADD SWAP1 POP SWAP2 SWAP1 POP JUMP JUMPDEST PUSH0 DUP2 MLOAD SWAP1 POP SWAP2 SWAP1 POP JUMP JUMPDEST PUSH0 DUP3 DUP3 MSTORE PUSH1 0x20 DUP3 ADD SWAP1 POP SWAP3 SWAP2 POP POP JUMP JUMPDEST PUSH0 JUMPDEST DUP4 DUP2 LT ISZERO PUSH2 0x6E9 JUMPI DUP1 DUP3 ADD MLOAD DUP2 DUP5 ADD MSTORE PUSH1 0x20 DUP2 ADD SWAP1 POP PUSH2 0x6CE JUMP JUMPDEST PUSH0 DUP5 DUP5 ADD MSTORE POP POP POP POP JUMP JUMPDEST PUSH0 PUSH1 0x1F NOT PUSH1 0x1F DUP4 ADD AND SWAP1 POP SWAP2 SWAP1 POP JUMP JUMPDEST PUSH0 PUSH2 0x70E DUP3 PUSH2 0x6B2 JUMP JUMPDEST PUSH2 0x718 DUP2 DUP6 PUSH2 0x6BC JUMP JUMPDEST SWAP4 POP PUSH2 0x728 DUP2 DUP6 PUSH1 0x20 DUP7 ADD PUSH2 0x6CC JUMP JUMPDEST PUSH2 0x731 DUP2 PUSH2 0x6F4 JUMP JUMPDEST DUP5 ADD SWAP2 POP POP SWAP3 SWAP2 POP POP JUMP JUMPDEST PUSH0 PUSH2 0x747 DUP4 DUP4 PUSH2 0x704 JUMP JUMPDEST SWAP1 POP SWAP3 SWAP2 POP POP JUMP JUMPDEST PUSH0 PUSH1 0x20 DUP3 ADD SWAP1 POP SWAP2 SWAP1 POP JUMP JUMPDEST PUSH0 PUSH2 0x765 DUP3 PUSH2 0x689 JUMP JUMPDEST PUSH2 0x76F DUP2 DUP6 PUSH2 0x693 JUMP JUMPDEST SWAP4 POP DUP4 PUSH1 0x20 DUP3 MUL DUP6 ADD PUSH2 0x781 DUP6 PUSH2 0x6A3 JUMP JUMPDEST DUP1 PUSH0 JUMPDEST DUP6 DUP2 LT ISZERO PUSH2 0x7BC JUMPI DUP5 DUP5 SUB DUP10 MSTORE DUP2 MLOAD PUSH2 0x79D DUP6 DUP3 PUSH2 0x73C JUMP JUMPDEST SWAP5 POP PUSH2 0x7A8 DUP4 PUSH2 0x74F JUMP JUMPDEST SWAP3 POP PUSH1 0x20 DUP11 ADD SWAP10 POP POP PUSH1 0x1 DUP2 ADD SWAP1 POP PUSH2 0x784 JUMP JUMPDEST POP DUP3 SWAP8 POP DUP8 SWAP6 POP POP POP POP POP POP SWAP3 SWAP2 POP POP JUMP JUMPDEST PUSH0 PUSH1 0x20 DUP3 ADD SWAP1 POP DUP2 DUP2 SUB PUSH0 DUP4 ADD MSTORE PUSH2 0x7E6 DUP2 DUP5 PUSH2 0x75B JUMP JUMPDEST SWAP1 POP SWAP3 SWAP2 POP POP JUMP JUMPDEST PUSH0 DUP2 SWAP1 POP SWAP2 SWAP1 POP JUMP JUMPDEST PUSH0 PUSH2 0x811 PUSH2 0x80C PUSH2 0x807 DUP5 PUSH2 0x631 JUMP JUMPDEST PUSH2 0x7EE JUMP JUMPDEST PUSH2 0x631 JUMP JUMPDEST SWAP1 POP SWAP2 SWAP1 POP JUMP JUMPDEST PUSH0 PUSH2 0x822 DUP3 PUSH2 0x7F7 JUMP JUMPDEST SWAP1 POP SWAP2 SWAP1 POP JUMP JUMPDEST PUSH0 PUSH2 0x833 DUP3 PUSH2 0x818 JUMP JUMPDEST SWAP1 POP SWAP2 SWAP1 POP JUMP JUMPDEST PUSH2 0x843 DUP2 PUSH2 0x829 JUMP JUMPDEST DUP3 MSTORE POP POP JUMP JUMPDEST PUSH0 PUSH1 0x20 DUP3 ADD SWAP1 POP PUSH2 0x85C PUSH0 DUP4 ADD DUP5 PUSH2 0x83A JUMP JUMPDEST SWAP3 SWAP2 POP POP JUMP JUMPDEST PUSH0 DUP1 REVERT JUMPDEST PUSH0 DUP1 REVERT JUMPDEST PUSH2 0x873 DUP2 PUSH2 0x650 JUMP JUMPDEST DUP2 EQ PUSH2 0x87D JUMPI PUSH0 DUP1 REVERT JUMPDEST POP JUMP JUMPDEST PUSH0 DUP2 CALLDATALOAD SWAP1 POP PUSH2 0x88E DUP2 PUSH2 0x86A JUMP JUMPDEST SWAP3 SWAP2 POP POP JUMP JUMPDEST PUSH0 PUSH1 0x20 DUP3 DUP5 SUB SLT ISZERO PUSH2 0x8A9 JUMPI PUSH2 0x8A8 PUSH2 0x862 JUMP JUMPDEST JUMPDEST PUSH0 PUSH2 0x8B6 DUP5 DUP3 DUP6 ADD PUSH2 0x880 JUMP JUMPDEST SWAP2 POP POP SWAP3 SWAP2 POP POP JUMP JUMPDEST PUSH0 DUP1 REVERT JUMPDEST PUSH0 DUP1 REVERT JUMPDEST PUSH0 DUP1 REVERT JUMPDEST PUSH0 DUP1 DUP4 PUSH1 0x1F DUP5 ADD SLT PUSH2 0x8E0 JUMPI PUSH2 0x8DF PUSH2 0x8BF JUMP JUMPDEST JUMPDEST DUP3 CALLDATALOAD SWAP1 POP PUSH8 0xFFFFFFFFFFFFFFFF DUP2 GT ISZERO PUSH2 0x8FD JUMPI PUSH2 0x8FC PUSH2 0x8C3 JUMP JUMPDEST JUMPDEST PUSH1 0x20 DUP4 ADD SWAP2 POP DUP4 PUSH1 0x1 DUP3 MUL DUP4 ADD GT ISZERO PUSH2 0x919 JUMPI PUSH2 0x918 PUSH2 0x8C7 JUMP JUMPDEST JUMPDEST SWAP3 POP SWAP3 SWAP1 POP JUMP JUMPDEST PUSH0 DUP1 PUSH1 0x20 DUP4 DUP6 SUB SLT ISZERO PUSH2 0x936 JUMPI PUSH2 0x935 PUSH2 0x862 JUMP JUMPDEST JUMPDEST PUSH0 DUP4 ADD CALLDATALOAD PUSH8 0xFFFFFFFFFFFFFFFF DUP2 GT ISZERO PUSH2 0x953 JUMPI PUSH2 0x952 PUSH2 0x866 JUMP JUMPDEST JUMPDEST PUSH2 0x95F DUP6 DUP3 DUP7 ADD PUSH2 0x8CB JUMP JUMPDEST SWAP3 POP SWAP3 POP POP SWAP3 POP SWAP3 SWAP1 POP JUMP JUMPDEST PUSH32 0x4E487B7100000000000000000000000000000000000000000000000000000000 PUSH0 MSTORE PUSH1 0x22 PUSH1 0x4 MSTORE PUSH1 0x24 PUSH0 REVERT JUMPDEST PUSH0 PUSH1 0x2 DUP3 DIV SWAP1 POP PUSH1 0x1 DUP3 AND DUP1 PUSH2 0x9AF JUMPI PUSH1 0x7F DUP3 AND SWAP2 POP JUMPDEST PUSH1 0x20 DUP3 LT DUP2 SUB PUSH2 0x9C2 JUMPI PUSH2 0x9C1 PUSH2 0x96B JUMP JUMPDEST JUMPDEST POP SWAP2 SWAP1 POP JUMP JUMPDEST PUSH0 DUP3 DUP3 MSTORE PUSH1 0x20 DUP3 ADD SWAP1 POP SWAP3 SWAP2 POP POP JUMP JUMPDEST PUSH32 0x4F6E6C7920746865206368616972706572736F6E2063616E2073657420746865 PUSH0 DUP3 ADD MSTORE PUSH32 0x20746F6B656E20636F6E74726163740000000000000000000000000000000000 PUSH1 0x20 DUP3 ADD MSTORE POP JUMP JUMPDEST PUSH0 PUSH2 0xA32 PUSH1 0x2F DUP4 PUSH2 0x9C8 JUMP JUMPDEST SWAP2 POP PUSH2 0xA3D DUP3 PUSH2 0x9D8 JUMP JUMPDEST PUSH1 0x40 DUP3 ADD SWAP1 POP SWAP2 SWAP1 POP JUMP JUMPDEST PUSH0 PUSH1 0x20 DUP3 ADD SWAP1 POP DUP2 DUP2 SUB PUSH0 DUP4 ADD MSTORE PUSH2 0xA5F DUP2 PUSH2 0xA26 JUMP JUMPDEST SWAP1 POP SWAP2 SWAP1 POP JUMP JUMPDEST PUSH32 0x496E76616C69642073656E646572206164647265737300000000000000000000 PUSH0 DUP3 ADD MSTORE POP JUMP JUMPDEST PUSH0 PUSH2 0xA9A PUSH1 0x16 DUP4 PUSH2 0x9C8 JUMP JUMPDEST SWAP2 POP PUSH2 0xAA5 DUP3 PUSH2 0xA66 JUMP JUMPDEST PUSH1 0x20 DUP3 ADD SWAP1 POP SWAP2 SWAP1 POP JUMP JUMPDEST PUSH0 PUSH1 0x20 DUP3 ADD SWAP1 POP DUP2 DUP2 SUB PUSH0 DUP4 ADD MSTORE PUSH2 0xAC7 DUP2 PUSH2 0xA8E JUMP JUMPDEST SWAP1 POP SWAP2 SWAP1 POP JUMP JUMPDEST PUSH32 0x546F6B656E20636F6E7472616374206E6F742073657400000000000000000000 PUSH0 DUP3 ADD MSTORE POP JUMP JUMPDEST PUSH0 PUSH2 0xB02 PUSH1 0x16 DUP4 PUSH2 0x9C8 JUMP JUMPDEST SWAP2 POP PUSH2 0xB0D DUP3 PUSH2 0xACE JUMP JUMPDEST PUSH1 0x20 DUP3 ADD SWAP1 POP SWAP2 SWAP1 POP JUMP JUMPDEST PUSH0 PUSH1 0x20 DUP3 ADD SWAP1 POP DUP2 DUP2 SUB PUSH0 DUP4 ADD MSTORE PUSH2 0xB2F DUP2 PUSH2 0xAF6 JUMP JUMPDEST SWAP1 POP SWAP2 SWAP1 POP JUMP JUMPDEST PUSH0 DUP2 SWAP1 POP SWAP2 SWAP1 POP JUMP JUMPDEST PUSH2 0xB48 DUP2 PUSH2 0xB36 JUMP JUMPDEST DUP2 EQ PUSH2 0xB52 JUMPI PUSH0 DUP1 REVERT JUMPDEST POP JUMP JUMPDEST PUSH0 DUP2 MLOAD SWAP1 POP PUSH2 0xB63 DUP2 PUSH2 0xB3F JUMP JUMPDEST SWAP3 SWAP2 POP POP JUMP JUMPDEST PUSH0 PUSH1 0x20 DUP3 DUP5 SUB SLT ISZERO PUSH2 0xB7E JUMPI PUSH2 0xB7D PUSH2 0x862 JUMP JUMPDEST JUMPDEST PUSH0 PUSH2 0xB8B DUP5 DUP3 DUP6 ADD PUSH2 0xB55 JUMP JUMPDEST SWAP2 POP POP SWAP3 SWAP2 POP POP JUMP JUMPDEST PUSH32 0x4E487B7100000000000000000000000000000000000000000000000000000000 PUSH0 MSTORE PUSH1 0x12 PUSH1 0x4 MSTORE PUSH1 0x24 PUSH0 REVERT JUMPDEST PUSH0 PUSH2 0xBCB DUP3 PUSH2 0xB36 JUMP JUMPDEST SWAP2 POP PUSH2 0xBD6 DUP4 PUSH2 0xB36 JUMP JUMPDEST SWAP3 POP DUP3 PUSH2 0xBE6 JUMPI PUSH2 0xBE5 PUSH2 0xB94 JUMP JUMPDEST JUMPDEST DUP3 DUP3 DIV SWAP1 POP SWAP3 SWAP2 POP POP JUMP JUMPDEST PUSH32 0x496E73756666696369656E7420746F6B656E7320746F20766F7465206F722042 PUSH0 DUP3 ADD MSTORE PUSH32 0x616C616E6365206578636565646573206E6F726D616C2062616C616E63650000 PUSH1 0x20 DUP3 ADD MSTORE POP JUMP JUMPDEST PUSH0 PUSH2 0xC4B PUSH1 0x3E DUP4 PUSH2 0x9C8 JUMP JUMPDEST SWAP2 POP PUSH2 0xC56 DUP3 PUSH2 0xBF1 JUMP JUMPDEST PUSH1 0x40 DUP3 ADD SWAP1 POP SWAP2 SWAP1 POP JUMP JUMPDEST PUSH0 PUSH1 0x20 DUP3 ADD SWAP1 POP DUP2 DUP2 SUB PUSH0 DUP4 ADD MSTORE PUSH2 0xC78 DUP2 PUSH2 0xC3F JUMP JUMPDEST SWAP1 POP SWAP2 SWAP1 POP JUMP JUMPDEST PUSH0 DUP2 SWAP1 POP SWAP2 SWAP1 POP JUMP JUMPDEST PUSH0 PUSH2 0xCA2 PUSH2 0xC9D PUSH2 0xC98 DUP5 PUSH2 0xC7F JUMP JUMPDEST PUSH2 0x7EE JUMP JUMPDEST PUSH2 0xB36 JUMP JUMPDEST SWAP1 POP SWAP2 SWAP1 POP JUMP JUMPDEST PUSH2 0xCB2 DUP2 PUSH2 0xC88 JUMP JUMPDEST DUP3 MSTORE POP POP JUMP JUMPDEST PUSH0 PUSH1 0x60 DUP3 ADD SWAP1 POP PUSH2 0xCCB PUSH0 DUP4 ADD DUP7 PUSH2 0x661 JUMP JUMPDEST PUSH2 0xCD8 PUSH1 0x20 DUP4 ADD DUP6 PUSH2 0x661 JUMP JUMPDEST PUSH2 0xCE5 PUSH1 0x40 DUP4 ADD DUP5 PUSH2 0xCA9 JUMP JUMPDEST SWAP5 SWAP4 POP POP POP POP JUMP JUMPDEST PUSH0 DUP2 ISZERO ISZERO SWAP1 POP SWAP2 SWAP1 POP JUMP JUMPDEST PUSH2 0xD01 DUP2 PUSH2 0xCED JUMP JUMPDEST DUP2 EQ PUSH2 0xD0B JUMPI PUSH0 DUP1 REVERT JUMPDEST POP JUMP JUMPDEST PUSH0 DUP2 MLOAD SWAP1 POP PUSH2 0xD1C DUP2 PUSH2 0xCF8 JUMP JUMPDEST SWAP3 SWAP2 POP POP JUMP JUMPDEST PUSH0 PUSH1 0x20 DUP3 DUP5 SUB SLT ISZERO PUSH2 0xD37 JUMPI PUSH2 0xD36 PUSH2 0x862 JUMP JUMPDEST JUMPDEST PUSH0 PUSH2 0xD44 DUP5 DUP3 DUP6 ADD PUSH2 0xD0E JUMP JUMPDEST SWAP2 POP POP SWAP3 SWAP2 POP POP JUMP JUMPDEST PUSH32 0x546F6B656E207472616E73666572206661696C65640000000000000000000000 PUSH0 DUP3 ADD MSTORE POP JUMP JUMPDEST PUSH0 PUSH2 0xD81 PUSH1 0x15 DUP4 PUSH2 0x9C8 JUMP JUMPDEST SWAP2 POP PUSH2 0xD8C DUP3 PUSH2 0xD4D JUMP JUMPDEST PUSH1 0x20 DUP3 ADD SWAP1 POP SWAP2 SWAP1 POP JUMP JUMPDEST PUSH0 PUSH1 0x20 DUP3 ADD SWAP1 POP DUP2 DUP2 SUB PUSH0 DUP4 ADD MSTORE PUSH2 0xDAE DUP2 PUSH2 0xD75 JUMP JUMPDEST SWAP1 POP SWAP2 SWAP1 POP JUMP JUMPDEST PUSH0 DUP3 SWAP1 POP SWAP3 SWAP2 POP POP JUMP JUMPDEST PUSH32 0x4E487B7100000000000000000000000000000000000000000000000000000000 PUSH0 MSTORE PUSH1 0x41 PUSH1 0x4 MSTORE PUSH1 0x24 PUSH0 REVERT JUMPDEST PUSH0 DUP2 SWAP1 POP DUP2 PUSH0 MSTORE PUSH1 0x20 PUSH0 KECCAK256 SWAP1 POP SWAP2 SWAP1 POP JUMP JUMPDEST PUSH0 PUSH1 0x20 PUSH1 0x1F DUP4 ADD DIV SWAP1 POP SWAP2 SWAP1 POP JUMP JUMPDEST PUSH0 DUP3 DUP3 SHL SWAP1 POP SWAP3 SWAP2 POP POP JUMP JUMPDEST PUSH0 PUSH1 0x8 DUP4 MUL PUSH2 0xE48 PUSH32 0xFFFFFFFFFFFFFFFFFFFFFFFFFFFFFFFFFFFFFFFFFFFFFFFFFFFFFFFFFFFFFFFF DUP3 PUSH2 0xE0D JUMP JUMPDEST PUSH2 0xE52 DUP7 DUP4 PUSH2 0xE0D JUMP JUMPDEST SWAP6 POP DUP1 NOT DUP5 AND SWAP4 POP DUP1 DUP7 AND DUP5 OR SWAP3 POP POP POP SWAP4 SWAP3 POP POP POP JUMP JUMPDEST PUSH0 PUSH2 0xE84 PUSH2 0xE7F PUSH2 0xE7A DUP5 PUSH2 0xB36 JUMP JUMPDEST PUSH2 0x7EE JUMP JUMPDEST PUSH2 0xB36 JUMP JUMPDEST SWAP1 POP SWAP2 SWAP1 POP JUMP JUMPDEST PUSH0 DUP2 SWAP1 POP SWAP2 SWAP1 POP JUMP JUMPDEST PUSH2 0xE9D DUP4 PUSH2 0xE6A JUMP JUMPDEST PUSH2 0xEB1 PUSH2 0xEA9 DUP3 PUSH2 0xE8B JUMP JUMPDEST DUP5 DUP5 SLOAD PUSH2 0xE19 JUMP JUMPDEST DUP3 SSTORE POP POP POP POP JUMP JUMPDEST PUSH0 SWAP1 JUMP JUMPDEST PUSH2 0xEC5 PUSH2 0xEB9 JUMP JUMPDEST PUSH2 0xED0 DUP2 DUP5 DUP5 PUSH2 0xE94 JUMP JUMPDEST POP POP POP JUMP JUMPDEST JUMPDEST DUP2 DUP2 LT ISZERO PUSH2 0xEF3 JUMPI PUSH2 0xEE8 PUSH0 DUP3 PUSH2 0xEBD JUMP JUMPDEST PUSH1 0x1 DUP2 ADD SWAP1 POP PUSH2 0xED6 JUMP JUMPDEST POP POP JUMP JUMPDEST PUSH1 0x1F DUP3 GT ISZERO PUSH2 0xF38 JUMPI PUSH2 0xF09 DUP2 PUSH2 0xDEC JUMP JUMPDEST PUSH2 0xF12 DUP5 PUSH2 0xDFE JUMP JUMPDEST DUP2 ADD PUSH1 0x20 DUP6 LT ISZERO PUSH2 0xF21 JUMPI DUP2 SWAP1 POP JUMPDEST PUSH2 0xF35 PUSH2 0xF2D DUP6 PUSH2 0xDFE JUMP JUMPDEST DUP4 ADD DUP3 PUSH2 0xED5 JUMP JUMPDEST POP POP JUMPDEST POP POP POP JUMP JUMPDEST PUSH0 DUP3 DUP3 SHR SWAP1 POP SWAP3 SWAP2 POP POP JUMP JUMPDEST PUSH0 PUSH2 0xF58 PUSH0 NOT DUP5 PUSH1 0x8 MUL PUSH2 0xF3D JUMP JUMPDEST NOT DUP1 DUP4 AND SWAP2 POP POP SWAP3 SWAP2 POP POP JUMP JUMPDEST PUSH0 PUSH2 0xF70 DUP4 DUP4 PUSH2 0xF49 JUMP JUMPDEST SWAP2 POP DUP3 PUSH1 0x2 MUL DUP3 OR SWAP1 POP SWAP3 SWAP2 POP POP JUMP JUMPDEST PUSH2 0xF8A DUP4 DUP4 PUSH2 0xDB5 JUMP JUMPDEST PUSH8 0xFFFFFFFFFFFFFFFF DUP2 GT ISZERO PUSH2 0xFA3 JUMPI PUSH2 0xFA2 PUSH2 0xDBF JUMP JUMPDEST JUMPDEST PUSH2 0xFAD DUP3 SLOAD PUSH2 0x998 JUMP JUMPDEST PUSH2 0xFB8 DUP3 DUP3 DUP6 PUSH2 0xEF7 JUMP JUMPDEST PUSH0 PUSH1 0x1F DUP4 GT PUSH1 0x1 DUP2 EQ PUSH2 0xFE5 JUMPI PUSH0 DUP5 ISZERO PUSH2 0xFD3 JUMPI DUP3 DUP8 ADD CALLDATALOAD SWAP1 POP JUMPDEST PUSH2 0xFDD DUP6 DUP3 PUSH2 0xF65 JUMP JUMPDEST DUP7 SSTORE POP PUSH2 0x1044 JUMP JUMPDEST PUSH1 0x1F NOT DUP5 AND PUSH2 0xFF3 DUP7 PUSH2 0xDEC JUMP JUMPDEST PUSH0 JUMPDEST DUP3 DUP2 LT ISZERO PUSH2 0x101A JUMPI DUP5 DUP10 ADD CALLDATALOAD DUP3 SSTORE PUSH1 0x1 DUP3 ADD SWAP2 POP PUSH1 0x20 DUP6 ADD SWAP5 POP PUSH1 0x20 DUP2 ADD SWAP1 POP PUSH2 0xFF5 JUMP JUMPDEST DUP7 DUP4 LT ISZERO PUSH2 0x1037 JUMPI DUP5 DUP10 ADD CALLDATALOAD PUSH2 0x1033 PUSH1 0x1F DUP10 AND DUP3 PUSH2 0xF49 JUMP JUMPDEST DUP4 SSTORE POP JUMPDEST PUSH1 0x1 PUSH1 0x2 DUP9 MUL ADD DUP9 SSTORE POP POP POP JUMPDEST POP POP POP POP POP POP POP JUMP JUMPDEST DUP3 DUP2 DUP4 CALLDATACOPY PUSH0 DUP4 DUP4 ADD MSTORE POP POP POP JUMP JUMPDEST PUSH0 PUSH2 0x1066 DUP4 DUP6 PUSH2 0x9C8 JUMP JUMPDEST SWAP4 POP PUSH2 0x1073 DUP4 DUP6 DUP5 PUSH2 0x104D JUMP JUMPDEST PUSH2 0x107C DUP4 PUSH2 0x6F4 JUMP JUMPDEST DUP5 ADD SWAP1 POP SWAP4 SWAP3 POP POP POP JUMP JUMPDEST PUSH0 PUSH1 0x20 DUP3 ADD SWAP1 POP DUP2 DUP2 SUB PUSH0 DUP4 ADD MSTORE PUSH2 0x10A0 DUP2 DUP5 DUP7 PUSH2 0x105B JUMP JUMPDEST SWAP1 POP SWAP4 SWAP3 POP POP POP JUMP INVALID LOG2 PUSH5 0x6970667358 0x22 SLT KECCAK256 0x5C PUSH14 0x1056213A51A22D48C7EF4941BAC8 0xD6 0xFC 0xE8 NUMBER 0xD3 PUSH25 0xF6B35143F674EA7F27B64736F6C6343000816003300000000 "
				},
				"gasEstimates": {
					"creation": {
						"codeDepositCost": "863800",
						"executionCost": "25159",
						"totalCost": "888959"
					},
					"external": {
						"chairperson()": "2486",
						"getEncryptedVotes()": "infinite",
						"myToken()": "infinite",
						"setTokenContract(address)": "26928",
						"vote(string)": "infinite"
					}
				},
				"methodIdentifiers": {
					"chairperson()": "2e4176cf",
					"getEncryptedVotes()": "9a6efcc0",
					"myToken()": "b8fcf937",
					"setTokenContract(address)": "bbcd5bbe",
					"vote(string)": "fc36e15b"
				}
			},
			"storageLayout": {
				"storage": [
					{
						"astId": 814,
						"contract": "contracts/VotingSystem.sol:VotingSystem",
						"label": "myToken",
						"offset": 0,
						"slot": "0",
						"type": "t_contract(MyToken)808"
					},
					{
						"astId": 816,
						"contract": "contracts/VotingSystem.sol:VotingSystem",
						"label": "chairperson",
						"offset": 0,
						"slot": "1",
						"type": "t_address"
					},
					{
						"astId": 819,
						"contract": "contracts/VotingSystem.sol:VotingSystem",
						"label": "encryptedVotes",
						"offset": 0,
						"slot": "2",
						"type": "t_array(t_string_storage)dyn_storage"
					}
				],
				"types": {
					"t_address": {
						"encoding": "inplace",
						"label": "address",
						"numberOfBytes": "20"
					},
					"t_array(t_string_storage)dyn_storage": {
						"base": "t_string_storage",
						"encoding": "dynamic_array",
						"label": "string[]",
						"numberOfBytes": "32"
					},
					"t_contract(MyToken)808": {
						"encoding": "inplace",
						"label": "contract MyToken",
						"numberOfBytes": "20"
					},
					"t_string_storage": {
						"encoding": "bytes",
						"label": "string",
						"numberOfBytes": "32"
					}
				}
			},
			"userdoc": {
				"kind": "user",
				"methods": {},
				"version": 1
			}
		}
	}
}